{"abi":[{"type":"constructor","inputs":[],"stateMutability":"nonpayable"},{"type":"function","name":"agents","inputs":[{"name":"","type":"address","internalType":"address"}],"outputs":[{"name":"name","type":"string","internalType":"string"},{"name":"gamesPlayed","type":"uint64","internalType":"uint64"},{"name":"wins","type":"uint64","internalType":"uint64"},{"name":"losses","type":"uint64","internalType":"uint64"},{"name":"kills","type":"uint64","internalType":"uint64"},{"name":"deaths","type":"uint64","internalType":"uint64"},{"name":"tasksCompleted","type":"uint64","internalType":"uint64"},{"name":"timesImpostor","type":"uint64","internalType":"uint64"},{"name":"timesCrewmate","type":"uint64","internalType":"uint64"},{"name":"totalEarnings","type":"uint128","internalType":"uint128"},{"name":"totalLost","type":"uint128","internalType":"uint128"},{"name":"registeredAt","type":"uint64","internalType":"uint64"},{"name":"lastPlayedAt","type":"uint64","internalType":"uint64"}],"stateMutability":"view"},{"type":"function","name":"allAgents","inputs":[{"name":"","type":"uint256","internalType":"uint256"}],"outputs":[{"name":"","type":"address","internalType":"address"}],"stateMutability":"view"},{"type":"function","name":"gameSettlement","inputs":[],"outputs":[{"name":"","type":"address","internalType":"address"}],"stateMutability":"view"},{"type":"function","name":"getAgentStats","inputs":[{"name":"agent","type":"address","internalType":"address"}],"outputs":[{"name":"name","type":"string","internalType":"string"},{"name":"gamesPlayed","type":"uint64","internalType":"uint64"},{"name":"wins","type":"uint64","internalType":"uint64"},{"name":"losses","type":"uint64","internalType":"uint64"},{"name":"kills","type":"uint64","internalType":"uint64"},{"name":"tasksCompleted","type":"uint64","internalType":"uint64"}],"stateMutability":"view"},{"type":"function","name":"getAllAgents","inputs":[],"outputs":[{"name":"","type":"address[]","internalType":"address[]"}],"stateMutability":"view"},{"type":"function","name":"getTopAgents","inputs":[{"name":"limit","type":"uint256","internalType":"uint256"}],"outputs":[{"name":"addresses","type":"address[]","internalType":"address[]"},{"name":"wins","type":"uint64[]","internalType":"uint64[]"}],"stateMutability":"view"},{"type":"function","name":"getTotalAgents","inputs":[],"outputs":[{"name":"","type":"uint256","internalType":"uint256"}],"stateMutability":"view"},{"type":"function","name":"getWinRate","inputs":[{"name":"agent","type":"address","internalType":"address"}],"outputs":[{"name":"","type":"uint256","internalType":"uint256"}],"stateMutability":"view"},{"type":"function","name":"isRegistered","inputs":[{"name":"","type":"address","internalType":"address"}],"outputs":[{"name":"","type":"bool","internalType":"bool"}],"stateMutability":"view"},{"type":"function","name":"owner","inputs":[],"outputs":[{"name":"","type":"address","internalType":"address"}],"stateMutability":"view"},{"type":"function","name":"recordDeath","inputs":[{"name":"agent","type":"address","internalType":"address"}],"outputs":[],"stateMutability":"nonpayable"},{"type":"function","name":"recordGameResult","inputs":[{"name":"agent","type":"address","internalType":"address"},{"name":"gameId","type":"bytes32","internalType":"bytes32"},{"name":"won","type":"bool","internalType":"bool"},{"name":"wasImpostor","type":"bool","internalType":"bool"},{"name":"kills","type":"uint64","internalType":"uint64"},{"name":"tasks","type":"uint64","internalType":"uint64"},{"name":"earnings","type":"uint128","internalType":"uint128"},{"name":"lost","type":"uint128","internalType":"uint128"}],"outputs":[],"stateMutability":"nonpayable"},{"type":"function","name":"registerAgent","inputs":[{"name":"agent","type":"address","internalType":"address"},{"name":"name","type":"string","internalType":"string"}],"outputs":[],"stateMutability":"nonpayable"},{"type":"function","name":"setGameSettlement","inputs":[{"name":"_gameSettlement","type":"address","internalType":"address"}],"outputs":[],"stateMutability":"nonpayable"},{"type":"function","name":"setWagerVault","inputs":[{"name":"_wagerVault","type":"address","internalType":"address"}],"outputs":[],"stateMutability":"nonpayable"},{"type":"function","name":"totalGamesPlayed","inputs":[],"outputs":[{"name":"","type":"uint256","internalType":"uint256"}],"stateMutability":"view"},{"type":"function","name":"transferOwnership","inputs":[{"name":"newOwner","type":"address","internalType":"address"}],"outputs":[],"stateMutability":"nonpayable"},{"type":"function","name":"updateName","inputs":[{"name":"newName","type":"string","internalType":"string"}],"outputs":[],"stateMutability":"nonpayable"},{"type":"function","name":"wagerVault","inputs":[],"outputs":[{"name":"","type":"address","internalType":"address"}],"stateMutability":"view"},{"type":"event","name":"AgentRegistered","inputs":[{"name":"agent","type":"address","indexed":true,"internalType":"address"},{"name":"name","type":"string","indexed":false,"internalType":"string"}],"anonymous":false},{"type":"event","name":"GameRecorded","inputs":[{"name":"agent","type":"address","indexed":true,"internalType":"address"},{"name":"gameId","type":"bytes32","indexed":true,"internalType":"bytes32"},{"name":"won","type":"bool","indexed":false,"internalType":"bool"},{"name":"wasImpostor","type":"bool","indexed":false,"internalType":"bool"}],"anonymous":false},{"type":"event","name":"StatsUpdated","inputs":[{"name":"agent","type":"address","indexed":true,"internalType":"address"},{"name":"gamesPlayed","type":"uint64","indexed":false,"internalType":"uint64"},{"name":"wins","type":"uint64","indexed":false,"internalType":"uint64"}],"anonymous":false}],"bytecode":{"object":"0x608080604052346026575f80546001600160a01b031916331790556118be908161002b8239f35b5f80fdfe60806040526004361015610011575f80fd5b5f5f3560e01c80630ac277db14610e7157806322b833d814610e2d5780632d1b2c0614610dde57806332fb035c14610db6578063365f349d146109c85780633731a16f146109aa5780634ba8c8ba146109595780635c4921291461093b57806384da92a71461079457806384df5d841461076b578063860e4ac6146106d55780638da5cb5b146106ae578063914a1e7614610682578063b1e29ea414610418578063b5695b38146102e7578063c3c5a547146102a8578063e0bb12f714610264578063f2fde38b146101dc5763fd66091e146100eb575f80fd5b346101d95760203660031901126101d95761015b906040906001600160a01b03610113610f2c565b1681526003602052206101258161109f565b906001600160401b0360018201549160028101549060046003820154910154916040519687966101a088526101a0880190610fab565b948481166020880152848160401c166040880152848160801c16606088015260c01c608087015283811660a0870152838160401c1660c0870152838160801c1660e087015260c01c6101008601526001600160801b03811661012086015260801c61014085015281811661016085015260401c166101808301520390f35b80fd5b50346101d95760203660031901126101d9576101f6610f2c565b81549061020d336001600160a01b0384161461168e565b6001600160a01b031690811561022d576001600160a01b03191617815580f35b60405162461bcd60e51b815260206004820152600f60248201526e496e76616c6964206164647265737360881b6044820152606490fd5b50346101d95760203660031901126101d957600435906005548210156101d957602061028f83610fea565b905460405160039290921b1c6001600160a01b03168152f35b50346101d95760203660031901126101d95760209060ff906040906001600160a01b036102d3610f2c565b168152600484522054166040519015158152f35b50346101d95760203660031901126101d9576103fa906040906001600160a01b03610310610f2c565b1681526003602052206040516103258161104e565b61032e8261109f565b918282526001810154916001600160401b038316928360208301526001600160401b038160401c168060408401526001600160401b038260801c169182606085015260c01c928360808201526101806001600160401b03600460028801549782891660a0860152828960401c16988960c0870152838160801c1660e087015260c01c61010086015260038101546001600160801b03811661012087015260801c610140860152015481811661016085015260401c1691015260405196879660c0885260c0880190610fab565b94602087015260408601526060850152608084015260a08301520390f35b50346101d95760203660031901126101d9576004359060328211610679575b6005549182811015610672575b61044d81611842565b926104578261182b565b92610465604051948561107e565b8284526104718361182b565b6020850190601f190136823761048683611842565b92825b81811061064757505081935b835185108061063e575b156105df57600185018086116105cb575b8451811015610561576001906001600160a01b036104ce8288611874565b5116855260036020526001600160401b038260408720015460401c16828060a01b036104fa8989611874565b5116865260036020526001600160401b038360408820015460401c1610610522575b016104b0565b818060a01b036105328888611874565b5116828060a01b036105448389611874565b51166105508989611874565b5261055b8288611874565b5261051c565b50936105c5906001600160a01b036105798287611874565b5116610585828a611874565b526001600160a01b036105988287611874565b5116845260036020526001600160401b03600160408620015460401c166105bf8289611874565b52611707565b93610495565b634e487b7160e01b84526011600452602484fd5b5085906105fd92866020604051958695604087526040870190610f6f565b918583038287015251918281520192915b81811061061c575050500390f35b82516001600160401b031684528594506020938401939092019160010161060e565b5080851061049f565b80610653600192610fea565b838060a01b0391549060031b1c1661066b8288611874565b5201610489565b5081610444565b60329150610437565b50346101d95760203660031901126101d95760206106a66106a1610f2c565b611715565b604051908152f35b50346101d957806003193601126101d957546040516001600160a01b039091168152602090f35b50346101d957806003193601126101d95760405180916020600554928381520191600582527f036b6384b5eca791c62761152d0c79bb0604c104a5fb6f4eb0703f3154bb3db0915b81811061074c57610748856107348187038261107e565b604051918291602083526020830190610f6f565b0390f35b82546001600160a01b031684526020909301926001928301920161071d565b50346101d957806003193601126101d9576002546040516001600160a01b039091168152602090f35b50346101d95760203660031901126101d9576004356001600160401b038111610937576107c5903690600401610f42565b919091338252600460205260ff604083205416156109015780156108c557338252600360205260408220906001600160401b0381116108b1576108128161080c8454611016565b846111ad565b82601f82116001146108515781908495610841949592610846575b50508160011b915f199060031b1c19161790565b905580f35b013590505f8061082d565b601f198216948385526020852091855b878110610899575083600195969710610880575b505050811b01905580f35b01355f19600384901b60f8161c191690555f8080610875565b90926020600181928686013581550194019101610861565b634e487b7160e01b83526041600452602483fd5b60405162461bcd60e51b81526020600482015260146024820152734e616d652063616e6e6f7420626520656d70747960601b6044820152606490fd5b60405162461bcd60e51b815260206004820152600e60248201526d139bdd081c9959da5cdd195c995960921b6044820152606490fd5b5080fd5b50346101d957806003193601126101d9576020600654604051908152f35b50346101d95760203660031901126101d957610973610f2c565b61098760018060a01b03835416331461168e565b60018060a01b03166bffffffffffffffffffffffff60a01b600254161760025580f35b50346101d957806003193601126101d9576020600554604051908152f35b5034610d8b57610100366003190112610d8b576109e3610f2c565b604435801515808203610d8b576064359283151590818503610d8b576084356001600160401b0381168103610d8b5760a4356001600160401b0381168103610d8b5760c435966001600160801b0388168803610d8b5760e435936001600160801b0385168503610d8b576001546001600160a01b031633148015610da2575b8015610d8f575b610a729061113f565b6001600160a01b03165f8181526004602052604090205490989060ff1615610ce9575b917f64e87b1dff5b253607158203011b45b2d113542b97af093402cc964c74e2c4e99795939160409795938a8c526003602052888c209460018601986001600160401b03610ae5818c541661117c565b166001600160401b03198b5416178a55610b0b6001600160401b034216600489016111fc565b15610c6c5750610b2f610b296001600160401b038a548c1c1661117c565b896111fc565b6001600160801b03610b486003870192828454166116c7565b166001600160801b03198254161790555b15610c325750610bb590610bab6002610bd59401610b836001600160401b03825460801c1661117c565b815467ffffffffffffffff60801b191660809190911b67ffffffffffffffff60801b16179055565b855460c01c6116e7565b84546001600160c01b031660c09190911b6001600160c01b031916178455565b610be0600654611707565b60065583519182526020820152847fd179e19dfbea77119f33340426c612af27e6b5bca3cd730ed8f013615fc542d08460243593a3546001600160401b038251918181168352831c166020820152a280f35b9050610c616002610c67930191610c4f610bb5845460c01c61117c565b6001600160401b038354891c166116e7565b906111fc565b610bd5565b610ce49150610cb2610c8a6001600160401b038b5460801c1661117c565b8a5467ffffffffffffffff60801b191660809190911b67ffffffffffffffff60801b16178a55565b610cc46003870191825460801c6116c7565b81546001600160801b031660809190911b6001600160801b031916179055565b610b59565b303b15610d8b57604051630457067b60e31b81528960048201526040602482015260056044820152641059d95b9d60da1b60648201525f8160848183305af18015610d8057610d39575b50610a95565b6040979593919a5091610d705f7f64e87b1dff5b253607158203011b45b2d113542b97af093402cc964c74e2c4e99a98969461107e565b5f9a919395975091939597610d33565b6040513d5f823e3d90fd5b5f80fd5b505f546001600160a01b03163314610a69565b506002546001600160a01b03163314610a62565b34610d8b575f366003190112610d8b576001546040516001600160a01b039091168152602090f35b34610d8b576020366003190112610d8b57610df7610f2c565b610e0b60018060a01b035f5416331461168e565b600180546001600160a01b0319166001600160a01b0392909216919091179055005b34610d8b576040366003190112610d8b57610e46610f2c565b602435906001600160401b038211610d8b57610e69610e6f923690600401610f42565b91611224565b005b34610d8b576020366003190112610d8b57610e8a610f2c565b6001546001600160a01b031633148015610f18575b8015610f05575b610eaf9061113f565b6001600160a01b03165f8181526004602052604090205460ff16610ecf57005b5f526003602052600260405f20016001600160401b03610ef18183541661117c565b825467ffffffffffffffff19169116179055005b505f546001600160a01b03163314610ea6565b506002546001600160a01b03163314610e9f565b600435906001600160a01b0382168203610d8b57565b9181601f84011215610d8b578235916001600160401b038311610d8b5760208381860195010111610d8b57565b90602080835192838152019201905f5b818110610f8c5750505090565b82516001600160a01b0316845260209384019390920191600101610f7f565b91908251928382525f5b848110610fd5575050825f602080949584010152601f8019910116010190565b80602080928401015182828601015201610fb5565b6005548110156110025760055f5260205f2001905f90565b634e487b7160e01b5f52603260045260245ffd5b90600182811c92168015611044575b602083101461103057565b634e487b7160e01b5f52602260045260245ffd5b91607f1691611025565b6101a081019081106001600160401b0382111761106a57604052565b634e487b7160e01b5f52604160045260245ffd5b90601f801991011681019081106001600160401b0382111761106a57604052565b9060405191825f8254926110b284611016565b808452936001811690811561111d57506001146110d9575b506110d79250038361107e565b565b90505f9291925260205f20905f915b8183106111015750509060206110d7928201015f6110ca565b60209193508060019154838589010152019101909184926110e8565b9050602092506110d794915060ff191682840152151560051b8201015f6110ca565b1561114657565b60405162461bcd60e51b815260206004820152600e60248201526d139bdd08185d5d1a1bdc9a5e995960921b6044820152606490fd5b6001600160401b03166001600160401b0381146111995760010190565b634e487b7160e01b5f52601160045260245ffd5b601f82116111ba57505050565b5f5260205f20906020601f840160051c830193106111f2575b601f0160051c01905b8181106111e7575050565b5f81556001016111dc565b90915081906111d3565b9067ffffffffffffffff60401b82549160401b169067ffffffffffffffff60401b1916179055565b6001600160a01b03165f8181526004602052604090205490929060ff16611689578233148015611675575b8015611661575b801561164e575b8015611645575b156116005780156115d9576001600160401b03811161106a5760405191611295601f8301601f19166020018461107e565b8183523682820111610d8b57815f9260209283860137830101525b6040516112bc8161104e565b8181525f60208201525f60408201525f60608201525f60808201525f60a08201525f60c08201525f60e08201525f6101008201525f6101208201525f6101408201526001600160401b0342166101608201525f610180820152825f52600360205260405f2081518051906001600160401b03821161106a57611348826113428554611016565b856111ad565b602090601f8311600114611562576114c59493611389846001600160401b0395610180956004955f926115575750508160011b915f199060031b1c19161790565b81555b6114046001820185806020890151161686198254161781556113b486604089015116826111fc565b6060870151815467ffffffffffffffff60801b191690871660801b67ffffffffffffffff60801b16178155608087015181546001600160c01b031690871660c01b6001600160c01b031916179055565b61147d60028201858060a08901511616861982541617815561142c8660c089015116826111fc565b60e0870151815467ffffffffffffffff60801b191690871660801b67ffffffffffffffff60801b1617815561010087015181546001600160c01b031690871660c01b6001600160c01b031916179055565b61012085015161014086015160801b6001600160801b0319166001600160801b03919091161760038201550192828061016083015116168319855416178455015116906111fc565b815f52600460205260405f20600160ff198254161790556005546801000000000000000081101561106a577fda816ca2fc37b9eecec62ae8263008ec6be1afb38dc28bc9c7c51d7e348da9c2916115258260016115529401600555610fea565b81549060031b9086821b9160018060a01b03901b1916179055604051918291602083526020830190610fab565b0390a2565b015190505f8061082d565b90835f52805f20915f5b601f19851681106115c1575093600184610180946004946114c599986001600160401b0398601f198116106115a9575b505050811b01815561138c565b01515f1960f88460031b161c191690555f808061159c565b9192602060018192868501518155019401920161156c565b50506040516115e960408261107e565b60058152641059d95b9d60da1b60208201526112b0565b60405162461bcd60e51b815260206004820152601a60248201527f4e6f7420617574686f72697a656420746f2072656769737465720000000000006044820152606490fd5b50303314611264565b505f546001600160a01b0316331461125d565b506001546001600160a01b03163314611256565b506002546001600160a01b0316331461124f565b505050565b1561169557565b60405162461bcd60e51b815260206004820152600a60248201526927b7363c9037bbb732b960b11b6044820152606490fd5b906001600160801b03809116911601906001600160801b03821161119957565b906001600160401b03809116911601906001600160401b03821161119957565b5f1981146111995760010190565b60018060a01b03165f52600360205260405f20604051906117358261104e565b61173e8161109f565b82526001810154916001600160401b038316906101806001600160401b0360046020840195858752828860401c1697886040870152838160801c16606087015260c01c6080860152600281015483811660a0870152838160401c1660c0870152838160801c1660e087015260c01c61010086015260038101546001600160801b03811661012087015260801c610140860152015481811661016085015260401c169101521561182557612710820291808304612710149015171561119957516001600160401b0316908115611811570490565b634e487b7160e01b5f52601260045260245ffd5b50505f90565b6001600160401b03811161106a5760051b60200190565b9061184c8261182b565b611859604051918261107e565b828152809261186a601f199161182b565b0190602036910137565b80518210156110025760209160051b01019056fea26469706673582212207226c66fd5da3053d4fe482a6540d4406fb6e3c304297c5d8ab4eee462662da764736f6c634300081c0033","linkReferences":{}},"methodIdentifiers":{"agents(address)":"fd66091e","allAgents(uint256)":"e0bb12f7","gameSettlement()":"32fb035c","getAgentStats(address)":"b5695b38","getAllAgents()":"860e4ac6","getTopAgents(uint256)":"b1e29ea4","getTotalAgents()":"3731a16f","getWinRate(address)":"914a1e76","isRegistered(address)":"c3c5a547","owner()":"8da5cb5b","recordDeath(address)":"0ac277db","recordGameResult(address,bytes32,bool,bool,uint64,uint64,uint128,uint128)":"365f349d","registerAgent(address,string)":"22b833d8","setGameSettlement(address)":"2d1b2c06","setWagerVault(address)":"4ba8c8ba","totalGamesPlayed()":"5c492129","transferOwnership(address)":"f2fde38b","updateName(string)":"84da92a7","wagerVault()":"84df5d84"},"id":19}