{"abi":[{"type":"constructor","inputs":[{"name":"_wagerVault","type":"address","internalType":"address"},{"name":"_agentRegistry","type":"address","internalType":"address"}],"stateMutability":"nonpayable"},{"type":"function","name":"agentRegistry","inputs":[],"outputs":[{"name":"","type":"address","internalType":"contract AgentRegistry"}],"stateMutability":"view"},{"type":"function","name":"allGameIds","inputs":[{"name":"","type":"uint256","internalType":"uint256"}],"outputs":[{"name":"","type":"bytes32","internalType":"bytes32"}],"stateMutability":"view"},{"type":"function","name":"cancelGame","inputs":[{"name":"gameId","type":"bytes32","internalType":"bytes32"}],"outputs":[],"stateMutability":"nonpayable"},{"type":"function","name":"createGame","inputs":[{"name":"gameId","type":"bytes32","internalType":"bytes32"},{"name":"players","type":"address[]","internalType":"address[]"},{"name":"impostors","type":"address[]","internalType":"address[]"}],"outputs":[],"stateMutability":"nonpayable"},{"type":"function","name":"games","inputs":[{"name":"","type":"bytes32","internalType":"bytes32"}],"outputs":[{"name":"gameId","type":"bytes32","internalType":"bytes32"},{"name":"createdAt","type":"uint64","internalType":"uint64"},{"name":"settledAt","type":"uint64","internalType":"uint64"},{"name":"status","type":"uint8","internalType":"enum GameSettlement.GameStatus"},{"name":"crewmatesWon","type":"bool","internalType":"bool"}],"stateMutability":"view"},{"type":"function","name":"getGame","inputs":[{"name":"gameId","type":"bytes32","internalType":"bytes32"}],"outputs":[{"name":"players","type":"address[]","internalType":"address[]"},{"name":"impostors","type":"address[]","internalType":"address[]"},{"name":"createdAt","type":"uint64","internalType":"uint64"},{"name":"settledAt","type":"uint64","internalType":"uint64"},{"name":"status","type":"uint8","internalType":"enum GameSettlement.GameStatus"},{"name":"crewmatesWon","type":"bool","internalType":"bool"}],"stateMutability":"view"},{"type":"function","name":"getGameStatus","inputs":[{"name":"gameId","type":"bytes32","internalType":"bytes32"}],"outputs":[{"name":"","type":"uint8","internalType":"enum GameSettlement.GameStatus"}],"stateMutability":"view"},{"type":"function","name":"getTotalGames","inputs":[],"outputs":[{"name":"created","type":"uint256","internalType":"uint256"},{"name":"settled","type":"uint256","internalType":"uint256"}],"stateMutability":"view"},{"type":"function","name":"operator","inputs":[],"outputs":[{"name":"","type":"address","internalType":"address"}],"stateMutability":"view"},{"type":"function","name":"owner","inputs":[],"outputs":[{"name":"","type":"address","internalType":"address"}],"stateMutability":"view"},{"type":"function","name":"setAgentRegistry","inputs":[{"name":"_agentRegistry","type":"address","internalType":"address"}],"outputs":[],"stateMutability":"nonpayable"},{"type":"function","name":"setOperator","inputs":[{"name":"_operator","type":"address","internalType":"address"}],"outputs":[],"stateMutability":"nonpayable"},{"type":"function","name":"setWagerVault","inputs":[{"name":"_wagerVault","type":"address","internalType":"address"}],"outputs":[],"stateMutability":"nonpayable"},{"type":"function","name":"settleGame","inputs":[{"name":"gameId","type":"bytes32","internalType":"bytes32"},{"name":"crewmatesWon","type":"bool","internalType":"bool"},{"name":"winners","type":"address[]","internalType":"address[]"},{"name":"playerKills","type":"uint64[]","internalType":"uint64[]"},{"name":"playerTasks","type":"uint64[]","internalType":"uint64[]"}],"outputs":[],"stateMutability":"nonpayable"},{"type":"function","name":"totalGamesCreated","inputs":[],"outputs":[{"name":"","type":"uint256","internalType":"uint256"}],"stateMutability":"view"},{"type":"function","name":"totalGamesSettled","inputs":[],"outputs":[{"name":"","type":"uint256","internalType":"uint256"}],"stateMutability":"view"},{"type":"function","name":"transferOwnership","inputs":[{"name":"newOwner","type":"address","internalType":"address"}],"outputs":[],"stateMutability":"nonpayable"},{"type":"function","name":"wagerVault","inputs":[],"outputs":[{"name":"","type":"address","internalType":"contract WagerVault"}],"stateMutability":"view"},{"type":"event","name":"GameCancelled","inputs":[{"name":"gameId","type":"bytes32","indexed":true,"internalType":"bytes32"}],"anonymous":false},{"type":"event","name":"GameCreated","inputs":[{"name":"gameId","type":"bytes32","indexed":true,"internalType":"bytes32"},{"name":"playerCount","type":"uint256","indexed":false,"internalType":"uint256"},{"name":"impostorCount","type":"uint256","indexed":false,"internalType":"uint256"}],"anonymous":false},{"type":"event","name":"GameSettled","inputs":[{"name":"gameId","type":"bytes32","indexed":true,"internalType":"bytes32"},{"name":"crewmatesWon","type":"bool","indexed":false,"internalType":"bool"},{"name":"winnerCount","type":"uint256","indexed":false,"internalType":"uint256"}],"anonymous":false},{"type":"event","name":"OperatorUpdated","inputs":[{"name":"newOperator","type":"address","indexed":true,"internalType":"address"}],"anonymous":false}],"bytecode":{"object":"0x608034609d57601f61157038819003918201601f19168301916001600160401b0383118484101760a1578084926040948552833981010312609d57604b602060458360b5565b920160b5565b5f8054336001600160a01b03199182168117909255600180548216909217909155600280546001600160a01b03948516908316179055600380549290931691161790556040516114a790816100c98239f35b5f80fd5b634e487b7160e01b5f52604160045260245ffd5b51906001600160a01b0382168203609d5756fe6080806040526004361015610012575f80fd5b5f3560e01c9081630d1cfcae1461116757508063146c638d1461112d5780632517e2f91461111057806328342ecf146110c15780633d06308014610b715780633f7121b014610a1f5780634ba8c8ba146109d0578063570ca735146109a85780635a5cfc1c146109705780635bd4349b1461094c57806373931bbf1461083857806384df5d84146108105780638da5cb5b146107e95780638dbb15bb146107cc578063b3ab15fb1461075a578063d5a35f85146101d4578063f2fde38b146101565763f579f882146100e2575f80fd5b34610152576020366003190112610152576004355f52600460205260a060405f2060ff600382549201546040519283526001600160401b03811660208401526001600160401b038160401c16604084015261014560608401838360801c1661118a565b60881c1615156080820152f35b5f80fd5b346101525760203660031901126101525761016f611197565b5f5490610186336001600160a01b03841614611245565b6001600160a01b03169081156101a5576001600160a01b031916175f55005b60405162461bcd60e51b8152602060048201526007602482015266125b9d985b1a5960ca1b6044820152606490fd5b34610152576060366003190112610152576004356024356001600160401b038111610152576102079036906004016111c1565b6044356001600160401b038111610152576102269036906004016111c1565b9260018060a01b036001541633148015610747575b6102449061127e565b845f52600460205260ff600360405f20015460801c1660048110156104945761071457600483106106dd5783156106a7576002546001600160a01b03165f5b84811061052e5750506102ba6102aa6040519261029f846112de565b87845285369161138f565b926020830193845285369161138f565b6040820190815260608201916001600160401b034216835260808101905f825260a08101926001845260c08201955f8752895f52600460205260405f2092518355600183019051908151916001600160401b03831161048057600160401b8311610480578154838355808410610508575b50602001905f5260205f205f5b8381106104eb5750505050600282019051908151916001600160401b03831161048057600160401b83116104805781548383558084106104c5575b50602001905f5260205f205f5b8381106104a857505050506103d2916001600160401b03600381930195511682198654161785555116839067ffffffffffffffff60401b82549160401b169067ffffffffffffffff60401b1916179055565b51916004831015610494578154905161ffff60801b1990911660809390931b60ff60801b169290921791151560881b60ff60881b1691909117905560055490600160401b821015610480577f99007d3126584f2f6e4cdfcf646170362922fd5747a1df30924ac78417be886192610451836001604095016005556111f1565b81549060031b9087821b915f19901b1916179055610470600654611381565b60065582519182526020820152a2005b634e487b7160e01b5f52604160045260245ffd5b634e487b7160e01b5f52602160045260245ffd5b82516001600160a01b031681830155602090920191600101610380565b825f528360205f2091820191015b8181106104e05750610373565b5f81556001016104d3565b82516001600160a01b031681830155602090920191600101610338565b825f528360205f2091820191015b818110610523575061032b565b5f8155600101610516565b60018101808211610693575b85811061061d57506105556105508287866112ba565b6112ca565b604051630ca250b360e31b8152600481018990526001600160a01b039091166024820152602081604481865afa908115610612575f916105d8575b501561059e57600101610283565b60405162461bcd60e51b8152602060048201526012602482015271141b185e595c881b9bdd081dd859d95c995960721b6044820152606490fd5b90506020813d821161060a575b816105f2602093836112f9565b81010312610152575180151581036101525788610590565b3d91506105e5565b6040513d5f823e3d90fd5b61062b6105508388876112ba565b6001600160a01b03610641610550848a896112ba565b6001600160a01b0390921691161461065b5760010161053a565b60405162461bcd60e51b815260206004820152601060248201526f223ab83634b1b0ba3290383630bcb2b960811b6044820152606490fd5b634e487b7160e01b5f52601160045260245ffd5b60405162461bcd60e51b815260206004820152600e60248201526d4e65656420696d706f73746f727360901b6044820152606490fd5b60405162461bcd60e51b815260206004820152600f60248201526e4e65656420342b20706c617965727360881b6044820152606490fd5b60405162461bcd60e51b815260206004820152600b60248201526a47616d652065786973747360a81b6044820152606490fd5b505f546001600160a01b0316331461023b565b3461015257602036600319011261015257610773611197565b61078760018060a01b035f54163314611245565b600180546001600160a01b0319166001600160a01b039290921691821790557fb3b3f5f64ab192e4b5fefde1f51ce9733bbdcf831951543b325aebd49cc27ec45f80a2005b34610152575f366003190112610152576020600654604051908152f35b34610152575f366003190112610152575f546040516001600160a01b039091168152602090f35b34610152575f366003190112610152576002546040516001600160a01b039091168152602090f35b34610152576020366003190112610152576004355f52600460205260405f2060405190610864826112de565b805482526108746001820161131a565b9160208101928352600361088a6002840161131a565b9260408301938452015460608201906001600160401b038116825260808301926001600160401b038260401c16845260ff8260801c1660a082019660048210156104945760ff60c06001600160401b039485948b52019460881c161515845251955193511693511694516004811015610494576109209561092e610943935115159460405198899860c08a5260c08a0190611209565b9088820360208a0152611209565b9460408701526060860152608085019061118a565b60a08301520390f35b34610152575f36600319011261015257604060065460075482519182526020820152f35b3461015257602036600319011261015257600435600554811015610152576109996020916111f1565b90549060031b1c604051908152f35b34610152575f366003190112610152576001546040516001600160a01b039091168152602090f35b34610152576020366003190112610152576109e9611197565b6109fd60018060a01b035f54163314611245565b600280546001600160a01b0319166001600160a01b0392909216919091179055005b346101525760203660031901126101525760043560018060a01b036001541633148015610b5e575b610a509061127e565b805f526004602052600360405f200160ff815460801c1660048110156104945760018114908115610b55575b5015610b2057805468ffffffffffffffffff60401b19164260401b67ffffffffffffffff60401b1617600360801b1790556002546001600160a01b0316803b15610152575f80916024604051809481936316048ce160e31b83528760048401525af1801561061257610b10575b507f730d9f4e127b4c1c5d999194f79025fe149736fbb95b0755b18ed20ddd01b4e05f80a2005b5f610b1a916112f9565b81610ae9565b60405162461bcd60e51b815260206004820152600d60248201526c10d85b9b9bdd0818d85b98d95b609a1b6044820152606490fd5b90501583610a7c565b505f546001600160a01b03163314610a47565b346101525760a036600319011261015257602435801515600435818303610152576044356001600160401b03811161015257610bb19036906004016111c1565b6064939193356001600160401b03811161015257610bd39036906004016111c1565b9190956084356001600160401b03811161015257610bf59036906004016111c1565b9160018060a01b0360015416331480156110ae575b610c139061127e565b865f52600460205260405f2097600389019160ff835460801c166004811015610494576001036110775785156110435760018a01928354808903610ffe578603610fb9575f5b878110610f575750805468ffffffffffffffffff60401b19164260401b67ffffffffffffffff60401b1617600160811b17815560049594939291610cb491805460ff60881b191691151560881b60ff60881b16919091179055565b60025460405163127791c160e21b81529560209187919082906001600160a01b03165afa948515610612575f95610f23575b509698600201965f5b8254811015610e46578254811015610e3257808a610d358e8a610d58610d538f978f98610d41908c5f52610d3a8360205f200160018060a01b039054168099819361131a565b6113ec565b958c61142c565b9860018060a01b0360035416956112ba565b61136d565b610d66610d53878d8d6112ba565b8715610e2b576001600160801b038d16915b8d8915610e1c57505f935b853b1561015257604051998a98899863365f349d60e01b8a5260048a0152602489015215156044880152151560648701526001600160401b031660848601526001600160401b031660a48501526001600160801b031660c48401526001600160801b031660e48301525a925f610104928195f191821561061257600192610e0c575b5001610cef565b5f610e16916112f9565b8d610e05565b6001600160801b031693610d83565b5f91610d78565b634e487b7160e01b5f52603260045260245ffd5b8982888d60018060a01b0360025416803b1561015257604051809463857ae41960e01b82528460448301886004850152604060248501525260648201905f5b868110610ef557505091815f81819503925af1918215610612577fd98ed4acfe0ac4aff15ebc259c6a02018ff79e1a0bed27156c3d8ac550b12c3a93604093610ee5575b50610ed5600754611381565b60075582519182526020820152a2005b5f610eef916112f9565b85610ec9565b9092509060019060209081906001600160a01b03610f12876111ad565b168152019301910190869291610e85565b9094506020813d602011610f4f575b81610f3f602093836112f9565b810103126101525751938b610ce6565b3d9150610f32565b610f71610f68610550838b886112ba565b610d358761131a565b15610f7e57600101610c59565b60405162461bcd60e51b81526020600482015260136024820152722bb4b73732b9103737ba103090383630bcb2b960691b6044820152606490fd5b60405162461bcd60e51b815260206004820152601b60248201527f5461736b73206172726179206c656e677468206d69736d6174636800000000006044820152606490fd5b60405162461bcd60e51b815260206004820152601b60248201527f4b696c6c73206172726179206c656e677468206d69736d6174636800000000006044820152606490fd5b60405162461bcd60e51b815260206004820152600c60248201526b4e6565642077696e6e65727360a01b6044820152606490fd5b60405162461bcd60e51b815260206004820152600f60248201526e47616d65206e6f742061637469766560881b6044820152606490fd5b505f546001600160a01b03163314610c0a565b34610152576020366003190112610152576110da611197565b6110ee60018060a01b035f54163314611245565b600380546001600160a01b0319166001600160a01b0392909216919091179055005b34610152575f366003190112610152576020600754604051908152f35b34610152576020366003190112610152576004355f526004602052602060ff600360405f20015460801c16611165604051809261118a565bf35b34610152575f366003190112610152576003546001600160a01b03168152602090f35b9060048210156104945752565b600435906001600160a01b038216820361015257565b35906001600160a01b038216820361015257565b9181601f84011215610152578235916001600160401b038311610152576020808501948460051b01011161015257565b600554811015610e325760055f5260205f2001905f90565b90602080835192838152019201905f5b8181106112265750505090565b82516001600160a01b0316845260209384019390920191600101611219565b1561124c57565b60405162461bcd60e51b815260206004820152600a60248201526927b7363c9037bbb732b960b11b6044820152606490fd5b1561128557565b60405162461bcd60e51b815260206004820152600d60248201526c27b7363c9037b832b930ba37b960991b6044820152606490fd5b9190811015610e325760051b0190565b356001600160a01b03811681036101525790565b60e081019081106001600160401b0382111761048057604052565b90601f801991011681019081106001600160401b0382111761048057604052565b90604051918281549182825260208201905f5260205f20925f5b81811061134b575050611349925003836112f9565b565b84546001600160a01b0316835260019485019487945060209093019201611334565b356001600160401b03811681036101525790565b5f1981146106935760010190565b929190926001600160401b038411610480578360051b9060206040516113b7828501826112f9565b809681520191810192831161015257905b8282106113d457505050565b602080916113e1846111ad565b8152019101906113c8565b905f5b825181101561142557600581901b8301602001516001600160a01b0383811691161461141d576001016113ef565b505050600190565b5050505f90565b9190915f5b83811061144057505050505f90565b61144e6105508286856112ba565b6001600160a01b0384811691161461146857600101611431565b5050505060019056fea264697066735822122089bbe88464719ae32c0e30aeb013c68178d1ead098094d9e151e95a1f19488ac64736f6c634300081c0033","linkReferences":{}},"methodIdentifiers":{"agentRegistry()":"0d1cfcae","allGameIds(uint256)":"5a5cfc1c","cancelGame(bytes32)":"3f7121b0","createGame(bytes32,address[],address[])":"d5a35f85","games(bytes32)":"f579f882","getGame(bytes32)":"73931bbf","getGameStatus(bytes32)":"146c638d","getTotalGames()":"5bd4349b","operator()":"570ca735","owner()":"8da5cb5b","setAgentRegistry(address)":"28342ecf","setOperator(address)":"b3ab15fb","setWagerVault(address)":"4ba8c8ba","settleGame(bytes32,bool,address[],uint64[],uint64[])":"3d063080","totalGamesCreated()":"8dbb15bb","totalGamesSettled()":"2517e2f9","transferOwnership(address)":"f2fde38b","wagerVault()":"84df5d84"},"id":20}