{"abi":[{"type":"constructor","inputs":[{"name":"_feeRecipient","type":"address","internalType":"address"},{"name":"_feePercentage","type":"uint256","internalType":"uint256"}],"stateMutability":"nonpayable"},{"type":"receive","stateMutability":"payable"},{"type":"function","name":"activeGameIds","inputs":[{"name":"","type":"uint256","internalType":"uint256"}],"outputs":[{"name":"","type":"uint256","internalType":"uint256"}],"stateMutability":"view"},{"type":"function","name":"activeGameIndex","inputs":[{"name":"","type":"uint256","internalType":"uint256"}],"outputs":[{"name":"","type":"uint256","internalType":"uint256"}],"stateMutability":"view"},{"type":"function","name":"agentRegistry","inputs":[],"outputs":[{"name":"","type":"address","internalType":"contract AgentRegistry"}],"stateMutability":"view"},{"type":"function","name":"cancelGame","inputs":[{"name":"_gameId","type":"uint256","internalType":"uint256"}],"outputs":[],"stateMutability":"nonpayable"},{"type":"function","name":"createGame","inputs":[],"outputs":[{"name":"gameId","type":"uint256","internalType":"uint256"},{"name":"gameAddress","type":"address","internalType":"address"}],"stateMutability":"payable"},{"type":"function","name":"createGameWithConfig","inputs":[{"name":"_config","type":"tuple","internalType":"struct GameConfig","components":[{"name":"minPlayers","type":"uint8","internalType":"uint8"},{"name":"maxPlayers","type":"uint8","internalType":"uint8"},{"name":"numImpostors","type":"uint8","internalType":"uint8"},{"name":"wagerAmount","type":"uint256","internalType":"uint256"},{"name":"actionTimeout","type":"uint256","internalType":"uint256"},{"name":"voteTimeout","type":"uint256","internalType":"uint256"},{"name":"discussionTime","type":"uint256","internalType":"uint256"},{"name":"tasksPerPlayer","type":"uint8","internalType":"uint8"},{"name":"visualTasks","type":"bool","internalType":"bool"},{"name":"emergencyMeetings","type":"uint8","internalType":"uint8"},{"name":"killCooldown","type":"uint256","internalType":"uint256"}]}],"outputs":[{"name":"gameId","type":"uint256","internalType":"uint256"},{"name":"gameAddress","type":"address","internalType":"address"}],"stateMutability":"payable"},{"type":"function","name":"defaultConfig","inputs":[],"outputs":[{"name":"minPlayers","type":"uint8","internalType":"uint8"},{"name":"maxPlayers","type":"uint8","internalType":"uint8"},{"name":"numImpostors","type":"uint8","internalType":"uint8"},{"name":"wagerAmount","type":"uint256","internalType":"uint256"},{"name":"actionTimeout","type":"uint256","internalType":"uint256"},{"name":"voteTimeout","type":"uint256","internalType":"uint256"},{"name":"discussionTime","type":"uint256","internalType":"uint256"},{"name":"tasksPerPlayer","type":"uint8","internalType":"uint8"},{"name":"visualTasks","type":"bool","internalType":"bool"},{"name":"emergencyMeetings","type":"uint8","internalType":"uint8"},{"name":"killCooldown","type":"uint256","internalType":"uint256"}],"stateMutability":"view"},{"type":"function","name":"gameConfigs","inputs":[{"name":"","type":"uint256","internalType":"uint256"}],"outputs":[{"name":"minPlayers","type":"uint8","internalType":"uint8"},{"name":"maxPlayers","type":"uint8","internalType":"uint8"},{"name":"numImpostors","type":"uint8","internalType":"uint8"},{"name":"wagerAmount","type":"uint256","internalType":"uint256"},{"name":"actionTimeout","type":"uint256","internalType":"uint256"},{"name":"voteTimeout","type":"uint256","internalType":"uint256"},{"name":"discussionTime","type":"uint256","internalType":"uint256"},{"name":"tasksPerPlayer","type":"uint8","internalType":"uint8"},{"name":"visualTasks","type":"bool","internalType":"bool"},{"name":"emergencyMeetings","type":"uint8","internalType":"uint8"},{"name":"killCooldown","type":"uint256","internalType":"uint256"}],"stateMutability":"view"},{"type":"function","name":"gameCount","inputs":[],"outputs":[{"name":"","type":"uint256","internalType":"uint256"}],"stateMutability":"view"},{"type":"function","name":"games","inputs":[{"name":"","type":"uint256","internalType":"uint256"}],"outputs":[{"name":"","type":"address","internalType":"address"}],"stateMutability":"view"},{"type":"function","name":"getActiveGameCount","inputs":[],"outputs":[{"name":"","type":"uint256","internalType":"uint256"}],"stateMutability":"view"},{"type":"function","name":"getActiveGames","inputs":[],"outputs":[{"name":"","type":"uint256[]","internalType":"uint256[]"}],"stateMutability":"view"},{"type":"function","name":"getAgentRegistry","inputs":[],"outputs":[{"name":"","type":"address","internalType":"address"}],"stateMutability":"view"},{"type":"function","name":"getAvailableGames","inputs":[],"outputs":[{"name":"gameIds","type":"uint256[]","internalType":"uint256[]"},{"name":"playerCounts","type":"uint256[]","internalType":"uint256[]"},{"name":"wagerAmounts","type":"uint256[]","internalType":"uint256[]"}],"stateMutability":"view"},{"type":"function","name":"getGameDetails","inputs":[{"name":"_gameId","type":"uint256","internalType":"uint256"}],"outputs":[{"name":"gameAddress","type":"address","internalType":"address"},{"name":"config","type":"tuple","internalType":"struct GameConfig","components":[{"name":"minPlayers","type":"uint8","internalType":"uint8"},{"name":"maxPlayers","type":"uint8","internalType":"uint8"},{"name":"numImpostors","type":"uint8","internalType":"uint8"},{"name":"wagerAmount","type":"uint256","internalType":"uint256"},{"name":"actionTimeout","type":"uint256","internalType":"uint256"},{"name":"voteTimeout","type":"uint256","internalType":"uint256"},{"name":"discussionTime","type":"uint256","internalType":"uint256"},{"name":"tasksPerPlayer","type":"uint8","internalType":"uint8"},{"name":"visualTasks","type":"bool","internalType":"bool"},{"name":"emergencyMeetings","type":"uint8","internalType":"uint8"},{"name":"killCooldown","type":"uint256","internalType":"uint256"}]},{"name":"state","type":"tuple","internalType":"struct GameState","components":[{"name":"gameId","type":"uint256","internalType":"uint256"},{"name":"phase","type":"uint8","internalType":"enum GamePhase"},{"name":"round","type":"uint256","internalType":"uint256"},{"name":"phaseEndTime","type":"uint256","internalType":"uint256"},{"name":"alivePlayers","type":"uint8","internalType":"uint8"},{"name":"aliveCrewmates","type":"uint8","internalType":"uint8"},{"name":"aliveImpostors","type":"uint8","internalType":"uint8"},{"name":"totalTasksCompleted","type":"uint8","internalType":"uint8"},{"name":"totalTasksRequired","type":"uint8","internalType":"uint8"},{"name":"activeSabotage","type":"uint8","internalType":"enum SabotageType"},{"name":"sabotageEndTime","type":"uint256","internalType":"uint256"},{"name":"winner","type":"address","internalType":"address"},{"name":"crewmatesWon","type":"bool","internalType":"bool"}]},{"name":"playerCount","type":"uint256","internalType":"uint256"},{"name":"pool","type":"uint256","internalType":"uint256"}],"stateMutability":"view"},{"type":"function","name":"getWagerVault","inputs":[],"outputs":[{"name":"","type":"address","internalType":"address"}],"stateMutability":"view"},{"type":"function","name":"isActiveGame","inputs":[{"name":"","type":"uint256","internalType":"uint256"}],"outputs":[{"name":"","type":"bool","internalType":"bool"}],"stateMutability":"view"},{"type":"function","name":"joinGame","inputs":[{"name":"_gameId","type":"uint256","internalType":"uint256"},{"name":"_colorId","type":"uint8","internalType":"uint8"}],"outputs":[],"stateMutability":"payable"},{"type":"function","name":"leaveGame","inputs":[{"name":"_gameId","type":"uint256","internalType":"uint256"}],"outputs":[],"stateMutability":"nonpayable"},{"type":"function","name":"owner","inputs":[],"outputs":[{"name":"","type":"address","internalType":"address"}],"stateMutability":"view"},{"type":"function","name":"setDefaultConfig","inputs":[{"name":"_config","type":"tuple","internalType":"struct GameConfig","components":[{"name":"minPlayers","type":"uint8","internalType":"uint8"},{"name":"maxPlayers","type":"uint8","internalType":"uint8"},{"name":"numImpostors","type":"uint8","internalType":"uint8"},{"name":"wagerAmount","type":"uint256","internalType":"uint256"},{"name":"actionTimeout","type":"uint256","internalType":"uint256"},{"name":"voteTimeout","type":"uint256","internalType":"uint256"},{"name":"discussionTime","type":"uint256","internalType":"uint256"},{"name":"tasksPerPlayer","type":"uint8","internalType":"uint8"},{"name":"visualTasks","type":"bool","internalType":"bool"},{"name":"emergencyMeetings","type":"uint8","internalType":"uint8"},{"name":"killCooldown","type":"uint256","internalType":"uint256"}]}],"outputs":[],"stateMutability":"nonpayable"},{"type":"function","name":"setFeeSettings","inputs":[{"name":"_recipient","type":"address","internalType":"address"},{"name":"_percentage","type":"uint256","internalType":"uint256"}],"outputs":[],"stateMutability":"nonpayable"},{"type":"function","name":"settleGame","inputs":[{"name":"_gameId","type":"uint256","internalType":"uint256"}],"outputs":[],"stateMutability":"nonpayable"},{"type":"function","name":"transferOwnership","inputs":[{"name":"_newOwner","type":"address","internalType":"address"}],"outputs":[],"stateMutability":"nonpayable"},{"type":"function","name":"wagerVault","inputs":[],"outputs":[{"name":"","type":"address","internalType":"contract WagerVault"}],"stateMutability":"view"},{"type":"event","name":"DefaultConfigUpdated","inputs":[{"name":"config","type":"tuple","indexed":false,"internalType":"struct GameConfig","components":[{"name":"minPlayers","type":"uint8","internalType":"uint8"},{"name":"maxPlayers","type":"uint8","internalType":"uint8"},{"name":"numImpostors","type":"uint8","internalType":"uint8"},{"name":"wagerAmount","type":"uint256","internalType":"uint256"},{"name":"actionTimeout","type":"uint256","internalType":"uint256"},{"name":"voteTimeout","type":"uint256","internalType":"uint256"},{"name":"discussionTime","type":"uint256","internalType":"uint256"},{"name":"tasksPerPlayer","type":"uint8","internalType":"uint8"},{"name":"visualTasks","type":"bool","internalType":"bool"},{"name":"emergencyMeetings","type":"uint8","internalType":"uint8"},{"name":"killCooldown","type":"uint256","internalType":"uint256"}]}],"anonymous":false},{"type":"event","name":"GameCreated","inputs":[{"name":"gameId","type":"uint256","indexed":true,"internalType":"uint256"},{"name":"gameAddress","type":"address","indexed":true,"internalType":"address"},{"name":"creator","type":"address","indexed":true,"internalType":"address"},{"name":"wagerAmount","type":"uint256","indexed":false,"internalType":"uint256"}],"anonymous":false},{"type":"event","name":"GameEnded","inputs":[{"name":"gameId","type":"uint256","indexed":true,"internalType":"uint256"},{"name":"gameAddress","type":"address","indexed":true,"internalType":"address"}],"anonymous":false}],"bytecode":{"object":"0x608034620001e157620096296001600160401b03601f38839003908101601f191684019082821185831017620001e55780859160409586948552833981010312620001e15782516001600160a01b03808216949091859003620001e157602001515f80546001600160a01b03199081163317825585519196909392610ef6808401929087841185851017620001cd579188939185936200873385398252602082015203019086f08015620001af57811682600154161760015583516113c78082019082821086831117620001b9579082916200736c8339039086f08015620001af5716906002541617600255815190610160820190828210908211176200019b57906201010391835260048152600a60208201526001838201526002610140662386f26fc1000092836060820152603c6080820152602d60a0820152601e60c0820152600360e082015260016101008201526001610120820152015262ffffff199062010a04826009541617600955600a55603c600b55602d600c55601e600d55600e541617600e556002600f55516171729081620001fa8239f35b634e487b7160e01b84526041600452602484fd5b84513d87823e3d90fd5b634e487b7160e01b88526041600452602488fd5b634e487b7160e01b8a52604160045260248afd5b5f80fd5b634e487b7160e01b5f52604160045260245ffdfe6080604081815260048036101562000022575b505050361562000020575f80fd5b005b5f9260e08435811c9182630d1cfcae146200174b57508163117a5b9014620017175781631894c75614620016f55781631b31abda14620014685781631b76929c14620013d35781632b333a47146200135b578163312d7bbc14620010145781633351de6414620008e35781633dccf6a91462000fea578482633feef58a1462000f005750816340a9eeff1462000cb75781634802fe101462000c885781634d1975b41462000c6657816369958ab91462000a755781637255d72914620009dd5781637f9d2f56146200090f57816384df5d8414620008e35781638da5cb5b14620008b85781638ee67472146200087a57816391cae372146200084a5781639e09ed5f14620007e3578163b5c1f02c146200058857508063ca6649c514620002ec57838163e34dfd9d14620001e9575063f2fde38b03620000125734620001e5576020366003190112620001e55762000179620019b8565b835491906001600160a01b0390620001953383861614620022d8565b16928315620001b05750506001600160a01b03191617815580f35b906020606492519162461bcd60e51b8352820152600f60248201526e496e76616c6964206164647265737360881b6044820152fd5b8280fd5b92905034620002e85780600319360112620002e85762000208620019b8565b83546001600160a01b039190620002239083163314620022d8565b816001541690813b15620002e4578260248792838751958694859363e74b981b60e01b8552168a8401525af18015620002da57908591620002c2575b50506001541691823b15620002bd578392602484928451958693849263ae06c1b760e01b84528435908401525af1908115620002b457506200029e5750f35b620002a990620018b1565b620002b15780f35b80fd5b513d84823e3d90fd5b505050fd5b620002cd90620018b1565b620002bd57835f6200025f565b83513d87823e3d90fd5b8580fd5b5050fd5b5081600319360112620001e5578035916200030662001918565b9183855260209080825260018060a01b03620003298185892054161515620020f0565b8587526007835260ff848820541615620005545785875260058352606062000353858920620019cf565b019562000364875134101562001b24565b8651955f9682885284865283878920541692846001541690813b1562000550578851636e553f6560e01b8152878101918252336020830152928a9284928390036040019183915af18015620005465762000530575b50813b156200052c5760ff6044889283895195869485936334295cad60e21b8552338b8601521660248401525af180156200050a5790869162000514575b50506002541691835163c3c5a54760e01b815233838201528181602481875afa9182156200050a578692620004c8575b5050156200046d575b505050505181813411620004415780f35b8080806200045462000468953462001b89565b335af16200046162001b97565b5062001bda565b5f8180f35b813b15620004c45782916024859492859351958693849263306b9bb960e01b845233908401525af1908115620002b45750620004ac575b808062000430565b620004b88291620018b1565b620002b15780620004a4565b8380fd5b90809250813d831162000502575b620004e28183620018e4565b81010312620004fe57620004f6906200212e565b5f8062000427565b8480fd5b503d620004d6565b85513d88823e3d90fd5b6200051f90620018b1565b620004fe57845f620003f7565b8680fd5b6200053e90979197620018b1565b955f620003b9565b87513d8a823e3d90fd5b8980fd5b50915162461bcd60e51b815291820152600f60248201526e47616d65206e6f742061637469766560881b6044820152606490fd5b92905034620004c4576101609182600319360112620004fe57620005b760018060a01b038654163314620022d8565b60ff9081620005c562002312565b16101580620007c6575b620005da9062001a58565b620005e462002323565b8180620005f062002312565b169116101580620007a9575b620006079062001a9b565b6001816200061462002334565b161015806200078c575b620006299062001ade565b806200063462002312565b1690600954946200064462002323565b9262ff00009687946200065662002334565b62ffffff19938461ff0098899360101b169416179160081b1617176009556064359384600a5560843580600b5560a4359182600c5560c4359384600d5560e435918783168093036200078457600e549261010435928315158094036200078857610124359d8e8b81160362000784577f2abe7a1d12998c514529078544e46c120f54558e8e5f28ace6b7fe797220f1e69e60101b169416179160081b161717600e55610144359586600f55875197866200070f62001907565b168952866200071d62001918565b1660208a0152866200072e62001929565b16908901526060880152608087015260a086015260c085015281620007526200193a565b1690840152620007616200195d565b1515610100840152620007736200194b565b16610120830152610140820152a180f35b5f80fd5b8e80fd5b50620006296003826200079e62002334565b16111590506200061e565b5062000607600f82620007bb62002323565b1611159050620005fc565b50620005da600a82620007d862002312565b1611159050620005cf565b838534620002b15780600319360112620002b157506009549062000846600a5491600b5492600c5494600d5490600e5491600f54945197889760ff95868660101c169680808860081c16971695818160101c1691808260081c1691168c62001824565b0390f35b50505034620008765781600319360112620008765760025490516001600160a01b039091168152602090f35b5080fd5b505034620001e5576020366003190112620001e5573591600654831015620002b15750620008aa6020926200196e565b91905490519160031b1c8152f35b505050346200087657816003193601126200087657905490516001600160a01b039091168152602090f35b50505034620008765781600319360112620008765760015490516001600160a01b039091168152602090f35b8385610160366003190112620002b15750620009be620008469282519062000937826200187f565b6200094162001907565b82526200094d62001918565b60208301526200095c62001929565b848301526064356060830152608435608083015260a43560a083015260c43560c08301526200098a6200193a565b90820152620009986200195d565b610100820152620009a86200194b565b6101208201526101443561014082015262001c17565b91519081526001600160a01b0390911660208201529081906040820190565b838580600319360112620002b15750620009be620008469282519062000a03826200187f565b6009549060ff82818094168552818160081c16602086015260101c1685840152600a546060840152600b546080840152600c5460a0840152600d5460c0840152600e549082821690840152818160081c16151561010084015260101c16610120820152600f5461014082015262001c17565b50509034620001e55760209081600319360112620004c45782359283855280835260018060a01b039262000ab08484882054161515620020f0565b84865281815283838720541662000ad38262000acc836200243c565b016200213c565b600881101562000c535762000c1b578683918551928380926377d0e24160e11b82525afa90811562000c1157879162000bea575b506001908582541690813b1562000be65790889291865192632eb433e760e21b845260448401908a8886015288602486015282518092528660648601930191865b8882821062000bcd5750505050508391838381809403925af1801562000bc35762000bab575b505062000b7b8562002345565b8486525283205416907f3d5fcd8fa3235aeb3897f25c8ea49989174981afcb01b9d03189d1056a16775b8380a380f35b62000bb690620018b1565b620002e457855f62000b6e565b85513d84823e3d90fd5b84518d1686528e98509485019490930192820162000b48565b8880fd5b62000c0a91503d8089833e62000c018183620018e4565b810190620021fc565b5f62000b07565b84513d89823e3d90fd5b50606492519162461bcd60e51b8352820152601460248201527311d85b5948185b1c9958591e481cdd185c9d195960621b6044820152fd5b634e487b7160e01b885260218452602488fd5b5050503462000876578160031936011262000876576020906003549051908152f35b505034620001e5576020366003190112620001e5578160209360ff923581526007855220541690519015158152f35b50508234620002b15780600319360112620002b1578081600654905b81811062000e7f575062000ce7826200228b565b9362000cfe62000cf7846200228b565b936200228b565b938091815b84811062000d4c5762000d2f88620008468b8a62000d3e8b8351968796606088526060880190620017ef565b908682036020880152620017ef565b9184830390850152620017ef565b62000d57816200196e565b90549060031b1c80845260209083825260018060a01b038b8620541662000d838362000acc836200243c565b600881101562000e6c578b901562000dab575b5050505062000da59062001b66565b62000d03565b9285918362000dbe8a84989b97620022c3565b528d51636172910360e11b815292839182905afa90811562000e6257869162000e26575b5062000da593839260059262000dfd62000e1b968d620022c3565b5287525260018b8620015462000e14828b620022c3565b5262001b66565b93908a808a62000d96565b90508381819493943d831162000e5a575b62000e438183620018e4565b8101031262000784575190919062000da562000de2565b503d62000e37565b8c513d88823e3d90fd5b634e487b7160e01b875260218652602487fd5b62000e8a816200196e565b90549060031b1c845262000eb2602086815262000acc60018060a01b0389882054166200243c565b600881101562000eed571562000ed4575b62000ece9062001b66565b62000cd3565b9162000ee462000ece9162001b66565b92905062000ec3565b634e487b7160e01b855260218652602485fd5b80848634620002e8576020366003190112620002e85781358084526020839052818420546001600160a01b039062000f3c9082161515620020f0565b81855283602052808386205416803b15620002e4578580916024865180948193630c1f547360e11b8352338b8401525af1801562000fe05790869162000fc8575b50506001541692833b15620004fe578251631eb489b760e21b815290810191825233602083015292849184919082908490829060400103925af1908115620002b457506200029e5750f35b62000fd390620018b1565b620004fe57848762000f7d565b84513d88823e3d90fd5b505034620001e5576020366003190112620001e55760209282913581526008845220549051908152f35b50509034620001e55760209081600319360112620004c45782359283855280835260018060a01b03926200104f8484882054161515620020f0565b8486528181528181858589205416855192838092631810bd9960e31b82525afa90811562000c115787916200131e575b5015620012ed5760018481541686885283835287868682205416823b1562000876578651636212534160e11b81528681018a81526001600160a01b03909216602083015292839182908490829060400103925af18015620012e357620012cd575b508587528282528387205484516311c5fe5f60e21b8152908890871681838781845afa9283156200126757908691839462001271575b5082908851928380926377d0e24160e11b82525afa9081156200126757908491839162001249575b509082905b62001159575b505050505062000b7b8562002345565b8151811015620012435788620011708284620022c3565b518491168682815b62001200575b50508a6002541690813b15620002e45760448a8780948e519687958694633cd2ff4b60e01b8652850152151560248401525af18015620011f657869392918591620011d9575b5050620011d19062001b66565b909162001143565b620011e791929450620018b1565b620001e5578491835f620011c4565b89513d86823e3d90fd5b87518110156200123d57828d62001218838b620022c3565b51161462001232576200122b9062001b66565b8162001178565b509150865f6200117e565b6200117e565b62001149565b6200126091503d8085833e62000c018183620018e4565b5f6200113e565b87513d84823e3d90fd5b915092503d8083833e620012868183620018e4565b810190606081830312620001e5576200129f816200212e565b50858101519067ffffffffffffffff8211620004c45787928492620012c592016200218c565b939062001116565b620012db90979197620018b1565b955f620010e0565b85513d8a823e3d90fd5b606492519162461bcd60e51b8352820152600e60248201526d11d85b59481b9bdd08195b99195960921b6044820152fd5b90508181813d831162001353575b620013388183620018e4565b810103126200052c576200134c906200212e565b5f6200107f565b503d6200132c565b50509134620002b1576020366003190112620002b157816200084691843581526005602052209182549260018101549060028101549460038201549682015460066005840154930154945197889760ff95868660101c169680808860081c16971695818160101c1691808260081c1691168c62001824565b50505034620008765781600319360112620008765780519081809360065490818552602080950191600682527ff652222313e28459528d920b65115c16c04f3efc82aaedc97be59f3f377c0d3f915b868282106200145057859062000846886200144084890385620018e4565b51928284938452830190620017ef565b83548552889550909301926001928301920162001422565b83858492346200087657602080600319360112620001e557908491823593855162001493816200187f565b818152818382015281878201528160608201528160808201528160a08201528160c0820152818482015261010091808383015261012081818401528161014080940152620014e062002229565b50878252868552888220546001600160a01b039490620015049086161515620020f0565b888352878652848a842054169660058752620015228b8520620019cf565b9a6200152e896200243c565b97808251809c636172910360e11b8252818d5afa9a8b15620016ae57869b620016b8575b50808e896001541684519e8f92632aab301b60e11b8452830152815a91602492fa9b8c15620016ae57869c62001679575b506200159982519d8e9b8c52828c019062001772565b8851610180809b0152880151600881101562001665576101a08d01528701516101c08c015260608701516101e08c0152608087015160ff9081166102008d015260a088015181166102208d015260c088015181166102408d01529087015181166102608c015290860151166102808a015284015190600582101562001652575061036098506102a08801528201516102c0870152610160820151166102e086015201511515610300840152610320830152610340820152f35b634e487b7160e01b815260218a52602490fd5b50634e487b7160e01b855260218d52602485fd5b90809c5081813d8311620016a6575b620016948183620018e4565b81010312620002e457519a8e62001583565b503d62001688565b82513d88823e3d90fd5b9d9c9b9a50808e813d8311620016ed575b620016d58183620018e4565b81010312620002e4579c519b9c9a9b999a8062001552565b503d620016c9565b5050503462000876578160031936011262000876576020906006549051908152f35b505034620001e5576020366003190112620001e557803583526020908152918190205490516001600160a01b039091168152f35b85903462000876578160031936011262000876576002546001600160a01b03168152602090f35b60ff815116825260ff602082015116602083015260ff6040820151166040830152606081015160608301526080810151608083015260a081015160a083015260c081015160c083015260ff60e08201511660e08301526101008082015115159083015261012060ff81830151169083015261014080910151910152565b9081518082526020808093019301915f5b8281106200180f575050505090565b83518552938101939281019260010162001800565b98969492909b9a99979593916101608a019c60ff168a5260ff1660208a015260ff1660408901526060880152608087015260a086015260c085015260ff1660e0840152151561010083015260ff166101208201526101400152565b610160810190811067ffffffffffffffff8211176200189d57604052565b634e487b7160e01b5f52604160045260245ffd5b67ffffffffffffffff81116200189d57604052565b6101a0810190811067ffffffffffffffff8211176200189d57604052565b90601f8019910116810190811067ffffffffffffffff8211176200189d57604052565b6004359060ff821682036200078457565b6024359060ff821682036200078457565b6044359060ff821682036200078457565b60e4359060ff821682036200078457565b610124359060ff821682036200078457565b610104359081151582036200078457565b600654811015620019a45760065f527ff652222313e28459528d920b65115c16c04f3efc82aaedc97be59f3f377c0d3f01905f90565b634e487b7160e01b5f52603260045260245ffd5b600435906001600160a01b03821682036200078457565b90604051620019de816200187f565b61014060068294805460ff81818093168752818160081c16602088015260101c1660408601526001820154606086015260028201546080860152600382015460a0860152600482015460c0860152600582015481811660e0870152818160081c16151561010087015260101c166101208501520154910152565b1562001a6057565b60405162461bcd60e51b8152602060048201526013602482015272496e76616c6964206d696e20706c617965727360681b6044820152606490fd5b1562001aa357565b60405162461bcd60e51b8152602060048201526013602482015272496e76616c6964206d617820706c617965727360681b6044820152606490fd5b1562001ae657565b60405162461bcd60e51b8152602060048201526016602482015275125b9d985b1a59081a5b5c1bdcdd1bdc8818dbdd5b9d60521b6044820152606490fd5b1562001b2c57565b60405162461bcd60e51b815260206004820152601260248201527124b739bab33334b1b4b2b73a103bb0b3b2b960711b6044820152606490fd5b5f19811462001b755760010190565b634e487b7160e01b5f52601160045260245ffd5b9190820391821162001b7557565b3d1562001bd5573d9067ffffffffffffffff82116200189d576040519162001bca601f8201601f191660200184620018e4565b82523d5f602084013e565b606090565b1562001be257565b60405162461bcd60e51b815260206004820152600d60248201526c1499599d5b990819985a5b1959609a1b6044820152606490fd5b9060ff91828151169062001c3a600492838110159081620020e3575b5062001a58565b6020908181019262001c5f86855116878451168110159081620020d6575b5062001a9b565b604080830193878551169262001c84600194858110159081620020c9575b5062001ade565b88865116607f8651861c1611156200209357606085019462001caa865134101562001b24565b6003549762001cb98962001b66565b60035585548551614b308082019a6001600160a01b0395939092919086169067ffffffffffffffff8d11838e101762002080576200260d83398c8c5233888d0152888c015262001d0d60608c018462001772565b6101c0815f9c0301908bf08015620020765784169c8b8b528587528d888c20906bffffffffffffffffffffffff60a01b82541617905560058752878b2093818085511693865461ff009586945161ffff1997889160081b16921617178755511662001d8b90869062ff000082549160101b169062ff00001916179055565b8a518a8601556080840151600286015560a0840151600386015560c08401518786015560058501928260e08601511690845492610100870151151560081b169216171782556101208301511662001df4919062ff000082549160101b169062ff00001916179055565b610140015190600601556006546008845280858920556801000000000000000081101562002063578862001e32828862001e4a94016006556200196e565b90919082549060031b91821b915f19901b1916179055565b878752600783528387208560ff19825416179055855184519081528a897f6200407c0ea392b8107b21a9be480acd41fda186d04bed28cc7da2d4b53d56e2863394a4855134101562001ec8575b5050505050519081341162001ead575b50509190565b8080806200045462001ec0953462001b89565b5f8062001ea7565b86948888528284528180868a205416915416803b1562000be6578551636e553f6560e01b81528481018b815233602082015290918a9183919082908190604001039134905af18015620020595762002043575b50803b15620002e45785809160448751809481936334295cad60e21b835233898401528160248401525af180156200050a579086916200202b575b50506002541691835163c3c5a54760e01b815233838201528181602481875afa9182156200050a57869262001fed575b50501562001f96575b8062001e97565b813b15620004c45782916024859492859351958693849263306b9bb960e01b845233908401525af1908115620002b4575062001fd5575b808062001f8f565b62001fe18291620018b1565b620002b1578062001fcd565b90809250813d831162002023575b620020078183620018e4565b81010312620004fe576200201b906200212e565b5f8062001f86565b503d62001ffb565b6200203690620018b1565b620004fe57845f62001f56565b62002050919650620018b1565b86945f62001f1b565b86513d8b823e3d90fd5b634e487b7160e01b885260418352602488fd5b87513d8c823e3d90fd5b604188634e487b7160e01b5f525260245ffd5b915162461bcd60e51b8152918201526012602482015271546f6f206d616e7920696d706f73746f727360701b6044820152606490fd5b6003915011155f62001c7d565b600f915011155f62001c58565b600a915011155f62001c33565b15620020f857565b60405162461bcd60e51b815260206004820152600e60248201526d11d85b59481b9bdd08199bdd5b9960921b6044820152606490fd5b519081151582036200078457565b5160088110156200214a5790565b634e487b7160e01b5f52602160045260245ffd5b67ffffffffffffffff81116200189d5760051b60200190565b51906001600160a01b03821682036200078457565b81601f820112156200078457805191620021a6836200215e565b92620021b66040519485620018e4565b808452602092838086019260051b82010192831162000784578301905b828210620021e2575050505090565b838091620021f08462002177565b815201910190620021d3565b906020828203126200078457815167ffffffffffffffff811162000784576200222692016200218c565b90565b604051906200223882620018c6565b816101805f918281528260208201528260408201528260608201528260808201528260a08201528260c08201528260e0820152826101008201528261012082015282610140820152826101608201520152565b9062002297826200215e565b620022a66040519182620018e4565b8281528092620022b9601f19916200215e565b0190602036910137565b8051821015620019a45760209160051b010190565b15620022e057565b60405162461bcd60e51b815260206004820152600a60248201526927b7363c9037bbb732b960b11b6044820152606490fd5b60043560ff81168103620007845790565b60243560ff81168103620007845790565b60443560ff81168103620007845790565b5f90808252600760205260ff604083205416156200242957600860205260408220546006545f1991908281019081116200241557808203620023df575b50506006548015620023cb578101906200239c826200196e565b909182549160031b1b19169055600655815260076020526040812060ff19815416905560086020526040812055565b634e487b7160e01b84526031600452602484fd5b620023ea906200196e565b90549060031b1c620024018162001e32846200196e565b8452600860205260408420555f8062002382565b634e487b7160e01b85526011600452602485fd5b5050565b519060ff821682036200078457565b6200244662002229565b5060405163c19d93fb60e01b81526101a0916001600160a01b039083908390600490829085165afa91821562002601575f93849182839084918592869287889289958a988b9a8c9e62002514575b50506040519d8e620024a681620018c6565b5260088410156200214a578d608060ff809a8199958298968397602087015260408601526060850152169101521660a08d01521660c08b01521660e08901521661010087015260058110156200214a5761012086015261014085015216610160830152151561018082015290565b9b509d9c505050505050505050505083813d8311620025f9575b6200253a8183620018e4565b81010312620008765782516020840151936008851015620004c45760408101519360608201516200256e608084016200242d565b916200257d60a085016200242d565b916200258c60c086016200242d565b976200259b60e087016200242d565b90620025ab61010088016200242d565b91610120880151946005861015620002b1575061014088015196620025e3610180620025db6101608c0162002177565b9a016200212e565b999c929490969b9193959798999b5f8062002494565b503d6200252e565b6040513d5f823e3d90fdfe6101003462000478576001600160401b039062004b3038819003601f8101601f19168301848111848210176200047c578392829160405283398101036101c0811262000478578151926020906200005882850162000490565b60e052620000696040850162000490565b60c0526101608093605f190112620004785760405160a0819052838101918211908210176200047c57604052620000a360608401620004a5565b8060a05152620000b660808501620004a5565b90818360a0510152620000cc60a08601620004a5565b9384604060a05101528560c081015193606060a051019480865260e08301519081608060a05101526101009182850151908160a0805101526101209283870151988960c060a051015261014098620001268a8a01620004a5565b988960e060a05101520151968715158803620004785761ff007f7dfb67e9ff596fca4da65c7eedb128cd1aac553af54b3c0cb733625a2480d8bd9f9e60409f6101a0908b849b60a0510152620001806101808201620004a5565b809a60a05101520151809c60a051015260018060a01b03193381600e541617600e5560018060a01b038060805260c0511690600f541617600f5560ff62ff00005f549260101b1694169062ffffff1916179160081b1617175f55600155600255600355600495865560ff62ff00006005549260101b1694169062ffffff19161791151560081b16171760055560065560079086825560ff199182600854166008555f6009555f805284805262000238865f20620004b4565b5f80528480526200024b865f2062000511565b5f80528480526200025e865f206200055a565b60015f5284805262000272865f20620005a3565b60015f5284805262000286865f20620005e5565b60025f528480526200029a865f20620004b4565b60025f52848052620002ae865f206200062e565b60025f52848052620002c2865f2062000677565b60035f52848052620002d6865f20620005e5565b60035f52848052620002ea865f2062000677565b815f52848052620002fd865f20620005a3565b815f5284805262000310865f206200055a565b815f5284805262000323865f20620006c0565b60055f5284805262000337865f20620005a3565b60055f528480526200034b865f2062000511565b60055f528480526200035f865f2062000709565b60065f5284805262000373865f20620005e5565b60065f5284805262000387865f206200062e565b60065f528480526200039b865f20620006c0565b805f52848052620003ae865f2062000511565b805f52848052620003c1865f2062000677565b805f52848052620003d4865f2062000709565b60085f52848052620003e8865f206200055a565b60085f52848052620003fc865f20620006c0565b60085f5260218552855f2081848254161790555f52845f20600883825416179055805f52845f2060038382541617905560035f52845f2090828254161790555f8052835f2060018282541617905560015f52835f209081541690555182519160805160e051168352820152a26040516143dd9081620007538239f35b5f80fd5b634e487b7160e01b5f52604160045260245ffd5b51906001600160a01b03821682036200047857565b519060ff821682036200047857565b805490680100000000000000008210156200047c5760018201808255821015620004fd575f5260205f208160051c019060f882549160031b169060ff6001831b921b1916179055565b634e487b7160e01b5f52603260045260245ffd5b805490680100000000000000008210156200047c5760018201808255821015620004fd575f5260205f208160051c019060f882549160031b169060ff6004831b921b1916179055565b805490680100000000000000008210156200047c5760018201808255821015620004fd575f5260205f208160051c019060f882549160031b169060ff6005831b921b1916179055565b805490680100000000000000008210156200047c5760018201808255821015620004fd575f5260205f208160051c019060ff60f883549260031b161b19169055565b805490680100000000000000008210156200047c5760018201808255821015620004fd575f5260205f208160051c019060f882549160031b169060ff6002831b921b1916179055565b805490680100000000000000008210156200047c5760018201808255821015620004fd575f5260205f208160051c019060f882549160031b169060ff6003831b921b1916179055565b805490680100000000000000008210156200047c5760018201808255821015620004fd575f5260205f208160051c019060f882549160031b169060ff6006831b921b1916179055565b805490680100000000000000008210156200047c5760018201808255821015620004fd575f5260205f208160051c019060f882549160031b169060ff6007831b921b1916179055565b805490680100000000000000008210156200047c5760018201808255821015620004fd575f5260205f208160051c019060f882549160031b169060ff6008831b921b191617905556fe6080604081815260049081361015610015575f80fd5b5f9260e08435811c918263046e3cde14612b7e5750816309c95e1014612b405781630a5f0da214612a145781630d80fefd146129815781631022fe0514612949578163106599d61461285e57816315c6aee21461281c578163183ea8e6146127655781631b689ad0146127465781631e8263a01461270a5781632a4b0776146126bb57816334113f361461264f5781634717f97c1461241e5781634e2406c614611c245781635ff6cbf314611aad578163669ead1714611a255781636855d496146116f85781636e3b47fc146116b157816374545c7b1461166e57816379502c55146115e45781637bc27dac146113be57816384df5d841461139557816395fd62191461119a578163b1501f9c1461110a578163bb61ce9b14610faa578163be25a71814610e76578163c085ecc814610e33578163c19d93fb14610d5a578163c2e5220614610d3b578163c45a015514610d12578163d0a572b4146109b8578163d23254b41461095d578163d65ab5f214610555578163e2eb41ff1461049d57508063e90d4c061461043f578063efa1c482146103a65763f6d42995146101ba575f80fd5b346103a2576020918260031936011261039e57803560099485821015908161039b576011549281805b8581106102ed57506101f490612f9b565b9782805b8681106102155788518a815280610211818d018e612cce565b0390f35b61021e81612d0a565b9054600391821b1c6001600160a01b0390811684526010808d528b85205491929160ff919060b01c82168a6102da57878110156102da578f949392908914918f836102b2575b50505061027d575b50505061027890612f69565b6101f8565b916102a1888599936102a79561029561027898612d0a565b9054911b1c1692612fcd565b52612f69565b9490508a5f8061026c565b90919250846102c088612d0a565b905490861b1c168852528c86205460b81c165f808f610264565b634e487b7160e01b875260218d52602487fd5b6102f681612d0a565b9054600391821b1c6001600160a01b0390811686526010808c528a87205460ff929060b01c831689610388578e811015610388578714938461035f575b5050505061034a575b61034590612f69565b6101e3565b9061035761034591612f69565b91905061033c565b909192935061036d85612d0a565b9054911b1c1686528a528885205460b81c165f808080610333565b634e487b7160e01b895260218c52602489fd5b80fd5b8380fd5b8280fd5b83823461043b578160031936011261043b5780519081809360115490818552602080950191601182527f31ecc21a745e3968a04e9570e4425bc18fa8019c68028196b546d1669c200c68915b8682821061041b5785906102118861040c84890385612e0c565b51928284938452830190612cce565b83546001600160a01b0316855288955090930192600192830192016103f2565b5080fd5b5090346103a257816003193601126103a257606092829161045e612bcd565b9035825260156020528282209060018060a01b03168252602052209081549160ff60026001830154920154169082519384526020840152151590820152f35b84833461043b57602036600319011261043b57610140926001600160a01b03928290846104c8612bb3565b1681526010602052209081549060ff808360a81c16926001850154936003836002880154169601549680519883168952838360a01c1660208a015261050c82612c8a565b88015261052160608801838360b01c16612be3565b818160b81c1615156080880152818160c01c1660a088015260c81c1660c08601528401521515610100830152610120820152f35b8385843461043b578160031936011261043b5733825260129060209180835260ff94610585868487205416612e5e565b6008908154908782168381101561094a576105a09015612e99565b6011908154898954168110610914578960019687928360ff1980981617885589518b810190428252448c820152826060820152606081526105e081612da4565b519020908c80919481965b61076c575b8b965094509250849150505b6106e8575b50809150835416600b549362ff000061ff006106248d54958660101c1685612ed3565b891b169316938c600554168d868562ffffff198a16178717178a1c1602809d8116036106d857505064ff00000000899a9b60029798999a1b169364ff00ffffff191617171717600b5582541617905560095561068260025442612efb565b600a557fa2dfaa3573b86004ec9d4d4abe5068d942579c59da4da8cd0d9e45e71a393bc160075492839251428152a27fb607ccb3d7ced88cd923d2c5f091149c8ecc5fb24209afa25a43ddf94253801d8280a280f35b634e487b7160e01b8c525260248afd5b898b8a8754841015610764576107369461070185612d0a565b92909360018060a01b03809554600395861b1c168152601380965220541661072881612c8a565b1561073e575b505050612f69565b8a90826105fc565b61074784612d0a565b9054911b1c168c528a52888b2083878254161790558c808061072e565b505050610601565b885487109182610901575b5050156108fa578a518c810190838252868d8201528c815261079881612df0565b51902084156108e857908c8f8f879695948f92988f9a996107bf8782865460101c16612ed3565b16910610156108b4578798506107db6013939495969798612d0a565b9054600391821b1c6001600160a01b039081168352939094522080548b1660021790559061080887612d0a565b9054911b1c166014805490600160401b8210156108a0578c820180825582101561088c578f527fce6d7b5282bd9a3661ae061feed1dbda4e52ab073b1f9285be6e155d9c38d4ec0180546001600160a01b031916909117905589949392919061087f9061087490612ff4565b935b5f190194612f69565b948e8e91949293946105eb565b50634e487b7160e01b8f526032885260248ffd5b50634e487b7160e01b8f526041885260248ffd5b601361087f9497936108c58a612d0a565b905460039190911b1c6001600160a01b03168352522080548b1688179055610876565b634e487b7160e01b8e5283875260248efd5b8c8e6105f0565b8192505460101c16908216108e8e610777565b606482878a8a519262461bcd60e51b84528301526024820152714e6f7420656e6f75676820706c617965727360701b6044820152fd5b634e487b7160e01b885260218252602488fd5b5050346103a257806003193601126103a2578060609361097b612bcd565b93358152601960205281812060018060a01b0380951682526020522090600283835416936001840154169201549181519384526020840152820152f35b84929150346103a257816003193601126103a2576109d4612bb3565b6109dc612d3f565b600e5490926001600160a01b03916109f79083163314612d69565b60ff9182600854166008811015610cff57610cc557808416918288526020936012855280888a205416610c9157601154818a5460081c161115610c625780600554169060015492895194610140860186811067ffffffffffffffff821117610c4e579186888c8f9896948f90818b9a988f935284865287838701941684528a818701938185526060880196828852608089019860018a5260a081019a848c5260c082019d8e5281019d8e5261010081019e8f52610120019e8f52825260109052209b51168b549260ff60a01b905160a01b169151610ad481612c8a565b610add81612c8a565b6001600160b01b0319909316171760a89190911b60ff60a81b16178955516009811015610c3a5792600397969492610b4992610b1d610b8498968c612e3a565b518a54915161ffff60b81b1990921690151560b81b60ff60b81b1617911660c01b60ff60c01b16178855565b51865460ff60c81b191660c89190911b60ff60c81b161786555160018601555160028501805491151560ff1660ff1992909216919091179055565b51910155601154600160401b811015610c275791601291610bf185610bd28660017f267de9464a1783407eb0e8ba56bcd59ef059648e576c0703bfd6a3b84355e8319a999801601155612d0a565b90919082549060031b9160018060a01b03809116831b921b1916179055565b875252838520805460ff1916600117905560075493516001600160a01b0391909116815260ff919091166020820152604090a280f35b634e487b7160e01b875260418852602487fd5b8f8f6021602492634e487b7160e01b835252fd5b50634e487b7160e01b8c5260418d5260248cfd5b875162461bcd60e51b8152808b01869052600960248201526811d85b5948199d5b1b60ba1b6044820152606490fd5b875162461bcd60e51b8152808b01869052600e60248201526d105b1c9958591e481a9bda5b995960921b6044820152606490fd5b855162461bcd60e51b81526020818a0152601460248201527311d85b5948185b1c9958591e481cdd185c9d195960621b6044820152606490fd5b634e487b7160e01b885260218952602488fd5b84833461043b578160031936011261043b57600e5490516001600160a01b039091168152602090f35b84833461043b578160031936011261043b576020906011549051908152f35b929390503461039b578060031936011261039b576007549260ff92836008541691600954600a5490600b5493600c5495600d549782519a8b526008821015610e2057506101a09a5090610dfc959493929160208b015289015260608801528582166080880152858260081c1660a0880152858260101c1660c0880152858260181c1690870152848160201c166101008701528461012087019160281c16612d5c565b6101408401526001600160a01b03811661016084015260a01c161515610180820152f35b634e487b7160e01b815260218c52602490fd5b5050913461039b578060031936011261039b5760ff60085416916008831015610e63576020836007865191148152f35b634e487b7160e01b825260219052602490fd5b5050346103a257826003193601126103a257600a544210610f755760ff600854166008811015610f6257600290808203610eb95750505050610eb6613278565b80f35b600393818503610ed0575050505050610eb6613296565b8103610f4e575060ff19916005836008541617600855610ef1845442612efb565b600a55610eff601b54612f69565b601b55845b601154811015610f465780610f1b610f4192612d0a565b905490871b1c6001600160a01b0316875260106020528287208401805486169055612f69565b610f04565b505050505080f35b9150506005915003610eb657610eb6613e5e565b634e487b7160e01b845260218352602484fd5b906020606492519162461bcd60e51b8352820152600f60248201526e141a185cd9481b9bdd08195b991959608a1b6044820152fd5b5050346103a2576020918260031936011261039e5733845260128352610fd560ff8386205416612e5e565b33845260108352610fee60ff8386205460b81c16612f08565b60ff6008541660088110156110f75760026110099114612e99565b600954808552601584528285203386528452828520546110c15782916002611099927ff02c9de73b65f8945007c486ba938a543a854ccc59f818d87f26f5b724c276b995519261105884612df0565b35835286830142815285840191898352895260158852858920338a5288528589209351845551600184015551151591019060ff801983541691151516179055565b60075492600954825191338352820152a26110b2613106565b6110b95780f35b610eb6613278565b5082606492519162461bcd60e51b83528201526011602482015270105b1c9958591e4818dbdb5b5a5d1d1959607a1b6044820152fd5b634e487b7160e01b855260218252602485fd5b505090346103a257826003193601126103a257338352601260205261113460ff8385205416612e5e565b60ff60085416906008821015611187575061114f9015612e99565b61115833613005565b7fb2bd643202385c64d9814c6c3fa61b1ba098d6652292e9d9a6f1a0cdae6eb82460206007549251338152a280f35b634e487b7160e01b845260219052602483fd5b8385843461043b57608036600319011261043b578235838110156103a2576111c0612bcd565b60443560078110156113915760643590600982101561138d5733865260126020526111f060ff8688205416612e5e565b338652601060205261120a60ff8688205460b81c16612f08565b60ff60085416600881101561137a57876112249114612e99565b84519461123086612dd4565b338652602086019461124181612c8a565b85526001600160a01b039384169086019081529260608601916112649083612f77565b611272608087019384612e2e565b60a0860194428652601c54600160401b811015611367578060016112999201601c55612c04565b979097611355578290511691875491836001600160601b0360a01b841617895551916112c483612c8a565b6112cd83612c8a565b60ff60a01b9384936affffffffffffffffffffff60a81b94859160a01b1692161717885560018801955116918554935160078110156113425760a01b169216171782555190600982101561132f576002929161132891612f45565b5191015580f35b634e487b7160e01b855260218652602485fd5b634e487b7160e01b8a5260218b5260248afd5b634e487b7160e01b8952888a52602489fd5b634e487b7160e01b895260418a52602489fd5b634e487b7160e01b875260218852602487fd5b8580fd5b8480fd5b84833461043b578160031936011261043b57600f5490516001600160a01b039091168152602090f35b8385843461043b576020806003193601126103a2576113db612bb3565b933384526012825260ff6113f3818587205416612e5e565b3385526010835261140b818587205460b81c16612f08565b806008541660088110156115d15760056114259114612e99565b3385526010835280600285872001541661159f576001600160a01b039586169182158015928361156f575b501561153b57507ff1003b73c437642c0460aee9cd9628b0b8c447b66e6c7c905531b9c644214a1193949533875260108452600286882001600160ff1982541617905560028651916114a183612df0565b33835285830185815288840191428352601b548b5260198852898b20338c528852808a8c20955116906001600160601b0360a01b9182875416178655600186019251169082541617905551910155611515575b506007549251338152a261150661320f565b61150d5780f35b610eb6613e5e565b601b548552601a825283852090855281528284206115338154612f69565b9055846114f4565b845162461bcd60e51b8152908101849052600e60248201526d125b9d985b1a59081d185c99d95d60921b6044820152606490fd5b8488526012865286882054811691508161158b575b5088611450565b9050601085528587205460b81c1688611584565b50915162461bcd60e51b815291820152600d60248201526c105b1c9958591e481d9bdd1959609a1b6044820152606490fd5b634e487b7160e01b865260218352602486fd5b919290503461039e578360031936011261039e576101609354906001549260025491600354905490600554936006549688519860ff8881809a168c52818160081c1660208d015260101c16908a01526060890152608088015260a087015260c086015282821690850152818160081c16151561010085015260101c16610120830152610140820152f35b505090346103a257816003193601126103a257602092829161168e612bcd565b90358252601a85528282206001600160a01b039091168252845220549051908152f35b84833461043b578160031936011261043b5760ff81602093338152601285526116de838383205416612e5e565b338152601385522054169051906116f481612c8a565b8152f35b8385843461043b5760c036600319011261043b57823590600b8210156103a257611720612bcd565b604435906009821015611391576064359160ff9081841690818503611a2157608435926005841015611a1d573389526020956012875261176482898c205416612e5e565b338a526010875261177c82898c205460b81c16612f08565b8160085416600881101561195b5760036117969114612e99565b6009548a5260158752878a20338b528752878a209081549182156119ea57600201918254918483166119b4578a518a8101918d60f81b83526001600160601b03198b60601b1660218301528760f81b603583015260ff60f81b9060f81b1660368201528860f81b603782015260a43560388201523360601b6058820152604c815261182081612da4565b519020036119815760ff1916600117905586519460a0860167ffffffffffffffff81118782101761196e5788528886526001600160a01b03168686019081528588019261186d9084612e2e565b60608601938452608086019485526009548a5260168752878a20338b528752878a20955191600b83101561195b57865491610100600160a81b03905160081b169216906affffffffffffffffffffff60a81b1617178455516009811015610cff576118d89084612f45565b5190825490516005811015610cff577fb4add1a296dcfa323d45bec6a2df2b9ce9608ab03cc1e8a8220b0cd352c3a4339697985060ff60b81b9060b81b169160ff60b01b9060b01b169061ffff60b01b19161717905561194360075494835192338452830190612d4f565ba261194c61318a565b6119535780f35b610eb6613296565b634e487b7160e01b8b5260218c5260248bfd5b634e487b7160e01b8b5260418c5260248bfd5b885162461bcd60e51b8152808d01899052600d60248201526c090c2e6d040dad2e6dac2e8c6d609b1b6044820152606490fd5b8a5162461bcd60e51b8152808f018b9052601060248201526f105b1c9958591e481c995d99585b195960821b6044820152606490fd5b895162461bcd60e51b8152808e018a9052600d60248201526c139bc818dbdb5b5a5d1b595b9d609a1b6044820152606490fd5b8880fd5b8780fd5b5050346103a257806003193601126103a25780611a8f611aab9260a095611a4a612bcd565b953581526016602052818120600180891b038097168252602052205491805194611a778660ff8616612d4f565b8360081c166020860152840160ff8360a81c16612be3565b60ff8160b01c16606084015260ff608084019160b81c16612d5c565bf35b82853461039b578060031936011261039b57601c54611acb81612f83565b91611ad884519384612e0c565b818352601c815260209283810192827f0e4562a10381dec21b205ed72637e6b1b523bdd0e4d4d50af5cd23dd4500a211855b838310611ba25750505050845193808501918186525180925285850193925b828110611b365785850386f35b909192938260c06001928751848060a01b0380825116835284820151611b5b81612c8a565b858401528b820151168b830152611b7a60608083015190840190612c94565b611b8c60808083015190840190612be3565b60a0908101519082015201950193929101611b29565b6003886001928b9a97989a51611bb781612dd4565b8c611c09875491878060a01b03808416855260ff918260a095861c16611bdc81612c8a565b88870152898b015491821690860152611bfc8282861c1660608701612f77565b60a81c1660808401612e2e565b60028701549082015281520192019201919096949396611b0a565b84915083346103a2576020908160031936011261039e5735600981101561039e5792611c51829394612cb8565b93855190819485918188549485815201908198865282862094865b8b82601f8301106121a8575084611d9197549383831061218c575b83831061216d575b83831061214e575b83831061212f575b838310612111575b8383106120f2575b8383106120d3575b8383106120b4575b8d848410612095575b50838310612076575b838310612057575b838310612038575b838310612019575b838310611ffa575b838310611fdb575b838310611fbc575b838310611f9d575b838310611f7e575b838310611f5f575b838310611f40575b838310611f21575b838310611f02575b838310611ee3575b838310611ec4575b838310611ea5575b838310611e86575b838310611e67575b838310611e48575b838310611e2b575b50828210611e0e575b828210611df1575b5010611ddb575b5090509695949293960382612e0c565b83519485948186019282875251809352850193925b828110611db557505050500390f35b9193839550908082611dcb600194839751612be3565b0195019101918594939192611da6565b81611de89160f81c612be3565b01849089611d81565b84611e056001939660ff8760f01c16612be3565b01930184611d7a565b84611e226001939660ff8760e81c16612be3565b01930184611d72565b94611e3e8160ff87600196991c16612be3565b019301848d611d69565b91948181611e5e60019360ff8960d81c16612be3565b01950191611d61565b91948181611e7d60019360ff8960d01c16612be3565b01950191611d59565b91948181611e9c60019360ff8960c81c16612be3565b01950191611d51565b91948181611ebb60019360ff8960c01c16612be3565b01950191611d49565b91948181611eda60019360ff8960b81c16612be3565b01950191611d41565b91948181611ef960019360ff8960b01c16612be3565b01950191611d39565b91948181611f1860019360ff8960a81c16612be3565b01950191611d31565b91948181611f3760019360ff8960a01c16612be3565b01950191611d29565b91948181611f5660019360ff8960981c16612be3565b01950191611d21565b91948181611f7560019360ff8960901c16612be3565b01950191611d19565b91948181611f9460019360ff8960881c16612be3565b01950191611d11565b91948181611fb360019360ff8960801c16612be3565b01950191611d09565b91948181611fd260019360ff8960781c16612be3565b01950191611d01565b91948181611ff160019360ff8960701c16612be3565b01950191611cf9565b9194818161201060019360ff8960681c16612be3565b01950191611cf1565b9194818161202f60019360ff8960601c16612be3565b01950191611ce9565b9194818161204e60019360ff8960581c16612be3565b01950191611ce1565b9194818161206d60019360ff8960501c16612be3565b01950191611cd9565b9194818161208c60019360ff8960481c16612be3565b01950191611cd1565b866120aa600193959860ff8987951c16612be3565b019501918d611cc8565b919481816120ca60019360ff8960381c16612be3565b01950191611cbf565b919481816120e960019360ff8960301c16612be3565b01950191611cb7565b9194818161210860019360ff8960281c16612be3565b01950191611caf565b9194818161212660019360ff89851c16612be3565b01950191611ca7565b9194818161214560019360ff8960181c16612be3565b01950191611c9f565b9194818161216460019360ff8960101c16612be3565b01950191611c97565b9194818161218360019360ff8960081c16612be3565b01950191611c8f565b9194818161219f60019360ff8916612be3565b01950191611c87565b8396509361240c61040092956123fe61018061239061225a6123488c9a8f60019b9e6122b86123009254998c8b60ff9a826121e68d94858516612be3565b6121f7878201858560081c16612be3565b612208858201858560101c16612be3565b61227660609561221f878401878760181c16612be3565b61223260809987878c8701921c16612be3565b61226760a09b6122498d8601898960281c16612be3565b60c09e8f8601898960301c16612be3565b8401878760381c16612be3565b85856101008501921c16612be3565b6122896101208201858560481c16612be3565b61229c6101408201858560501c16612be3565b6122af6101608201858560581c16612be3565b01921c16612be3565b6122cb6101a08c01888b60681c16612be3565b6122de6101c08c01888b60701c16612be3565b6122f16101e08c01888b60781c16612be3565b86896102008d01921c16612be3565b6123136102208a01868960881c16612be3565b6123266102408a01868960901c16612be3565b6123396102608a01868960981c16612be3565b84876102808b01921c16612be3565b61235b6102a08801848760a81c16612be3565b61236e6102c08801848760b01c16612be3565b6123816102e08801848760b81c16612be3565b82856103008901921c16612be3565b6123a36103208601828560c81c16612be3565b6123b66103408601828560d01c16612be3565b6123c96103608601828560d81c16612be3565b6123db6103808601848d1c8316612be3565b6123ee6103a08601828560e81c16612be3565b6103c08501908360f01c16612be3565b6103e083019060f81c612be3565b01950191019286928894959295611c6c565b5050346103a257826003193601126103a25760ff91826008541660088110156110f75760070361261c575081600d5460a01c1691601154600191612463835483612fe1565b9286875b84811061256f575061247890612f9b565b96809281935b8585106124b0575050505050506124a8825194859415158552606060208601526060850190612cce565b918301520390f35b6124b985612d0a565b905460039190911b1c6001600160a01b03168a8a8061254e575b156124f657916124ea916102a1826124f095612fcd565b94612f69565b9361247e565b8a969296158061252c575b612511575b50506124f090612f69565b95612524916102a1826124f09599612fcd565b94908a612506565b505080845260136020528a6002848b8720541661254881612c8a565b14612501565b505080845260136020528a85848b8720541661256981612c8a565b146124d3565b61257881612d0a565b905460039190911b1c6001600160a01b031688806125fd575b156125af5750906125a46125aa91612f69565b91612f69565b612467565b881590816125dc575b506125c7575b6125aa90612f69565b906125d46125aa91612f69565b9190506125be565b905089526013602052600284888b2054166125f681612c8a565b145f6125b8565b50808a5260136020528385898c20541661261681612c8a565b14612591565b6020606492519162461bcd60e51b8352820152600e60248201526d11d85b59481b9bdd08195b99195960921b6044820152fd5b505090346103a25760203660031901126103a257359160175483101561039b575061267b608092612c51565b509081549160ff6002600183015492015416916126af81519460018060a01b038116865260ff602087019160a01c16612be3565b83015215156060820152f35b84833461043b578060031936011261043b5760ff816020936126db612bb3565b6126e3612d3f565b6001600160a01b039091168252601f86528282209084168252855220549151911615158152f35b84833461043b57602036600319011261043b5760209160ff9082906001600160a01b03612735612bb3565b168152601d85522054169051908152f35b84833461043b578160031936011261043b57602090601b549051908152f35b505090346103a25760203660031901126103a257612781612bb3565b600e5490916001600160a01b039161279c9083163314612d69565b60ff600854169060088210156128095750916127fd6020926127df7fb2bd643202385c64d9814c6c3fa61b1ba098d6652292e9d9a6f1a0cdae6eb8249515612e99565b821691828752601284526127f860ff8789205416612e5e565b613005565b6007549351908152a280f35b634e487b7160e01b865260219052602485fd5b505090346103a25760203660031901126103a257359160115483101561039b5750612848602092612d0a565b905491519160018060a01b039160031b1c168152f35b5050346103a257826003193601126103a2573383526020916012835261288960ff8386205416612e5e565b33845260138352600260ff83862054166128a281612c8a565b03612919575080519283849184601454928381520191601482527fce6d7b5282bd9a3661ae061feed1dbda4e52ab073b1f9285be6e155d9c38d4ec915b868282106128f95785906102118861040c84890385612e0c565b83546001600160a01b0316855288955090930192600192830192016128df565b82606492519162461bcd60e51b8352820152600c60248201526b2737ba1034b6b837b9ba37b960a11b6044820152fd5b505090346103a25760203660031901126103a2573591600983101561039b575060ff612976602093612ca1565b541690519015158152f35b505090346103a25760203660031901126103a2573591601c5483101561039b57506129ad60c092612c04565b50612a0d81549160ff8360a01c1693600260018301549201549381519560018060a01b0380921687526129df81612c8a565b60208701528216908501526129fd6060850160ff8360a01c16612c94565b60ff608085019160a81c16612be3565b60a0820152f35b82853461039b578060031936011261039b57601754612a3281612f83565b91612a3f84519384612e0c565b8183526017815260209283810192827fc624b66cc0138b8fabc209247f72d758e1cf3343756d543badbf24212bed8c15855b838310612ae45750505050845193808501918186525180925285850193925b828110612a9d5785850386f35b909192938260806001928751848060a01b038151168252612ac48482015185840190612be3565b808b0151828c015260609081015115159082015201950193929101612a90565b6003886001928b9a97989a51612af981612da4565b8554858060a01b0381168252612b1860ff809260a01c16858401612e2e565b8d86880154908301526002870154161515606082015281520192019201919096949396612a71565b84833461043b57602036600319011261043b5760209160ff9082906001600160a01b03612b6b612bb3565b1681526012855220541690519015158152f35b93505050346103a25760203660031901126103a2576020926001600160a01b03612ba6612bb3565b168152601e845220548152f35b600435906001600160a01b0382168203612bc957565b5f80fd5b602435906001600160a01b0382168203612bc957565b906009821015612bf05752565b634e487b7160e01b5f52602160045260245ffd5b601c54811015612c3d57600390601c5f52027f0e4562a10381dec21b205ed72637e6b1b523bdd0e4d4d50af5cd23dd4500a21101905f90565b634e487b7160e01b5f52603260045260245ffd5b601754811015612c3d5760039060175f52027fc624b66cc0138b8fabc209247f72d758e1cf3343756d543badbf24212bed8c1501905f90565b60041115612bf057565b906007821015612bf05752565b6009811015612bf0575f52601860205260405f2090565b6009811015612bf0575f526020805260405f2090565b9081518082526020808093019301915f5b828110612ced575050505090565b83516001600160a01b031685529381019392810192600101612cdf565b601154811015612c3d5760115f527f31ecc21a745e3968a04e9570e4425bc18fa8019c68028196b546d1669c200c6801905f90565b6024359060ff82168203612bc957565b90600b821015612bf05752565b906005821015612bf05752565b15612d7057565b60405162461bcd60e51b815260206004820152600c60248201526b4f6e6c7920666163746f727960a01b6044820152606490fd5b6080810190811067ffffffffffffffff821117612dc057604052565b634e487b7160e01b5f52604160045260245ffd5b60c0810190811067ffffffffffffffff821117612dc057604052565b6060810190811067ffffffffffffffff821117612dc057604052565b90601f8019910116810190811067ffffffffffffffff821117612dc057604052565b6009821015612bf05752565b906009811015612bf057815460ff60b01b191660b09190911b60ff60b01b16179055565b15612e6557565b60405162461bcd60e51b815260206004820152600c60248201526b2737ba103090383630bcb2b960a11b6044820152606490fd5b15612ea057565b60405162461bcd60e51b815260206004820152600b60248201526a57726f6e6720706861736560a81b6044820152606490fd5b9060ff8091169116039060ff8211612ee757565b634e487b7160e01b5f52601160045260245ffd5b91908201809211612ee757565b15612f0f57565b60405162461bcd60e51b815260206004820152600e60248201526d141b185e595c881a5cc81919585960921b6044820152606490fd5b906009811015612bf057815460ff60a81b191660a89190911b60ff60a81b16179055565b5f198114612ee75760010190565b6007821015612bf05752565b67ffffffffffffffff8111612dc05760051b60200190565b90612fa582612f83565b612fb26040519182612e0c565b8281528092612fc3601f1991612f83565b0190602036910137565b8051821015612c3d5760209160051b010190565b81810292918115918404141715612ee757565b60ff1660ff8114612ee75760010190565b6001600160a01b039081165f818152601260205260408120805460ff1916905590815b60118054808310156130fb579085918461304185612d0a565b949054600395861b1c16146130615750505061305c90612f69565b613028565b90925f969294959619918281019081116130e75790610bd28461308661309394612d0a565b905490891b1c1691612d0a565b825480156130d35701926130a684612d0a565b81939154921b1b19169055555b815260106020526003604082208281558260018201558260028201550155565b634e487b7160e01b87526031600452602487fd5b634e487b7160e01b88526004859052602488fd5b5050509091506130b3565b6011545f5b818110613119575050600190565b61312281612d0a565b60018060a01b0391549060031b1c16805f526020906010825260409060ff825f205460b81c16928361316a575b5050506131645761315f90612f69565b61310b565b50505f90565b909192506009545f5260158152825f20915f52525f2054155f808061314f565b6011545f5b81811061319d575050600190565b6131a681612d0a565b60018060a01b0391549060031b1c16805f526020906010825260ff9060409082825f205460b81c1693846131eb575b50505050613164576131e690612f69565b61318f565b60029394506009545f5260158152825f20915f52525f20015416155f8080806131d5565b6011545f5b818110613222575050600190565b61322b81612d0a565b60018060a01b0391549060031b1c165f52601060205260405f2060ff80825460b81c169182613269575b50506131645761326490612f69565b613214565b60020154161590505f80613255565b600360ff19600854161760085561329160025442612efb565b600a55565b5f905b601154821015613438576132ac82612d0a565b60018060a01b0391549060031b1c1691825f52601092602084815260ff9460409086825f205460b81c16156134295760099687545f5260168452825f20855f528452825f208054828116600b811015612bf0576001810361334c57505061332e9798505460a81c169261331f84866140ea565b613334575b5050505050612f69565b90613299565b613342945f52525f20612e3a565b5f80808080613324565b6007919493959692501461336c575b50505050505061332e919250612f69565b855f5260138152600284865f20541661338481612c8a565b14806133bc575b61332e98995061339e575b88975061335b565b6133b1955f525260a81c16905f20612e3a565b5f8080808080613396565b50838360a81c16865f5282825284865f205460b01c168a811015612bf0575f526021998a835285875f2054169080831015613416578110156134035798995089981461338b565b8a634e487b7160e01b5f5260045260245ffd5b8b634e487b7160e01b5f5260045260245ffd5b5050505061332e919250612f69565b5f91505b6011548210156137c95761344f82612d0a565b92905492600360018060a01b038583831b1c165f526010948560205260ff958660405f205460b81c161580156137aa575b61379b576009545f52601660205260405f2060018060a01b038386861b1c165f5260205260405f20549680881690600b9182811015612bf05760048091146134db575b505050505050506134d5919250612f69565b9061343c565b6008936134fb6001600160a01b038c871c8116908a8a1b89901c16614197565b613506575b506134c3565b60018060a01b038689891b1c165f526020528160405f205460b01c169260018060a01b038b861c165f5260405f2060ff60b81b1981541690556013928360205260405f208860ff19825416179055815490806135638184166140db565b16908d8260ff198516179081865560018060a01b03818b1c165f52876020528260405f2054169761359389612c8a565b600180991491821561376b575b5050613744575b5050505050600954604051906135bc82612da4565b8b861c6001600160a01b031682526135d78560208401612e2e565b60408201525f60608201526017805490600160401b82101561373157848201905561360190612c51565b92909261371f57815183546001600160a01b031981166001600160a01b0392909216918217855560208401519092600982101561370c57506134d59c9d94600260606136e2967f7b9d6b76f1741e06eec153029570ea1c7e0fd51cd35433d4581d8f5c2d53663a9a9660409a966136b09660ff60a01b9060a01b16916affffffffffffffffffffff60a81b161717845589810151868501550151151591019060ff801983541691151516179055565b6136b982612ca1565b805460ff1916909117905560075484519390961c6001600160a01b031683526020830190612be3565ba26009549260018060a01b03921b1c165f52601e60205260405f205582915f808080808080613500565b602190634e487b7160e01b5f525260245ffd5b5f90634e487b7160e01b82525260245ffd5b604184634e487b7160e01b5f525260245ffd5b61ff0091613754918a1c166140db565b881b169161ffff1916171790555f808080806135a7565b8b1c6001600160a01b03165f90815260209190915260409020548c9150831661379381612c8a565b148f806135a0565b505050506134d5919250612f69565b50601360205260028760405f2054166137c281612c8a565b1415613480565b90505f5b60115481101561399a576137e081612d0a565b60018060a01b0391549060031b1c1690815f526010602081815260ff9360409085825f205460b81c1615801561397d575b61396f576009545f5260168352815f20815f528352815f209384549680881697600b808a1015612bf05760026138549a14613859575b5050505050505050612f69565b6137cd565b8260b092831c16938360055416851080613953575b613879575b50613847565b7ff690e4578493b48449a2f4abdd9d0fdb1ea79e133f08a7662dcd26ec1d18be5b9761394295875f52601f8252885f20905f528152875f20600160ff19825416179055865f52526138ef865f206138d585825460c01c16612ff4565b815460ff60c01b191660c09190911b60ff60c01b16179055565b805463ff00000060186139058684831c16612ff4565b63ff0000001990931692901b16179055600754965494516001600160a01b03909416845260ff94901c169290921660208201529081906040820190565b0390a25f8080808080808080613873565b50855f52601f8852865f20855f52885283875f2054161561386e565b505050506138549150612f69565b5060138352600186835f20541661399381612c8a565b1415613811565b505f905b6011918254811015613b4c576139b381612d0a565b90549060039160018060a01b0391831b1c1693845f526020946010865260ff90604092835f2054918360b893841c16158015613b2f575b613b1e576009545f5260168952845f20905f528852835f2094855490848216600b9081811015612bf05760081480613b07575b613a3b575b5050505050505050613a35919250612f69565b9061399e565b600592838782881c161015612bf05765ff000000000082549160901c169065ff00000000001916179055848754851c1691821015612bf05760028214918215613afd575b5050613ad3575b5091613ac4613a359697927ff8c7a5d3cd2a8403be768323a019b4cf26b9d75b1e6554fff259a3b1bc99e851946007549654901c1691518092612d5c565ba282915f808080808080613a22565b602d420190814211613aeb5750600c55613ac4613a86565b634e487b7160e01b5f5260045260245ffd5b1490505f80613a7f565b5085815460281c166005811015612bf05715613a1d565b505050505050613a35919250612f69565b5060138952600284865f205416613b4581612c8a565b14156139ea565b5090505f805b601154811015613e5857613b6581612d0a565b60018060a01b0391549060031b1c16805f52601060209080825260ff9260409184835f205460b81c1615613e4a57600980545f5260168552835f20835f52855285845f205416600b811015612bf057600590808203613d89575050825f52818552835f20549580613bdb8160b0998a1c16612ca1565b5416613bf65750505050505050613bf190612f69565b613b52565b919395975091939550806001978894865f528852865f2054901c1690613c1b82612ca1565b9160ff19928381541690555f9380821015955b613d0e575b505050505050907fcbdfb6b7e05d070a6444876281f9f3386a61cf40ece0023404ad6e792cde2952915f600754948351928352820152a25b613c73614252565b613ca55715613d0457600460ff196008541617600855613c9560045442612efb565b600a55601c545f601c5580613ca8575b50565b6003908082029082820403612ee757601c5f527f0e4562a10381dec21b205ed72637e6b1b523bdd0e4d4d50af5cd23dd4500a211908101905b818110613ced57505050565b805f8492555f60018201555f600282015501613ce1565b613d0c6140b4565b565b601754851015613d84578583613d2387612c51565b505460a01c1690612bf05781811015612bf0578a9583613d4d921480613d6d575b613d5357612f69565b94613c2e565b6002613d5e82612c51565b50018787825416179055612f69565b50846002613d7a83612c51565b5001541615613d44565b613c33565b9096949594929190600614613da9575b50505050505050613bf190612f69565b835f52601d968786528380885f2054169154841c16119182613e2d575b5050613dd3578080613d99565b90919294507f5c060751bfc1d36c13e431632d3d718cdf20937c9aa106e2daea35a08db3dd87939550600195825f528352845f2090815490613e16818316612ff4565b169060ff19161790556007549351908152a2613c6b565b85525f8690205460b01c83169150811015612bf057155f80613dc6565b5050505050613bf190612f69565b50613c6b565b5f80809181601154601b54905b80831061400557505050600b92607f845460011c1690159182613ffb575b505080613fe9575b15613fbb576001600160a01b03165f81815260136020526040908190205460ff908116937fafe99c8dcc3722fe8e66b7610981a2e3c4dd77f952510618cd23b2e34b2d5f58939190613ee286612c8a565b5f8381526010602052849020805460ff60b81b1916905580549180613f088185166140db565b169260ff19938085831617808555865f526013602052600284895f205416613f2f81612c8a565b03613f955750505062ff0000613f4b8354928360101c166140db565b60101b169062ff000019161790555b815f5260136020526003835f20918254161790556002600754948351928352146020820152a25b613f89614252565b613d0c57613d0c6140b4565b61ff00919293613fa89160081c166140db565b60081b169161ffff191617179055613f5a565b50506007547fcdc14c59d69f25c2c14122304ccc3491b39236f0dee9560608e353ebe04210265f80a2613f81565b506001600160a01b0381161515613e91565b1190505f80613e89565b91946140148695949295612d0a565b60018060a01b0391549060031b1c1693845f5260206010815260409060ff825f205460b81c16156140a457875f52601a8152815f2090875f52525f2054928084115f1461407057505050919261406a5f95612f69565b91613e6b565b8095508391969397929714908161409a575b50614091575b61406a90612f69565b60019550614088565b905015155f614082565b5050949193509461406a90612f69565b6140bf600954612f69565b600955600260ff19600854161760085561329160025442612efb565b60ff168015612ee7575f190190565b905f9160018060a01b031682526020906010825260ff61411281604086205460b01c16612cb8565b80549390855b8581106141285750505050505090565b818752838388208260051c015460f88360031b161c166009808710156141835781101561416f5785146141635761415e90612f69565b614118565b50505050505050600190565b634e487b7160e01b88526021600452602488fd5b634e487b7160e01b89526021600452602489fd5b6001600160a01b039182165f81815260106020526040812054909391929060b81c60ff161561424c57169081835260ff604084205460b01c1690835260ff604084205460b01c16906009821015614238576009811015614238570361423457600954908252601e60205260408220548103908111614220576006541161421d5750600190565b90565b634e487b7160e01b82526011600452602482fd5b5090565b634e487b7160e01b84526021600452602484fd5b50505090565b600b5460ff9081808260201c169160181c1610156142e05780600b5460101c16156142e057600b5481808260081c169160101c1610156142d757600b5460281c166005811015612bf057600281149081156142cc575b506142b1575f90565b600c544210156142bf575f90565b6142c7614349565b600190565b60039150145f6142a8565b506142c7614349565b506142c76008805460ff19166007179055600d805460ff60a01b1916600160a01b17905560115460015461431391612fe1565b7f23a981c64fcca643cfca5c0a1808d5ec0692fcc6aa4c11554d02964a4f372841604060075492815190600182526020820152a2565b6008805460ff19166007179055600d805460ff60a01b1916905560115460015461437291612fe1565b7f23a981c64fcca643cfca5c0a1808d5ec0692fcc6aa4c11554d02964a4f3728416040600754928151905f82526020820152a256fea2646970667358221220c31a83b9502df2d06a2430342dd4e42ebbfed0f52dd6c9f07e96372e4f9bbaca64736f6c63430008140033a26469706673582212207ec36b45eabe6ae0e53f4ae8a4cda73b1942f277952d25ada44fc893f5aa5e1f64736f6c6343000814003360808060405234610027575f80546001600160a01b0319163317905561139b908161002c8239f35b5f80fdfe6080806040526004361015610012575f80fd5b5f3560e01c9081632f80c54f14610e7757508063306b9bb914610bee5780633731a16f14610bd15780633cd2ff4b146108ba57806341296d2e146108975780634f085f421461087c5780636d763a6e146107fe57806377519b73146107e45780637c2b86dc146107c857806380fc9c0e1461078d5780638604e59614610671578063860e4ac6146105db578063914a1e76146105b0578063b1e29ea41461046a578063b5695b3814610280578063bf3683991461023e578063c3c5a547146101da578063c45a015514610217578063ee2574af146101da5763fd66091e146100f8575f80fd5b346101d65760203660031901126101d6576001600160a01b038061011a610f04565b165f52600160205260405f2090815416600182015491600281015460038201546004830154600584015460068501546007860154600887015491600988015493600a89015495600b8a015497600c8b015499600d8c01549b600e015460ff169c6040519e8f91825260208201526040015260608d015260808c015260a08b015260c08a015260e08901526101008801526101208701526101408601526101608501526101808401526101a083015215156101c08201526101e090f35b5f80fd5b346101d65760203660031901126101d6576001600160a01b036101fb610f04565b165f526003602052602060ff60405f2054166040519015158152f35b346101d6575f3660031901126101d6575f546040516001600160a01b039091168152602090f35b346101d65760203660031901126101d6576004356004548110156101d657610267602091610ecf565b905460405160039290921b1c6001600160a01b03168152f35b346101d65760203660031901126101d657610299610f04565b5f6101c06040516102a981610fa0565b8281528260208201528260408201528260608201528260808201528260a08201528260c08201528260e08201528261010082015282610120820152826101408201528261016082015282610180820152826101a0820152015260018060a01b03165f5260016020526101e060405f206101c060405161032781610fa0565b60ff600e60018060a01b038554169485845260018101546020850152600281015460408501526003810154606085015260048101546080850152600581015460a0850152600681015460c0850152600781015460e085015260088101546101008501526009810154610120850152600a810154610140850152600b810154610160850152600c810154610180850152600d8101546101a08501520154161515828201526040519283526020810151602084015260408101516040840152606081015160608401526080810151608084015260a081015160a084015260c081015160c084015260e081015160e08401526101008101516101008401526101208101516101208401526101408101516101408401526101608101516101608401526101808101516101808401526101a08101516101a0840152015115156101c0820152f35b346101d6576020806003193601126101d657600480549035818111156105a85750905b61049682611155565b906104a46040519283610fbd565b828252601f1990816104b585611155565b0136828501376104c484611155565b936104d26040519586610fbd565b8085526104de81611155565b85830193013684375f5b81811061054257505061050a9381604051958695604087526040870190610f29565b918583038287015251918281520192915f5b82811061052b57505050500390f35b83518552869550938101939281019260010161051c565b8061055361059f9297959697610ecf565b90546001600160a01b039160039190821b1c8216610571848b61116d565b5261057b83610ecf565b9054911b1c165f5260018452600b60405f200154610599828761116d565b52611022565b949392946104e8565b90509061048d565b346101d65760203660031901126101d65760206105d36105ce610f04565b61103d565b604051908152f35b346101d6575f3660031901126101d6576040518060025480825282602080930160025f527f405787fa12a823e0f2b7631cc41b3ba8828b3321ca811111fa75cd3aa3bb5ace925f5b858282106106525750505061063a92500383610fbd565b61064e604051928284938452830190610f29565b0390f35b85546001600160a01b0316845260019586019588955093019201610623565b346101d65760e03660031901126101d65761068a610f04565b610692610f1a565b9060443580151581036101d65760c4359182151583036101d6575f546001600160a01b0391906106c59083163314610f65565b16805f5260036020526106de60ff60405f205416610fdf565b5f52600160205260405f20925f1461075757600483016106fe8154611022565b9055600783016107116064358254611030565b9055610742575b6009820161072960a4358254611030565b905561073157005b600a0161073e8154611022565b9055005b600682016107508154611022565b9055610718565b600383016107658154611022565b9055600883016107786084358254611030565b90551561071857600582016107508154611022565b346101d65760203660031901126101d6576001600160a01b036107ae610f04565b165f5260016020526020600b60405f200154604051908152f35b346101d6575f3660031901126101d65760206040516103e88152f35b346101d6575f3660031901126101d6576020604051818152f35b346101d6575f3660031901126101d6576040518060045480825282602080930160045f527f8a35acfbc15ff81a39ae7d344fd709f28e8600b4aa8c65c6b64bfe7fe36bd19b925f5b8582821061085d5750505061063a92500383610fbd565b85546001600160a01b0316845260019586019588955093019201610846565b346101d6575f3660031901126101d657602060405160648152f35b346101d65760203660031901126101d65760206105d36108b5610f04565b611181565b346101d65760403660031901126101d6576108d3610f04565b6108db610f1a565b5f546001600160a01b0391906108f49083163314610f65565b81831692835f5260039260209184835261091460ff60405f205416610fdf565b855f52600191828452867f1c8efa8a20f831bf92a934bf3f6b2275338ba18b008fac6768925c20b481f1756040805f20978689016109528154611022565b90558042600d8b0155610bbc575b600b80990161097082825461120d565b8091558251911515825288820152a2865f528284528460405f200154955f19965f90600454915b828110610b8f575b5081975f5b838110610b4d575b50505050909192865f829697981215610ae5575b5050606486106109cc57005b60646004541015610ad8575b600454600160401b811015610ac45780856109f69201600455610ecf565b83825491841b1b191690556004545f198101908111610a7a575b868111610a8e57505050610a4690610a2785610ecf565b90919082549060031b9160018060a01b03809116831b921b1916179055565b8201809211610a7a577f24e225604268d6416871b32db1be8e49f497caf8360393b31d71a34a4ce2669391604051908152a2005b634e487b7160e01b5f52601160045260245ffd5b5f198101818111610a7a5783610aa6610ab692610ecf565b905490851b1c16610a2783610ecf565b8015610a7a575f1901610a10565b634e487b7160e01b5f52604160045260245ffd5b610ae0611324565b6109d8565b905b610afc575b50610af5611324565b83886109c0565b6004545f198101908111610a7a57811015610b4857848101808211610a7a578591610b3d85610b2d610b4294610ecf565b905490871b1c16610a2783610ecf565b611022565b90610ae7565b610aec565b85610b5782610ecf565b905490871b1c165f528789528160405f2001548311610b7e57610b7990611022565b6109a4565b98508692508b9150819050806109ac565b8a85610b9a83610ecf565b905490871b1c1614610bb457610baf90611022565b610997565b98508a61099f565b60028901610bca8154611022565b9055610960565b346101d6575f3660031901126101d6576020600254604051908152f35b346101d65760203660031901126101d657610c07610f04565b610c1b60018060a01b035f54163314610f65565b6001600160a01b0381165f9081526003602052604090205460ff16610e3d57604051610c4681610fa0565b60018060a01b03821681525f60208201525f60408201525f60608201525f60808201525f60a08201525f60c08201525f60e08201525f6101008201525f6101208201525f6101408201526103e8610160820152426101808201525f6101a082015260016101c082015260018060a01b0382165f5260016020526101c0600e60405f2060018060a01b038451166bffffffffffffffffffffffff60a01b8254161781556020840151600182015560408401516002820155606084015160038201556080840151600482015560a0840151600582015560c0840151600682015560e0840151600782015561010084015160088201556101208401516009820155610140840151600a820155610160840151600b820155610180840151600c8201556101a0840151600d8201550191015115159060ff199160ff838354169116179055600254600160401b811015610ac4576001810180600255811015610e29577f405787fa12a823e0f2b7631cc41b3ba8828b3321ca811111fa75cd3aa3bb5ace0180546001600160a01b0319166001600160a01b039390931692831790555f828152600360209081526040918290208054909316600117909255514281527fd1b844701695237443dd884ed7193d9c8788f3befd35adc0910472eb166f33069190a2005b634e487b7160e01b5f52603260045260245ffd5b60405162461bcd60e51b8152602060048201526012602482015271105b1c9958591e481c9959da5cdd195c995960721b6044820152606490fd5b346101d65760203660031901126101d657600435906002548210156101d65760025f527f405787fa12a823e0f2b7631cc41b3ba8828b3321ca811111fa75cd3aa3bb5ace909101546001600160a01b03168152602090f35b600454811015610e295760045f527f8a35acfbc15ff81a39ae7d344fd709f28e8600b4aa8c65c6b64bfe7fe36bd19b01905f90565b600435906001600160a01b03821682036101d657565b6024359081151582036101d657565b9081518082526020808093019301915f5b828110610f48575050505090565b83516001600160a01b031685529381019392810192600101610f3a565b15610f6c57565b60405162461bcd60e51b815260206004820152600c60248201526b4f6e6c7920666163746f727960a01b6044820152606490fd5b6101e0810190811067ffffffffffffffff821117610ac457604052565b90601f8019910116810190811067ffffffffffffffff821117610ac457604052565b15610fe657565b60405162461bcd60e51b81526020600482015260146024820152731059d95b9d081b9bdd081c9959da5cdd195c995960621b6044820152606490fd5b5f198114610a7a5760010190565b91908201809211610a7a57565b60018060a01b03805f92168252600160205260408220906040519061106182610fa0565b8254168152600182015460208201918183526101c060ff600e6002870154968760408601526003810154606086015260048101546080860152600581015460a0860152600681015460c0860152600781015460e086015260088101546101008601526009810154610120860152600a810154610140860152600b810154610160860152600c810154610180860152600d8101546101a0860152015416151591015215611150576127109182810292818404149015171561113c575191821561112857500490565b634e487b7160e01b81526012600452602490fd5b634e487b7160e01b83526011600452602483fd5b505090565b67ffffffffffffffff8111610ac45760051b60200190565b8051821015610e295760209160051b010190565b60048054915f5b83811061119757505050505f90565b6111a081610ecf565b905460039190911b1c6001600160a01b03908116908316146111ca576111c590611022565b611188565b80935060019150018092116111dd575090565b601190634e487b7160e01b5f525260245ffd5b91908203918211610a7a57565b600160ff1b8114610a7a575f0390565b6103e7198101600182821316610a7a5760089061019080821361131c575b5061018f19808212611314575b50059182603201928312600116610a7a578290606480941161130c575b5f9015611304575060ff835b5f929116818111156112c15761127792506111f0565b6001600160fb1b0381168103610a7a57829060051b04905b5f8213156112a4576112a19250611030565b90565b906112ae906111fd565b9080821015611150576112a192506111f0565b6112ca916111f0565b906001600160fb1b03821682036112f05750826112ea9160051b046111fd565b9061128f565b634e487b7160e01b81526011600452602490fd5b60ff90611261565b839150611255565b90505f611238565b90505f61122b565b6004548015611351575f190161133981610ecf565b81549060018060a01b039060031b1b19169055600455565b634e487b7160e01b5f52603160045260245ffdfea26469706673582212204707dc16e81b22cb11a0b091806a30fbeb1e0b26c31066c65980bfddd397e87464736f6c6343000814003360803461008157601f610ef638819003918201601f19168301916001600160401b038311848410176100855780849260409485528339810103126100815780516001600160a01b038116919082900361008157602001519060018060a01b031933815f5416175f556001541617600155600255604051610e5c908161009a8239f35b5f80fd5b634e487b7160e01b5f52604160045260245ffdfe6080604081815260049182361015610021575b505050361561001f575f80fd5b005b5f92833560e01c9182630633ac5914610c42575081634690484014610c19578163470762e914610be15781634d0ed9da14610b5c5781634fd66eae14610b8357816353a58de11461080f5781635556603614610b5c5781636e553f6514610a2157816370180bc1146109e9578163785ecb37146109bc5781637ad226dc146108895781638b8840e0146108515781639f489e4e1461080f578163a001ecdd146107f0578163ae06c1b714610783578163bad0cf9c1461062e578163c424a682146101bf57508063c45a015514610198578063e74b981b146101465763f416a09f1461010c5780610012565b346101425760203660031901126101425760209181906001600160a01b03610132610c70565b1681526009845220549051908152f35b5080fd5b823461019557602036600319011261019557610160610c70565b81546001600160a01b0391906101799083163314610ca0565b166bffffffffffffffffffffffff60a01b600154161760015580f35b80fd5b5034610142578160031936011261014257905490516001600160a01b039091168152602090f35b9190503461062a578060031936011261062a578135906101dd610c8a565b845490926001600160a01b03916101f79083163314610ca0565b80865260058260209582875261021360ff878b20541615610dc8565b168451631810bd9960e31b815286818981855afa9081156105b35789916105f1575b50156105bd57828852818652848820805460ff1916600190811790915585516311c5fe5f60e21b815294939291899086908a9082905afa9485156105b35789956104ed575b5082895287875285892054926102a061271061029860025487610e13565b048095610d0a565b93801515806104e1575b61045f575b508551801580156102be578b80f35b61044c578404928a835b61037e575b50505050906102e16102e792855190610e13565b90610d0a565b9182151580610374575b6102ff575b80808080808b80f35b8051156103615786809381938783940151165af161031b610d4d565b5015610329578080806102f6565b5162461bcd60e51b8152918201526014602482015273111d5cdd081d1c985b9cd9995c8819985a5b195960621b604482015260649150fd5b634e487b7160e01b875260328652602487fd5b50805115156102f1565b875181101561044757868a82841b8a01015116808d5260068b52898d206103a6878254610cdb565b9055808d5260098b52898d206103bc8154610cfc565b90558c80808089855af16103ce610d4d565b501561040d579061040791847fd045461de0c2674bd3b698dce4742980fb0a158169b17eba4c9362fd80855c918d8d518a8152a3610cfc565b836102c8565b895162461bcd60e51b8152808d018c9052601460248201527315da5b9b995c881c185e5bdd5d0819985a5b195960621b6044820152606490fd5b6102cd565b634e487b7160e01b8b5260128a5260248bfd5b8a808080848a8854165af1610472610d4d565b50156104a8577faf7c505ee772ec188af7067e1f73db08ab028e3d564273442b907742b9c41fa08983928a51908152a25f6102af565b875162461bcd60e51b8152808b018a90526013602482015272119959481d1c985b9cd9995c8819985a5b1959606a1b6044820152606490fd5b508583541615156102aa565b9094503d808a833e6104ff8183610d17565b81016060828203126105af5761051482610e06565b508782015167ffffffffffffffff92838211610594570181601f820112156105ab5780519283116105985782841b908851936105528b840186610d17565b84528980850192820101928311610594578901905b82821061057857505050935f61027a565b81518781168103610590578152908901908901610567565b8c80fd5b8b80fd5b634e487b7160e01b8b5260418a5260248bfd5b8a80fd5b8980fd5b86513d8b823e3d90fd5b845162461bcd60e51b8152808801879052600e60248201526d11d85b59481b9bdd08195b99195960921b6044820152606490fd5b90508681813d8311610623575b6106088183610d17565b8101031261061f5761061990610e06565b5f610235565b8880fd5b503d6105fe565b8280fd5b9190503461062a578060031936011261062a578135602480359067ffffffffffffffff9485831161077b573660238401121561077b5782013594851161077f57600590368187841b8501011161077b5786546001600160a01b0393906106979085163314610ca0565b8488526020928084526106b060ff888b20541615610dc8565b858952808452868920805460ff19166001179055885b8881106106d1578980f35b8381831b84010135908682168b8184036101955761071693888c838d809552600390818452828120878252845282812054928361071b575b5050505050505050610cfc565b6106c6565b8180857f7a482fdeb6bc9a1376f597068a214a7a39472bb2eff1b8cad21ba04f49ddca1b98828095610768988d83528b528d8183209083528b528120555af1610762610d4d565b50610d8c565b8d51908152a35f888188818f808f610709565b8680fd5b8580fd5b90503461062a57602036600319011261062a578035916107ad60018060a01b038554163314610ca0565b6103e883116107be57505060025580f35b906020606492519162461bcd60e51b8352820152600c60248201526b08ccaca40e8dede40d0d2ced60a31b6044820152fd5b5050346101425781600319360112610142576020906002549051908152f35b90503461062a578160031936011261062a57602092829161082e610c8a565b90358252600385528282206001600160a01b039091168252845220549051908152f35b5050346101425760203660031901126101425760209181906001600160a01b03610879610c70565b1681526006845220549051908152f35b83833461014257806003193601126101425782356108a5610c8a565b83546001600160a01b039391906108bf9085163314610ca0565b828552602091600383528086209482169485875283528086205491821561098c578487526003845281872086885284528682812055848752878452818720610908848254610d0a565b90558587526007845281872061091f848254610d0a565b9055858752600884528187208054801561097957888080877f7a482fdeb6bc9a1376f597068a214a7a39472bb2eff1b8cad21ba04f49ddca1b999897966109719683965f190190555af1610762610d4d565b51908152a380f35b634e487b7160e01b895260118a52602489fd5b815162461bcd60e51b8152808901859052600a602482015269139bc819195c1bdcda5d60b21b6044820152606490fd5b90503461062a57602036600319011261062a578160209360ff923581526005855220541690519015158152f35b5050346101425760203660031901126101425760209181906001600160a01b03610a11610c70565b1681526008845220549051908152f35b90508160031936011261062a57803590610a39610c8a565b9260018060a01b0391610a50838754163314610ca0565b3415610b2a5783865260209260038452828720951694858752835281862054610af557907f1599c0fcf897af5babc2bfcf707f5dc050f841b044d97c3251ecec35b9abf80b929184875260038352818720868852835234828820558487528252808620610abe348254610cdb565b905584865260078252808620610ad5348254610cdb565b905584865260088252808620610aeb8154610cfc565b905551348152a380f35b82606492519162461bcd60e51b83528201526011602482015270105b1c9958591e4819195c1bdcda5d1959607a1b6044820152fd5b6020606492519162461bcd60e51b8352820152600d60248201526c139bc81d985b1d59481cd95b9d609a1b6044820152fd5b90503461062a57602036600319011261062a57602092818392358252845220549051908152f35b5050346101425760208060031936011261062a576080926001600160a01b03610baa610c70565b1681526007825282812054926006835280822054600884528180842054936009865220549382519586528501528301526060820152f35b5050346101425760203660031901126101425760209181906001600160a01b03610c09610c70565b1681526007845220549051908152f35b50503461014257816003193601126101425760015490516001600160a01b039091168152602090f35b92915034610c6c576020366003190112610c6c573583526005602090815292205460ff1615158152f35b8380fd5b600435906001600160a01b0382168203610c8657565b5f80fd5b602435906001600160a01b0382168203610c8657565b15610ca757565b60405162461bcd60e51b815260206004820152600c60248201526b4f6e6c7920666163746f727960a01b6044820152606490fd5b91908201809211610ce857565b634e487b7160e01b5f52601160045260245ffd5b5f198114610ce85760010190565b91908203918211610ce857565b90601f8019910116810190811067ffffffffffffffff821117610d3957604052565b634e487b7160e01b5f52604160045260245ffd5b3d15610d87573d9067ffffffffffffffff8211610d395760405191610d7c601f8201601f191660200184610d17565b82523d5f602084013e565b606090565b15610d9357565b60405162461bcd60e51b815260206004820152600d60248201526c1499599d5b990819985a5b1959609a1b6044820152606490fd5b15610dcf57565b60405162461bcd60e51b815260206004820152600f60248201526e105b1c9958591e481cd95d1d1b1959608a1b6044820152606490fd5b51908115158203610c8657565b81810292918115918404141715610ce85756fea264697066735822122055f7a5f707469f8c4f2569d901ccba34ff179d8f7333dd50784f5170bcab20ef64736f6c63430008140033","linkReferences":{}},"methodIdentifiers":{"activeGameIds(uint256)":"8ee67472","activeGameIndex(uint256)":"3dccf6a9","agentRegistry()":"0d1cfcae","cancelGame(uint256)":"69958ab9","createGame()":"7255d729","createGameWithConfig((uint8,uint8,uint8,uint256,uint256,uint256,uint256,uint8,bool,uint8,uint256))":"7f9d2f56","defaultConfig()":"9e09ed5f","gameConfigs(uint256)":"2b333a47","gameCount()":"4d1975b4","games(uint256)":"117a5b90","getActiveGameCount()":"1894c756","getActiveGames()":"1b76929c","getAgentRegistry()":"91cae372","getAvailableGames()":"40a9eeff","getGameDetails(uint256)":"1b31abda","getWagerVault()":"3351de64","isActiveGame(uint256)":"4802fe10","joinGame(uint256,uint8)":"ca6649c5","leaveGame(uint256)":"3feef58a","owner()":"8da5cb5b","setDefaultConfig((uint8,uint8,uint8,uint256,uint256,uint256,uint256,uint8,bool,uint8,uint256))":"b5c1f02c","setFeeSettings(address,uint256)":"e34dfd9d","settleGame(uint256)":"312d7bbc","transferOwnership(address)":"f2fde38b","wagerVault()":"84df5d84"},"id":21}