{"abi":[{"type":"constructor","inputs":[{"name":"_gameId","type":"uint256","internalType":"uint256"},{"name":"_creator","type":"address","internalType":"address"},{"name":"_wagerVault","type":"address","internalType":"address"},{"name":"_config","type":"tuple","internalType":"struct GameConfig","components":[{"name":"minPlayers","type":"uint8","internalType":"uint8"},{"name":"maxPlayers","type":"uint8","internalType":"uint8"},{"name":"numImpostors","type":"uint8","internalType":"uint8"},{"name":"wagerAmount","type":"uint256","internalType":"uint256"},{"name":"actionTimeout","type":"uint256","internalType":"uint256"},{"name":"voteTimeout","type":"uint256","internalType":"uint256"},{"name":"discussionTime","type":"uint256","internalType":"uint256"},{"name":"tasksPerPlayer","type":"uint8","internalType":"uint8"},{"name":"visualTasks","type":"bool","internalType":"bool"},{"name":"emergencyMeetings","type":"uint8","internalType":"uint8"},{"name":"killCooldown","type":"uint256","internalType":"uint256"}]}],"stateMutability":"nonpayable"},{"type":"function","name":"advancePhase","inputs":[],"outputs":[],"stateMutability":"nonpayable"},{"type":"function","name":"commitAction","inputs":[{"name":"_hash","type":"bytes32","internalType":"bytes32"}],"outputs":[],"stateMutability":"nonpayable"},{"type":"function","name":"commitments","inputs":[{"name":"","type":"uint256","internalType":"uint256"},{"name":"","type":"address","internalType":"address"}],"outputs":[{"name":"hash","type":"bytes32","internalType":"bytes32"},{"name":"timestamp","type":"uint256","internalType":"uint256"},{"name":"revealed","type":"bool","internalType":"bool"}],"stateMutability":"view"},{"type":"function","name":"config","inputs":[],"outputs":[{"name":"minPlayers","type":"uint8","internalType":"uint8"},{"name":"maxPlayers","type":"uint8","internalType":"uint8"},{"name":"numImpostors","type":"uint8","internalType":"uint8"},{"name":"wagerAmount","type":"uint256","internalType":"uint256"},{"name":"actionTimeout","type":"uint256","internalType":"uint256"},{"name":"voteTimeout","type":"uint256","internalType":"uint256"},{"name":"discussionTime","type":"uint256","internalType":"uint256"},{"name":"tasksPerPlayer","type":"uint8","internalType":"uint8"},{"name":"visualTasks","type":"bool","internalType":"bool"},{"name":"emergencyMeetings","type":"uint8","internalType":"uint8"},{"name":"killCooldown","type":"uint256","internalType":"uint256"}],"stateMutability":"view"},{"type":"function","name":"currentVoteRound","inputs":[],"outputs":[{"name":"","type":"uint256","internalType":"uint256"}],"stateMutability":"view"},{"type":"function","name":"deadBodies","inputs":[{"name":"","type":"uint256","internalType":"uint256"}],"outputs":[{"name":"victim","type":"address","internalType":"address"},{"name":"location","type":"uint8","internalType":"enum Location"},{"name":"round","type":"uint256","internalType":"uint256"},{"name":"reported","type":"bool","internalType":"bool"}],"stateMutability":"view"},{"type":"function","name":"emergencyMeetingsUsed","inputs":[{"name":"","type":"address","internalType":"address"}],"outputs":[{"name":"","type":"uint8","internalType":"uint8"}],"stateMutability":"view"},{"type":"function","name":"factory","inputs":[],"outputs":[{"name":"","type":"address","internalType":"address"}],"stateMutability":"view"},{"type":"function","name":"getAdjacentRooms","inputs":[{"name":"_location","type":"uint8","internalType":"enum Location"}],"outputs":[{"name":"","type":"uint8[]","internalType":"enum Location[]"}],"stateMutability":"view"},{"type":"function","name":"getAllPlayers","inputs":[],"outputs":[{"name":"","type":"address[]","internalType":"address[]"}],"stateMutability":"view"},{"type":"function","name":"getDeadBodies","inputs":[],"outputs":[{"name":"","type":"tuple[]","internalType":"struct DeadBody[]","components":[{"name":"victim","type":"address","internalType":"address"},{"name":"location","type":"uint8","internalType":"enum Location"},{"name":"round","type":"uint256","internalType":"uint256"},{"name":"reported","type":"bool","internalType":"bool"}]}],"stateMutability":"view"},{"type":"function","name":"getImpostors","inputs":[],"outputs":[{"name":"","type":"address[]","internalType":"address[]"}],"stateMutability":"view"},{"type":"function","name":"getMessages","inputs":[],"outputs":[{"name":"","type":"tuple[]","internalType":"struct DiscussionMessage[]","components":[{"name":"sender","type":"address","internalType":"address"},{"name":"msgType","type":"uint8","internalType":"enum MessageType"},{"name":"target","type":"address","internalType":"address"},{"name":"reason","type":"uint8","internalType":"enum AccuseReason"},{"name":"location","type":"uint8","internalType":"enum Location"},{"name":"timestamp","type":"uint256","internalType":"uint256"}]}],"stateMutability":"view"},{"type":"function","name":"getMyRole","inputs":[],"outputs":[{"name":"","type":"uint8","internalType":"enum Role"}],"stateMutability":"view"},{"type":"function","name":"getPlayerCount","inputs":[],"outputs":[{"name":"","type":"uint256","internalType":"uint256"}],"stateMutability":"view"},{"type":"function","name":"getPlayersAtLocation","inputs":[{"name":"_location","type":"uint8","internalType":"enum Location"}],"outputs":[{"name":"","type":"address[]","internalType":"address[]"}],"stateMutability":"view"},{"type":"function","name":"getResults","inputs":[],"outputs":[{"name":"crewmatesWon","type":"bool","internalType":"bool"},{"name":"winners","type":"address[]","internalType":"address[]"},{"name":"prizePool","type":"uint256","internalType":"uint256"}],"stateMutability":"view"},{"type":"function","name":"hasBodyAt","inputs":[{"name":"","type":"uint8","internalType":"enum Location"}],"outputs":[{"name":"","type":"bool","internalType":"bool"}],"stateMutability":"view"},{"type":"function","name":"isGameEnded","inputs":[],"outputs":[{"name":"","type":"bool","internalType":"bool"}],"stateMutability":"view"},{"type":"function","name":"isPlayer","inputs":[{"name":"","type":"address","internalType":"address"}],"outputs":[{"name":"","type":"bool","internalType":"bool"}],"stateMutability":"view"},{"type":"function","name":"joinGame","inputs":[{"name":"_player","type":"address","internalType":"address"},{"name":"_colorId","type":"uint8","internalType":"uint8"}],"outputs":[],"stateMutability":"nonpayable"},{"type":"function","name":"lastKillRound","inputs":[{"name":"","type":"address","internalType":"address"}],"outputs":[{"name":"","type":"uint256","internalType":"uint256"}],"stateMutability":"view"},{"type":"function","name":"leaveGame","inputs":[],"outputs":[],"stateMutability":"nonpayable"},{"type":"function","name":"leaveGameFor","inputs":[{"name":"_player","type":"address","internalType":"address"}],"outputs":[],"stateMutability":"nonpayable"},{"type":"function","name":"messages","inputs":[{"name":"","type":"uint256","internalType":"uint256"}],"outputs":[{"name":"sender","type":"address","internalType":"address"},{"name":"msgType","type":"uint8","internalType":"enum MessageType"},{"name":"target","type":"address","internalType":"address"},{"name":"reason","type":"uint8","internalType":"enum AccuseReason"},{"name":"location","type":"uint8","internalType":"enum Location"},{"name":"timestamp","type":"uint256","internalType":"uint256"}],"stateMutability":"view"},{"type":"function","name":"playerAddresses","inputs":[{"name":"","type":"uint256","internalType":"uint256"}],"outputs":[{"name":"","type":"address","internalType":"address"}],"stateMutability":"view"},{"type":"function","name":"players","inputs":[{"name":"","type":"address","internalType":"address"}],"outputs":[{"name":"addr","type":"address","internalType":"address"},{"name":"colorId","type":"uint8","internalType":"uint8"},{"name":"role","type":"uint8","internalType":"enum Role"},{"name":"location","type":"uint8","internalType":"enum Location"},{"name":"isAlive","type":"bool","internalType":"bool"},{"name":"tasksCompleted","type":"uint8","internalType":"uint8"},{"name":"totalTasks","type":"uint8","internalType":"uint8"},{"name":"wagerAmount","type":"uint256","internalType":"uint256"},{"name":"hasVoted","type":"bool","internalType":"bool"},{"name":"lastActionRound","type":"uint256","internalType":"uint256"}],"stateMutability":"view"},{"type":"function","name":"revealAction","inputs":[{"name":"_actionType","type":"uint8","internalType":"enum ActionType"},{"name":"_target","type":"address","internalType":"address"},{"name":"_destination","type":"uint8","internalType":"enum Location"},{"name":"_taskId","type":"uint8","internalType":"uint8"},{"name":"_sabotage","type":"uint8","internalType":"enum SabotageType"},{"name":"_salt","type":"bytes32","internalType":"bytes32"}],"outputs":[],"stateMutability":"nonpayable"},{"type":"function","name":"revealedActions","inputs":[{"name":"","type":"uint256","internalType":"uint256"},{"name":"","type":"address","internalType":"address"}],"outputs":[{"name":"actionType","type":"uint8","internalType":"enum ActionType"},{"name":"target","type":"address","internalType":"address"},{"name":"destination","type":"uint8","internalType":"enum Location"},{"name":"taskId","type":"uint8","internalType":"uint8"},{"name":"sabotage","type":"uint8","internalType":"enum SabotageType"}],"stateMutability":"view"},{"type":"function","name":"startGame","inputs":[],"outputs":[],"stateMutability":"nonpayable"},{"type":"function","name":"state","inputs":[],"outputs":[{"name":"gameId","type":"uint256","internalType":"uint256"},{"name":"phase","type":"uint8","internalType":"enum GamePhase"},{"name":"round","type":"uint256","internalType":"uint256"},{"name":"phaseEndTime","type":"uint256","internalType":"uint256"},{"name":"alivePlayers","type":"uint8","internalType":"uint8"},{"name":"aliveCrewmates","type":"uint8","internalType":"uint8"},{"name":"aliveImpostors","type":"uint8","internalType":"uint8"},{"name":"totalTasksCompleted","type":"uint8","internalType":"uint8"},{"name":"totalTasksRequired","type":"uint8","internalType":"uint8"},{"name":"activeSabotage","type":"uint8","internalType":"enum SabotageType"},{"name":"sabotageEndTime","type":"uint256","internalType":"uint256"},{"name":"winner","type":"address","internalType":"address"},{"name":"crewmatesWon","type":"bool","internalType":"bool"}],"stateMutability":"view"},{"type":"function","name":"submitMessage","inputs":[{"name":"_msgType","type":"uint8","internalType":"enum MessageType"},{"name":"_target","type":"address","internalType":"address"},{"name":"_reason","type":"uint8","internalType":"enum AccuseReason"},{"name":"_location","type":"uint8","internalType":"enum Location"}],"outputs":[],"stateMutability":"nonpayable"},{"type":"function","name":"submitVote","inputs":[{"name":"_suspect","type":"address","internalType":"address"}],"outputs":[],"stateMutability":"nonpayable"},{"type":"function","name":"taskCompleted","inputs":[{"name":"","type":"address","internalType":"address"},{"name":"","type":"uint8","internalType":"uint8"}],"outputs":[{"name":"","type":"bool","internalType":"bool"}],"stateMutability":"view"},{"type":"function","name":"voteCount","inputs":[{"name":"","type":"uint256","internalType":"uint256"},{"name":"","type":"address","internalType":"address"}],"outputs":[{"name":"","type":"uint256","internalType":"uint256"}],"stateMutability":"view"},{"type":"function","name":"votes","inputs":[{"name":"","type":"uint256","internalType":"uint256"},{"name":"","type":"address","internalType":"address"}],"outputs":[{"name":"voter","type":"address","internalType":"address"},{"name":"suspect","type":"address","internalType":"address"},{"name":"timestamp","type":"uint256","internalType":"uint256"}],"stateMutability":"view"},{"type":"function","name":"wagerVault","inputs":[],"outputs":[{"name":"","type":"address","internalType":"address"}],"stateMutability":"view"},{"type":"event","name":"ActionCommitted","inputs":[{"name":"gameId","type":"uint256","indexed":true,"internalType":"uint256"},{"name":"player","type":"address","indexed":false,"internalType":"address"},{"name":"round","type":"uint256","indexed":false,"internalType":"uint256"}],"anonymous":false},{"type":"event","name":"ActionRevealed","inputs":[{"name":"gameId","type":"uint256","indexed":true,"internalType":"uint256"},{"name":"player","type":"address","indexed":false,"internalType":"address"},{"name":"actionType","type":"uint8","indexed":false,"internalType":"enum ActionType"}],"anonymous":false},{"type":"event","name":"BodyReported","inputs":[{"name":"gameId","type":"uint256","indexed":true,"internalType":"uint256"},{"name":"reporter","type":"address","indexed":false,"internalType":"address"},{"name":"victim","type":"address","indexed":false,"internalType":"address"}],"anonymous":false},{"type":"event","name":"GameCreated","inputs":[{"name":"gameId","type":"uint256","indexed":true,"internalType":"uint256"},{"name":"creator","type":"address","indexed":false,"internalType":"address"},{"name":"wagerAmount","type":"uint256","indexed":false,"internalType":"uint256"}],"anonymous":false},{"type":"event","name":"GameEnded","inputs":[{"name":"gameId","type":"uint256","indexed":true,"internalType":"uint256"},{"name":"crewmatesWon","type":"bool","indexed":false,"internalType":"bool"},{"name":"prizePool","type":"uint256","indexed":false,"internalType":"uint256"}],"anonymous":false},{"type":"event","name":"GameStarted","inputs":[{"name":"gameId","type":"uint256","indexed":true,"internalType":"uint256"},{"name":"timestamp","type":"uint256","indexed":false,"internalType":"uint256"}],"anonymous":false},{"type":"event","name":"MeetingCalled","inputs":[{"name":"gameId","type":"uint256","indexed":true,"internalType":"uint256"},{"name":"caller","type":"address","indexed":false,"internalType":"address"}],"anonymous":false},{"type":"event","name":"NoOneEjected","inputs":[{"name":"gameId","type":"uint256","indexed":true,"internalType":"uint256"}],"anonymous":false},{"type":"event","name":"PlayerEjected","inputs":[{"name":"gameId","type":"uint256","indexed":true,"internalType":"uint256"},{"name":"player","type":"address","indexed":false,"internalType":"address"},{"name":"wasImpostor","type":"bool","indexed":false,"internalType":"bool"}],"anonymous":false},{"type":"event","name":"PlayerJoined","inputs":[{"name":"gameId","type":"uint256","indexed":true,"internalType":"uint256"},{"name":"player","type":"address","indexed":false,"internalType":"address"},{"name":"colorId","type":"uint8","indexed":false,"internalType":"uint8"}],"anonymous":false},{"type":"event","name":"PlayerKilled","inputs":[{"name":"gameId","type":"uint256","indexed":true,"internalType":"uint256"},{"name":"victim","type":"address","indexed":false,"internalType":"address"},{"name":"location","type":"uint8","indexed":false,"internalType":"enum Location"}],"anonymous":false},{"type":"event","name":"PlayerLeft","inputs":[{"name":"gameId","type":"uint256","indexed":true,"internalType":"uint256"},{"name":"player","type":"address","indexed":false,"internalType":"address"}],"anonymous":false},{"type":"event","name":"RolesAssigned","inputs":[{"name":"gameId","type":"uint256","indexed":true,"internalType":"uint256"}],"anonymous":false},{"type":"event","name":"SabotageFixed","inputs":[{"name":"gameId","type":"uint256","indexed":true,"internalType":"uint256"},{"name":"sabotageType","type":"uint8","indexed":false,"internalType":"enum SabotageType"}],"anonymous":false},{"type":"event","name":"SabotageStarted","inputs":[{"name":"gameId","type":"uint256","indexed":true,"internalType":"uint256"},{"name":"sabotageType","type":"uint8","indexed":false,"internalType":"enum SabotageType"}],"anonymous":false},{"type":"event","name":"TaskCompleted","inputs":[{"name":"gameId","type":"uint256","indexed":true,"internalType":"uint256"},{"name":"player","type":"address","indexed":false,"internalType":"address"},{"name":"taskId","type":"uint8","indexed":false,"internalType":"uint8"}],"anonymous":false},{"type":"event","name":"VoteCast","inputs":[{"name":"gameId","type":"uint256","indexed":true,"internalType":"uint256"},{"name":"voter","type":"address","indexed":false,"internalType":"address"}],"anonymous":false},{"type":"event","name":"WagerDeposited","inputs":[{"name":"gameId","type":"uint256","indexed":true,"internalType":"uint256"},{"name":"player","type":"address","indexed":false,"internalType":"address"},{"name":"amount","type":"uint256","indexed":false,"internalType":"uint256"}],"anonymous":false},{"type":"event","name":"WinningsDistributed","inputs":[{"name":"gameId","type":"uint256","indexed":true,"internalType":"uint256"},{"name":"player","type":"address","indexed":false,"internalType":"address"},{"name":"amount","type":"uint256","indexed":false,"internalType":"uint256"}],"anonymous":false}],"bytecode":{"object":"0x6101003462000478576001600160401b039062004b3038819003601f8101601f19168301848111848210176200047c578392829160405283398101036101c0811262000478578151926020906200005882850162000490565b60e052620000696040850162000490565b60c0526101608093605f190112620004785760405160a0819052838101918211908210176200047c57604052620000a360608401620004a5565b8060a05152620000b660808501620004a5565b90818360a0510152620000cc60a08601620004a5565b9384604060a05101528560c081015193606060a051019480865260e08301519081608060a05101526101009182850151908160a0805101526101209283870151988960c060a051015261014098620001268a8a01620004a5565b988960e060a05101520151968715158803620004785761ff007f7dfb67e9ff596fca4da65c7eedb128cd1aac553af54b3c0cb733625a2480d8bd9f9e60409f6101a0908b849b60a0510152620001806101808201620004a5565b809a60a05101520151809c60a051015260018060a01b03193381600e541617600e5560018060a01b038060805260c0511690600f541617600f5560ff62ff00005f549260101b1694169062ffffff1916179160081b1617175f55600155600255600355600495865560ff62ff00006005549260101b1694169062ffffff19161791151560081b16171760055560065560079086825560ff199182600854166008555f6009555f805284805262000238865f20620004b4565b5f80528480526200024b865f2062000511565b5f80528480526200025e865f206200055a565b60015f5284805262000272865f20620005a3565b60015f5284805262000286865f20620005e5565b60025f528480526200029a865f20620004b4565b60025f52848052620002ae865f206200062e565b60025f52848052620002c2865f2062000677565b60035f52848052620002d6865f20620005e5565b60035f52848052620002ea865f2062000677565b815f52848052620002fd865f20620005a3565b815f5284805262000310865f206200055a565b815f5284805262000323865f20620006c0565b60055f5284805262000337865f20620005a3565b60055f528480526200034b865f2062000511565b60055f528480526200035f865f2062000709565b60065f5284805262000373865f20620005e5565b60065f5284805262000387865f206200062e565b60065f528480526200039b865f20620006c0565b805f52848052620003ae865f2062000511565b805f52848052620003c1865f2062000677565b805f52848052620003d4865f2062000709565b60085f52848052620003e8865f206200055a565b60085f52848052620003fc865f20620006c0565b60085f5260218552855f2081848254161790555f52845f20600883825416179055805f52845f2060038382541617905560035f52845f2090828254161790555f8052835f2060018282541617905560015f52835f209081541690555182519160805160e051168352820152a26040516143dd9081620007538239f35b5f80fd5b634e487b7160e01b5f52604160045260245ffd5b51906001600160a01b03821682036200047857565b519060ff821682036200047857565b805490680100000000000000008210156200047c5760018201808255821015620004fd575f5260205f208160051c019060f882549160031b169060ff6001831b921b1916179055565b634e487b7160e01b5f52603260045260245ffd5b805490680100000000000000008210156200047c5760018201808255821015620004fd575f5260205f208160051c019060f882549160031b169060ff6004831b921b1916179055565b805490680100000000000000008210156200047c5760018201808255821015620004fd575f5260205f208160051c019060f882549160031b169060ff6005831b921b1916179055565b805490680100000000000000008210156200047c5760018201808255821015620004fd575f5260205f208160051c019060ff60f883549260031b161b19169055565b805490680100000000000000008210156200047c5760018201808255821015620004fd575f5260205f208160051c019060f882549160031b169060ff6002831b921b1916179055565b805490680100000000000000008210156200047c5760018201808255821015620004fd575f5260205f208160051c019060f882549160031b169060ff6003831b921b1916179055565b805490680100000000000000008210156200047c5760018201808255821015620004fd575f5260205f208160051c019060f882549160031b169060ff6006831b921b1916179055565b805490680100000000000000008210156200047c5760018201808255821015620004fd575f5260205f208160051c019060f882549160031b169060ff6007831b921b1916179055565b805490680100000000000000008210156200047c5760018201808255821015620004fd575f5260205f208160051c019060f882549160031b169060ff6008831b921b191617905556fe6080604081815260049081361015610015575f80fd5b5f9260e08435811c918263046e3cde14612b7e5750816309c95e1014612b405781630a5f0da214612a145781630d80fefd146129815781631022fe0514612949578163106599d61461285e57816315c6aee21461281c578163183ea8e6146127655781631b689ad0146127465781631e8263a01461270a5781632a4b0776146126bb57816334113f361461264f5781634717f97c1461241e5781634e2406c614611c245781635ff6cbf314611aad578163669ead1714611a255781636855d496146116f85781636e3b47fc146116b157816374545c7b1461166e57816379502c55146115e45781637bc27dac146113be57816384df5d841461139557816395fd62191461119a578163b1501f9c1461110a578163bb61ce9b14610faa578163be25a71814610e76578163c085ecc814610e33578163c19d93fb14610d5a578163c2e5220614610d3b578163c45a015514610d12578163d0a572b4146109b8578163d23254b41461095d578163d65ab5f214610555578163e2eb41ff1461049d57508063e90d4c061461043f578063efa1c482146103a65763f6d42995146101ba575f80fd5b346103a2576020918260031936011261039e57803560099485821015908161039b576011549281805b8581106102ed57506101f490612f9b565b9782805b8681106102155788518a815280610211818d018e612cce565b0390f35b61021e81612d0a565b9054600391821b1c6001600160a01b0390811684526010808d528b85205491929160ff919060b01c82168a6102da57878110156102da578f949392908914918f836102b2575b50505061027d575b50505061027890612f69565b6101f8565b916102a1888599936102a79561029561027898612d0a565b9054911b1c1692612fcd565b52612f69565b9490508a5f8061026c565b90919250846102c088612d0a565b905490861b1c168852528c86205460b81c165f808f610264565b634e487b7160e01b875260218d52602487fd5b6102f681612d0a565b9054600391821b1c6001600160a01b0390811686526010808c528a87205460ff929060b01c831689610388578e811015610388578714938461035f575b5050505061034a575b61034590612f69565b6101e3565b9061035761034591612f69565b91905061033c565b909192935061036d85612d0a565b9054911b1c1686528a528885205460b81c165f808080610333565b634e487b7160e01b895260218c52602489fd5b80fd5b8380fd5b8280fd5b83823461043b578160031936011261043b5780519081809360115490818552602080950191601182527f31ecc21a745e3968a04e9570e4425bc18fa8019c68028196b546d1669c200c68915b8682821061041b5785906102118861040c84890385612e0c565b51928284938452830190612cce565b83546001600160a01b0316855288955090930192600192830192016103f2565b5080fd5b5090346103a257816003193601126103a257606092829161045e612bcd565b9035825260156020528282209060018060a01b03168252602052209081549160ff60026001830154920154169082519384526020840152151590820152f35b84833461043b57602036600319011261043b57610140926001600160a01b03928290846104c8612bb3565b1681526010602052209081549060ff808360a81c16926001850154936003836002880154169601549680519883168952838360a01c1660208a015261050c82612c8a565b88015261052160608801838360b01c16612be3565b818160b81c1615156080880152818160c01c1660a088015260c81c1660c08601528401521515610100830152610120820152f35b8385843461043b578160031936011261043b5733825260129060209180835260ff94610585868487205416612e5e565b6008908154908782168381101561094a576105a09015612e99565b6011908154898954168110610914578960019687928360ff1980981617885589518b810190428252448c820152826060820152606081526105e081612da4565b519020908c80919481965b61076c575b8b965094509250849150505b6106e8575b50809150835416600b549362ff000061ff006106248d54958660101c1685612ed3565b891b169316938c600554168d868562ffffff198a16178717178a1c1602809d8116036106d857505064ff00000000899a9b60029798999a1b169364ff00ffffff191617171717600b5582541617905560095561068260025442612efb565b600a557fa2dfaa3573b86004ec9d4d4abe5068d942579c59da4da8cd0d9e45e71a393bc160075492839251428152a27fb607ccb3d7ced88cd923d2c5f091149c8ecc5fb24209afa25a43ddf94253801d8280a280f35b634e487b7160e01b8c525260248afd5b898b8a8754841015610764576107369461070185612d0a565b92909360018060a01b03809554600395861b1c168152601380965220541661072881612c8a565b1561073e575b505050612f69565b8a90826105fc565b61074784612d0a565b9054911b1c168c528a52888b2083878254161790558c808061072e565b505050610601565b885487109182610901575b5050156108fa578a518c810190838252868d8201528c815261079881612df0565b51902084156108e857908c8f8f879695948f92988f9a996107bf8782865460101c16612ed3565b16910610156108b4578798506107db6013939495969798612d0a565b9054600391821b1c6001600160a01b039081168352939094522080548b1660021790559061080887612d0a565b9054911b1c166014805490600160401b8210156108a0578c820180825582101561088c578f527fce6d7b5282bd9a3661ae061feed1dbda4e52ab073b1f9285be6e155d9c38d4ec0180546001600160a01b031916909117905589949392919061087f9061087490612ff4565b935b5f190194612f69565b948e8e91949293946105eb565b50634e487b7160e01b8f526032885260248ffd5b50634e487b7160e01b8f526041885260248ffd5b601361087f9497936108c58a612d0a565b905460039190911b1c6001600160a01b03168352522080548b1688179055610876565b634e487b7160e01b8e5283875260248efd5b8c8e6105f0565b8192505460101c16908216108e8e610777565b606482878a8a519262461bcd60e51b84528301526024820152714e6f7420656e6f75676820706c617965727360701b6044820152fd5b634e487b7160e01b885260218252602488fd5b5050346103a257806003193601126103a2578060609361097b612bcd565b93358152601960205281812060018060a01b0380951682526020522090600283835416936001840154169201549181519384526020840152820152f35b84929150346103a257816003193601126103a2576109d4612bb3565b6109dc612d3f565b600e5490926001600160a01b03916109f79083163314612d69565b60ff9182600854166008811015610cff57610cc557808416918288526020936012855280888a205416610c9157601154818a5460081c161115610c625780600554169060015492895194610140860186811067ffffffffffffffff821117610c4e579186888c8f9896948f90818b9a988f935284865287838701941684528a818701938185526060880196828852608089019860018a5260a081019a848c5260c082019d8e5281019d8e5261010081019e8f52610120019e8f52825260109052209b51168b549260ff60a01b905160a01b169151610ad481612c8a565b610add81612c8a565b6001600160b01b0319909316171760a89190911b60ff60a81b16178955516009811015610c3a5792600397969492610b4992610b1d610b8498968c612e3a565b518a54915161ffff60b81b1990921690151560b81b60ff60b81b1617911660c01b60ff60c01b16178855565b51865460ff60c81b191660c89190911b60ff60c81b161786555160018601555160028501805491151560ff1660ff1992909216919091179055565b51910155601154600160401b811015610c275791601291610bf185610bd28660017f267de9464a1783407eb0e8ba56bcd59ef059648e576c0703bfd6a3b84355e8319a999801601155612d0a565b90919082549060031b9160018060a01b03809116831b921b1916179055565b875252838520805460ff1916600117905560075493516001600160a01b0391909116815260ff919091166020820152604090a280f35b634e487b7160e01b875260418852602487fd5b8f8f6021602492634e487b7160e01b835252fd5b50634e487b7160e01b8c5260418d5260248cfd5b875162461bcd60e51b8152808b01869052600960248201526811d85b5948199d5b1b60ba1b6044820152606490fd5b875162461bcd60e51b8152808b01869052600e60248201526d105b1c9958591e481a9bda5b995960921b6044820152606490fd5b855162461bcd60e51b81526020818a0152601460248201527311d85b5948185b1c9958591e481cdd185c9d195960621b6044820152606490fd5b634e487b7160e01b885260218952602488fd5b84833461043b578160031936011261043b57600e5490516001600160a01b039091168152602090f35b84833461043b578160031936011261043b576020906011549051908152f35b929390503461039b578060031936011261039b576007549260ff92836008541691600954600a5490600b5493600c5495600d549782519a8b526008821015610e2057506101a09a5090610dfc959493929160208b015289015260608801528582166080880152858260081c1660a0880152858260101c1660c0880152858260181c1690870152848160201c166101008701528461012087019160281c16612d5c565b6101408401526001600160a01b03811661016084015260a01c161515610180820152f35b634e487b7160e01b815260218c52602490fd5b5050913461039b578060031936011261039b5760ff60085416916008831015610e63576020836007865191148152f35b634e487b7160e01b825260219052602490fd5b5050346103a257826003193601126103a257600a544210610f755760ff600854166008811015610f6257600290808203610eb95750505050610eb6613278565b80f35b600393818503610ed0575050505050610eb6613296565b8103610f4e575060ff19916005836008541617600855610ef1845442612efb565b600a55610eff601b54612f69565b601b55845b601154811015610f465780610f1b610f4192612d0a565b905490871b1c6001600160a01b0316875260106020528287208401805486169055612f69565b610f04565b505050505080f35b9150506005915003610eb657610eb6613e5e565b634e487b7160e01b845260218352602484fd5b906020606492519162461bcd60e51b8352820152600f60248201526e141a185cd9481b9bdd08195b991959608a1b6044820152fd5b5050346103a2576020918260031936011261039e5733845260128352610fd560ff8386205416612e5e565b33845260108352610fee60ff8386205460b81c16612f08565b60ff6008541660088110156110f75760026110099114612e99565b600954808552601584528285203386528452828520546110c15782916002611099927ff02c9de73b65f8945007c486ba938a543a854ccc59f818d87f26f5b724c276b995519261105884612df0565b35835286830142815285840191898352895260158852858920338a5288528589209351845551600184015551151591019060ff801983541691151516179055565b60075492600954825191338352820152a26110b2613106565b6110b95780f35b610eb6613278565b5082606492519162461bcd60e51b83528201526011602482015270105b1c9958591e4818dbdb5b5a5d1d1959607a1b6044820152fd5b634e487b7160e01b855260218252602485fd5b505090346103a257826003193601126103a257338352601260205261113460ff8385205416612e5e565b60ff60085416906008821015611187575061114f9015612e99565b61115833613005565b7fb2bd643202385c64d9814c6c3fa61b1ba098d6652292e9d9a6f1a0cdae6eb82460206007549251338152a280f35b634e487b7160e01b845260219052602483fd5b8385843461043b57608036600319011261043b578235838110156103a2576111c0612bcd565b60443560078110156113915760643590600982101561138d5733865260126020526111f060ff8688205416612e5e565b338652601060205261120a60ff8688205460b81c16612f08565b60ff60085416600881101561137a57876112249114612e99565b84519461123086612dd4565b338652602086019461124181612c8a565b85526001600160a01b039384169086019081529260608601916112649083612f77565b611272608087019384612e2e565b60a0860194428652601c54600160401b811015611367578060016112999201601c55612c04565b979097611355578290511691875491836001600160601b0360a01b841617895551916112c483612c8a565b6112cd83612c8a565b60ff60a01b9384936affffffffffffffffffffff60a81b94859160a01b1692161717885560018801955116918554935160078110156113425760a01b169216171782555190600982101561132f576002929161132891612f45565b5191015580f35b634e487b7160e01b855260218652602485fd5b634e487b7160e01b8a5260218b5260248afd5b634e487b7160e01b8952888a52602489fd5b634e487b7160e01b895260418a52602489fd5b634e487b7160e01b875260218852602487fd5b8580fd5b8480fd5b84833461043b578160031936011261043b57600f5490516001600160a01b039091168152602090f35b8385843461043b576020806003193601126103a2576113db612bb3565b933384526012825260ff6113f3818587205416612e5e565b3385526010835261140b818587205460b81c16612f08565b806008541660088110156115d15760056114259114612e99565b3385526010835280600285872001541661159f576001600160a01b039586169182158015928361156f575b501561153b57507ff1003b73c437642c0460aee9cd9628b0b8c447b66e6c7c905531b9c644214a1193949533875260108452600286882001600160ff1982541617905560028651916114a183612df0565b33835285830185815288840191428352601b548b5260198852898b20338c528852808a8c20955116906001600160601b0360a01b9182875416178655600186019251169082541617905551910155611515575b506007549251338152a261150661320f565b61150d5780f35b610eb6613e5e565b601b548552601a825283852090855281528284206115338154612f69565b9055846114f4565b845162461bcd60e51b8152908101849052600e60248201526d125b9d985b1a59081d185c99d95d60921b6044820152606490fd5b8488526012865286882054811691508161158b575b5088611450565b9050601085528587205460b81c1688611584565b50915162461bcd60e51b815291820152600d60248201526c105b1c9958591e481d9bdd1959609a1b6044820152606490fd5b634e487b7160e01b865260218352602486fd5b919290503461039e578360031936011261039e576101609354906001549260025491600354905490600554936006549688519860ff8881809a168c52818160081c1660208d015260101c16908a01526060890152608088015260a087015260c086015282821690850152818160081c16151561010085015260101c16610120830152610140820152f35b505090346103a257816003193601126103a257602092829161168e612bcd565b90358252601a85528282206001600160a01b039091168252845220549051908152f35b84833461043b578160031936011261043b5760ff81602093338152601285526116de838383205416612e5e565b338152601385522054169051906116f481612c8a565b8152f35b8385843461043b5760c036600319011261043b57823590600b8210156103a257611720612bcd565b604435906009821015611391576064359160ff9081841690818503611a2157608435926005841015611a1d573389526020956012875261176482898c205416612e5e565b338a526010875261177c82898c205460b81c16612f08565b8160085416600881101561195b5760036117969114612e99565b6009548a5260158752878a20338b528752878a209081549182156119ea57600201918254918483166119b4578a518a8101918d60f81b83526001600160601b03198b60601b1660218301528760f81b603583015260ff60f81b9060f81b1660368201528860f81b603782015260a43560388201523360601b6058820152604c815261182081612da4565b519020036119815760ff1916600117905586519460a0860167ffffffffffffffff81118782101761196e5788528886526001600160a01b03168686019081528588019261186d9084612e2e565b60608601938452608086019485526009548a5260168752878a20338b528752878a20955191600b83101561195b57865491610100600160a81b03905160081b169216906affffffffffffffffffffff60a81b1617178455516009811015610cff576118d89084612f45565b5190825490516005811015610cff577fb4add1a296dcfa323d45bec6a2df2b9ce9608ab03cc1e8a8220b0cd352c3a4339697985060ff60b81b9060b81b169160ff60b01b9060b01b169061ffff60b01b19161717905561194360075494835192338452830190612d4f565ba261194c61318a565b6119535780f35b610eb6613296565b634e487b7160e01b8b5260218c5260248bfd5b634e487b7160e01b8b5260418c5260248bfd5b885162461bcd60e51b8152808d01899052600d60248201526c090c2e6d040dad2e6dac2e8c6d609b1b6044820152606490fd5b8a5162461bcd60e51b8152808f018b9052601060248201526f105b1c9958591e481c995d99585b195960821b6044820152606490fd5b895162461bcd60e51b8152808e018a9052600d60248201526c139bc818dbdb5b5a5d1b595b9d609a1b6044820152606490fd5b8880fd5b8780fd5b5050346103a257806003193601126103a25780611a8f611aab9260a095611a4a612bcd565b953581526016602052818120600180891b038097168252602052205491805194611a778660ff8616612d4f565b8360081c166020860152840160ff8360a81c16612be3565b60ff8160b01c16606084015260ff608084019160b81c16612d5c565bf35b82853461039b578060031936011261039b57601c54611acb81612f83565b91611ad884519384612e0c565b818352601c815260209283810192827f0e4562a10381dec21b205ed72637e6b1b523bdd0e4d4d50af5cd23dd4500a211855b838310611ba25750505050845193808501918186525180925285850193925b828110611b365785850386f35b909192938260c06001928751848060a01b0380825116835284820151611b5b81612c8a565b858401528b820151168b830152611b7a60608083015190840190612c94565b611b8c60808083015190840190612be3565b60a0908101519082015201950193929101611b29565b6003886001928b9a97989a51611bb781612dd4565b8c611c09875491878060a01b03808416855260ff918260a095861c16611bdc81612c8a565b88870152898b015491821690860152611bfc8282861c1660608701612f77565b60a81c1660808401612e2e565b60028701549082015281520192019201919096949396611b0a565b84915083346103a2576020908160031936011261039e5735600981101561039e5792611c51829394612cb8565b93855190819485918188549485815201908198865282862094865b8b82601f8301106121a8575084611d9197549383831061218c575b83831061216d575b83831061214e575b83831061212f575b838310612111575b8383106120f2575b8383106120d3575b8383106120b4575b8d848410612095575b50838310612076575b838310612057575b838310612038575b838310612019575b838310611ffa575b838310611fdb575b838310611fbc575b838310611f9d575b838310611f7e575b838310611f5f575b838310611f40575b838310611f21575b838310611f02575b838310611ee3575b838310611ec4575b838310611ea5575b838310611e86575b838310611e67575b838310611e48575b838310611e2b575b50828210611e0e575b828210611df1575b5010611ddb575b5090509695949293960382612e0c565b83519485948186019282875251809352850193925b828110611db557505050500390f35b9193839550908082611dcb600194839751612be3565b0195019101918594939192611da6565b81611de89160f81c612be3565b01849089611d81565b84611e056001939660ff8760f01c16612be3565b01930184611d7a565b84611e226001939660ff8760e81c16612be3565b01930184611d72565b94611e3e8160ff87600196991c16612be3565b019301848d611d69565b91948181611e5e60019360ff8960d81c16612be3565b01950191611d61565b91948181611e7d60019360ff8960d01c16612be3565b01950191611d59565b91948181611e9c60019360ff8960c81c16612be3565b01950191611d51565b91948181611ebb60019360ff8960c01c16612be3565b01950191611d49565b91948181611eda60019360ff8960b81c16612be3565b01950191611d41565b91948181611ef960019360ff8960b01c16612be3565b01950191611d39565b91948181611f1860019360ff8960a81c16612be3565b01950191611d31565b91948181611f3760019360ff8960a01c16612be3565b01950191611d29565b91948181611f5660019360ff8960981c16612be3565b01950191611d21565b91948181611f7560019360ff8960901c16612be3565b01950191611d19565b91948181611f9460019360ff8960881c16612be3565b01950191611d11565b91948181611fb360019360ff8960801c16612be3565b01950191611d09565b91948181611fd260019360ff8960781c16612be3565b01950191611d01565b91948181611ff160019360ff8960701c16612be3565b01950191611cf9565b9194818161201060019360ff8960681c16612be3565b01950191611cf1565b9194818161202f60019360ff8960601c16612be3565b01950191611ce9565b9194818161204e60019360ff8960581c16612be3565b01950191611ce1565b9194818161206d60019360ff8960501c16612be3565b01950191611cd9565b9194818161208c60019360ff8960481c16612be3565b01950191611cd1565b866120aa600193959860ff8987951c16612be3565b019501918d611cc8565b919481816120ca60019360ff8960381c16612be3565b01950191611cbf565b919481816120e960019360ff8960301c16612be3565b01950191611cb7565b9194818161210860019360ff8960281c16612be3565b01950191611caf565b9194818161212660019360ff89851c16612be3565b01950191611ca7565b9194818161214560019360ff8960181c16612be3565b01950191611c9f565b9194818161216460019360ff8960101c16612be3565b01950191611c97565b9194818161218360019360ff8960081c16612be3565b01950191611c8f565b9194818161219f60019360ff8916612be3565b01950191611c87565b8396509361240c61040092956123fe61018061239061225a6123488c9a8f60019b9e6122b86123009254998c8b60ff9a826121e68d94858516612be3565b6121f7878201858560081c16612be3565b612208858201858560101c16612be3565b61227660609561221f878401878760181c16612be3565b61223260809987878c8701921c16612be3565b61226760a09b6122498d8601898960281c16612be3565b60c09e8f8601898960301c16612be3565b8401878760381c16612be3565b85856101008501921c16612be3565b6122896101208201858560481c16612be3565b61229c6101408201858560501c16612be3565b6122af6101608201858560581c16612be3565b01921c16612be3565b6122cb6101a08c01888b60681c16612be3565b6122de6101c08c01888b60701c16612be3565b6122f16101e08c01888b60781c16612be3565b86896102008d01921c16612be3565b6123136102208a01868960881c16612be3565b6123266102408a01868960901c16612be3565b6123396102608a01868960981c16612be3565b84876102808b01921c16612be3565b61235b6102a08801848760a81c16612be3565b61236e6102c08801848760b01c16612be3565b6123816102e08801848760b81c16612be3565b82856103008901921c16612be3565b6123a36103208601828560c81c16612be3565b6123b66103408601828560d01c16612be3565b6123c96103608601828560d81c16612be3565b6123db6103808601848d1c8316612be3565b6123ee6103a08601828560e81c16612be3565b6103c08501908360f01c16612be3565b6103e083019060f81c612be3565b01950191019286928894959295611c6c565b5050346103a257826003193601126103a25760ff91826008541660088110156110f75760070361261c575081600d5460a01c1691601154600191612463835483612fe1565b9286875b84811061256f575061247890612f9b565b96809281935b8585106124b0575050505050506124a8825194859415158552606060208601526060850190612cce565b918301520390f35b6124b985612d0a565b905460039190911b1c6001600160a01b03168a8a8061254e575b156124f657916124ea916102a1826124f095612fcd565b94612f69565b9361247e565b8a969296158061252c575b612511575b50506124f090612f69565b95612524916102a1826124f09599612fcd565b94908a612506565b505080845260136020528a6002848b8720541661254881612c8a565b14612501565b505080845260136020528a85848b8720541661256981612c8a565b146124d3565b61257881612d0a565b905460039190911b1c6001600160a01b031688806125fd575b156125af5750906125a46125aa91612f69565b91612f69565b612467565b881590816125dc575b506125c7575b6125aa90612f69565b906125d46125aa91612f69565b9190506125be565b905089526013602052600284888b2054166125f681612c8a565b145f6125b8565b50808a5260136020528385898c20541661261681612c8a565b14612591565b6020606492519162461bcd60e51b8352820152600e60248201526d11d85b59481b9bdd08195b99195960921b6044820152fd5b505090346103a25760203660031901126103a257359160175483101561039b575061267b608092612c51565b509081549160ff6002600183015492015416916126af81519460018060a01b038116865260ff602087019160a01c16612be3565b83015215156060820152f35b84833461043b578060031936011261043b5760ff816020936126db612bb3565b6126e3612d3f565b6001600160a01b039091168252601f86528282209084168252855220549151911615158152f35b84833461043b57602036600319011261043b5760209160ff9082906001600160a01b03612735612bb3565b168152601d85522054169051908152f35b84833461043b578160031936011261043b57602090601b549051908152f35b505090346103a25760203660031901126103a257612781612bb3565b600e5490916001600160a01b039161279c9083163314612d69565b60ff600854169060088210156128095750916127fd6020926127df7fb2bd643202385c64d9814c6c3fa61b1ba098d6652292e9d9a6f1a0cdae6eb8249515612e99565b821691828752601284526127f860ff8789205416612e5e565b613005565b6007549351908152a280f35b634e487b7160e01b865260219052602485fd5b505090346103a25760203660031901126103a257359160115483101561039b5750612848602092612d0a565b905491519160018060a01b039160031b1c168152f35b5050346103a257826003193601126103a2573383526020916012835261288960ff8386205416612e5e565b33845260138352600260ff83862054166128a281612c8a565b03612919575080519283849184601454928381520191601482527fce6d7b5282bd9a3661ae061feed1dbda4e52ab073b1f9285be6e155d9c38d4ec915b868282106128f95785906102118861040c84890385612e0c565b83546001600160a01b0316855288955090930192600192830192016128df565b82606492519162461bcd60e51b8352820152600c60248201526b2737ba1034b6b837b9ba37b960a11b6044820152fd5b505090346103a25760203660031901126103a2573591600983101561039b575060ff612976602093612ca1565b541690519015158152f35b505090346103a25760203660031901126103a2573591601c5483101561039b57506129ad60c092612c04565b50612a0d81549160ff8360a01c1693600260018301549201549381519560018060a01b0380921687526129df81612c8a565b60208701528216908501526129fd6060850160ff8360a01c16612c94565b60ff608085019160a81c16612be3565b60a0820152f35b82853461039b578060031936011261039b57601754612a3281612f83565b91612a3f84519384612e0c565b8183526017815260209283810192827fc624b66cc0138b8fabc209247f72d758e1cf3343756d543badbf24212bed8c15855b838310612ae45750505050845193808501918186525180925285850193925b828110612a9d5785850386f35b909192938260806001928751848060a01b038151168252612ac48482015185840190612be3565b808b0151828c015260609081015115159082015201950193929101612a90565b6003886001928b9a97989a51612af981612da4565b8554858060a01b0381168252612b1860ff809260a01c16858401612e2e565b8d86880154908301526002870154161515606082015281520192019201919096949396612a71565b84833461043b57602036600319011261043b5760209160ff9082906001600160a01b03612b6b612bb3565b1681526012855220541690519015158152f35b93505050346103a25760203660031901126103a2576020926001600160a01b03612ba6612bb3565b168152601e845220548152f35b600435906001600160a01b0382168203612bc957565b5f80fd5b602435906001600160a01b0382168203612bc957565b906009821015612bf05752565b634e487b7160e01b5f52602160045260245ffd5b601c54811015612c3d57600390601c5f52027f0e4562a10381dec21b205ed72637e6b1b523bdd0e4d4d50af5cd23dd4500a21101905f90565b634e487b7160e01b5f52603260045260245ffd5b601754811015612c3d5760039060175f52027fc624b66cc0138b8fabc209247f72d758e1cf3343756d543badbf24212bed8c1501905f90565b60041115612bf057565b906007821015612bf05752565b6009811015612bf0575f52601860205260405f2090565b6009811015612bf0575f526020805260405f2090565b9081518082526020808093019301915f5b828110612ced575050505090565b83516001600160a01b031685529381019392810192600101612cdf565b601154811015612c3d5760115f527f31ecc21a745e3968a04e9570e4425bc18fa8019c68028196b546d1669c200c6801905f90565b6024359060ff82168203612bc957565b90600b821015612bf05752565b906005821015612bf05752565b15612d7057565b60405162461bcd60e51b815260206004820152600c60248201526b4f6e6c7920666163746f727960a01b6044820152606490fd5b6080810190811067ffffffffffffffff821117612dc057604052565b634e487b7160e01b5f52604160045260245ffd5b60c0810190811067ffffffffffffffff821117612dc057604052565b6060810190811067ffffffffffffffff821117612dc057604052565b90601f8019910116810190811067ffffffffffffffff821117612dc057604052565b6009821015612bf05752565b906009811015612bf057815460ff60b01b191660b09190911b60ff60b01b16179055565b15612e6557565b60405162461bcd60e51b815260206004820152600c60248201526b2737ba103090383630bcb2b960a11b6044820152606490fd5b15612ea057565b60405162461bcd60e51b815260206004820152600b60248201526a57726f6e6720706861736560a81b6044820152606490fd5b9060ff8091169116039060ff8211612ee757565b634e487b7160e01b5f52601160045260245ffd5b91908201809211612ee757565b15612f0f57565b60405162461bcd60e51b815260206004820152600e60248201526d141b185e595c881a5cc81919585960921b6044820152606490fd5b906009811015612bf057815460ff60a81b191660a89190911b60ff60a81b16179055565b5f198114612ee75760010190565b6007821015612bf05752565b67ffffffffffffffff8111612dc05760051b60200190565b90612fa582612f83565b612fb26040519182612e0c565b8281528092612fc3601f1991612f83565b0190602036910137565b8051821015612c3d5760209160051b010190565b81810292918115918404141715612ee757565b60ff1660ff8114612ee75760010190565b6001600160a01b039081165f818152601260205260408120805460ff1916905590815b60118054808310156130fb579085918461304185612d0a565b949054600395861b1c16146130615750505061305c90612f69565b613028565b90925f969294959619918281019081116130e75790610bd28461308661309394612d0a565b905490891b1c1691612d0a565b825480156130d35701926130a684612d0a565b81939154921b1b19169055555b815260106020526003604082208281558260018201558260028201550155565b634e487b7160e01b87526031600452602487fd5b634e487b7160e01b88526004859052602488fd5b5050509091506130b3565b6011545f5b818110613119575050600190565b61312281612d0a565b60018060a01b0391549060031b1c16805f526020906010825260409060ff825f205460b81c16928361316a575b5050506131645761315f90612f69565b61310b565b50505f90565b909192506009545f5260158152825f20915f52525f2054155f808061314f565b6011545f5b81811061319d575050600190565b6131a681612d0a565b60018060a01b0391549060031b1c16805f526020906010825260ff9060409082825f205460b81c1693846131eb575b50505050613164576131e690612f69565b61318f565b60029394506009545f5260158152825f20915f52525f20015416155f8080806131d5565b6011545f5b818110613222575050600190565b61322b81612d0a565b60018060a01b0391549060031b1c165f52601060205260405f2060ff80825460b81c169182613269575b50506131645761326490612f69565b613214565b60020154161590505f80613255565b600360ff19600854161760085561329160025442612efb565b600a55565b5f905b601154821015613438576132ac82612d0a565b60018060a01b0391549060031b1c1691825f52601092602084815260ff9460409086825f205460b81c16156134295760099687545f5260168452825f20855f528452825f208054828116600b811015612bf0576001810361334c57505061332e9798505460a81c169261331f84866140ea565b613334575b5050505050612f69565b90613299565b613342945f52525f20612e3a565b5f80808080613324565b6007919493959692501461336c575b50505050505061332e919250612f69565b855f5260138152600284865f20541661338481612c8a565b14806133bc575b61332e98995061339e575b88975061335b565b6133b1955f525260a81c16905f20612e3a565b5f8080808080613396565b50838360a81c16865f5282825284865f205460b01c168a811015612bf0575f526021998a835285875f2054169080831015613416578110156134035798995089981461338b565b8a634e487b7160e01b5f5260045260245ffd5b8b634e487b7160e01b5f5260045260245ffd5b5050505061332e919250612f69565b5f91505b6011548210156137c95761344f82612d0a565b92905492600360018060a01b038583831b1c165f526010948560205260ff958660405f205460b81c161580156137aa575b61379b576009545f52601660205260405f2060018060a01b038386861b1c165f5260205260405f20549680881690600b9182811015612bf05760048091146134db575b505050505050506134d5919250612f69565b9061343c565b6008936134fb6001600160a01b038c871c8116908a8a1b89901c16614197565b613506575b506134c3565b60018060a01b038689891b1c165f526020528160405f205460b01c169260018060a01b038b861c165f5260405f2060ff60b81b1981541690556013928360205260405f208860ff19825416179055815490806135638184166140db565b16908d8260ff198516179081865560018060a01b03818b1c165f52876020528260405f2054169761359389612c8a565b600180991491821561376b575b5050613744575b5050505050600954604051906135bc82612da4565b8b861c6001600160a01b031682526135d78560208401612e2e565b60408201525f60608201526017805490600160401b82101561373157848201905561360190612c51565b92909261371f57815183546001600160a01b031981166001600160a01b0392909216918217855560208401519092600982101561370c57506134d59c9d94600260606136e2967f7b9d6b76f1741e06eec153029570ea1c7e0fd51cd35433d4581d8f5c2d53663a9a9660409a966136b09660ff60a01b9060a01b16916affffffffffffffffffffff60a81b161717845589810151868501550151151591019060ff801983541691151516179055565b6136b982612ca1565b805460ff1916909117905560075484519390961c6001600160a01b031683526020830190612be3565ba26009549260018060a01b03921b1c165f52601e60205260405f205582915f808080808080613500565b602190634e487b7160e01b5f525260245ffd5b5f90634e487b7160e01b82525260245ffd5b604184634e487b7160e01b5f525260245ffd5b61ff0091613754918a1c166140db565b881b169161ffff1916171790555f808080806135a7565b8b1c6001600160a01b03165f90815260209190915260409020548c9150831661379381612c8a565b148f806135a0565b505050506134d5919250612f69565b50601360205260028760405f2054166137c281612c8a565b1415613480565b90505f5b60115481101561399a576137e081612d0a565b60018060a01b0391549060031b1c1690815f526010602081815260ff9360409085825f205460b81c1615801561397d575b61396f576009545f5260168352815f20815f528352815f209384549680881697600b808a1015612bf05760026138549a14613859575b5050505050505050612f69565b6137cd565b8260b092831c16938360055416851080613953575b613879575b50613847565b7ff690e4578493b48449a2f4abdd9d0fdb1ea79e133f08a7662dcd26ec1d18be5b9761394295875f52601f8252885f20905f528152875f20600160ff19825416179055865f52526138ef865f206138d585825460c01c16612ff4565b815460ff60c01b191660c09190911b60ff60c01b16179055565b805463ff00000060186139058684831c16612ff4565b63ff0000001990931692901b16179055600754965494516001600160a01b03909416845260ff94901c169290921660208201529081906040820190565b0390a25f8080808080808080613873565b50855f52601f8852865f20855f52885283875f2054161561386e565b505050506138549150612f69565b5060138352600186835f20541661399381612c8a565b1415613811565b505f905b6011918254811015613b4c576139b381612d0a565b90549060039160018060a01b0391831b1c1693845f526020946010865260ff90604092835f2054918360b893841c16158015613b2f575b613b1e576009545f5260168952845f20905f528852835f2094855490848216600b9081811015612bf05760081480613b07575b613a3b575b5050505050505050613a35919250612f69565b9061399e565b600592838782881c161015612bf05765ff000000000082549160901c169065ff00000000001916179055848754851c1691821015612bf05760028214918215613afd575b5050613ad3575b5091613ac4613a359697927ff8c7a5d3cd2a8403be768323a019b4cf26b9d75b1e6554fff259a3b1bc99e851946007549654901c1691518092612d5c565ba282915f808080808080613a22565b602d420190814211613aeb5750600c55613ac4613a86565b634e487b7160e01b5f5260045260245ffd5b1490505f80613a7f565b5085815460281c166005811015612bf05715613a1d565b505050505050613a35919250612f69565b5060138952600284865f205416613b4581612c8a565b14156139ea565b5090505f805b601154811015613e5857613b6581612d0a565b60018060a01b0391549060031b1c16805f52601060209080825260ff9260409184835f205460b81c1615613e4a57600980545f5260168552835f20835f52855285845f205416600b811015612bf057600590808203613d89575050825f52818552835f20549580613bdb8160b0998a1c16612ca1565b5416613bf65750505050505050613bf190612f69565b613b52565b919395975091939550806001978894865f528852865f2054901c1690613c1b82612ca1565b9160ff19928381541690555f9380821015955b613d0e575b505050505050907fcbdfb6b7e05d070a6444876281f9f3386a61cf40ece0023404ad6e792cde2952915f600754948351928352820152a25b613c73614252565b613ca55715613d0457600460ff196008541617600855613c9560045442612efb565b600a55601c545f601c5580613ca8575b50565b6003908082029082820403612ee757601c5f527f0e4562a10381dec21b205ed72637e6b1b523bdd0e4d4d50af5cd23dd4500a211908101905b818110613ced57505050565b805f8492555f60018201555f600282015501613ce1565b613d0c6140b4565b565b601754851015613d84578583613d2387612c51565b505460a01c1690612bf05781811015612bf0578a9583613d4d921480613d6d575b613d5357612f69565b94613c2e565b6002613d5e82612c51565b50018787825416179055612f69565b50846002613d7a83612c51565b5001541615613d44565b613c33565b9096949594929190600614613da9575b50505050505050613bf190612f69565b835f52601d968786528380885f2054169154841c16119182613e2d575b5050613dd3578080613d99565b90919294507f5c060751bfc1d36c13e431632d3d718cdf20937c9aa106e2daea35a08db3dd87939550600195825f528352845f2090815490613e16818316612ff4565b169060ff19161790556007549351908152a2613c6b565b85525f8690205460b01c83169150811015612bf057155f80613dc6565b5050505050613bf190612f69565b50613c6b565b5f80809181601154601b54905b80831061400557505050600b92607f845460011c1690159182613ffb575b505080613fe9575b15613fbb576001600160a01b03165f81815260136020526040908190205460ff908116937fafe99c8dcc3722fe8e66b7610981a2e3c4dd77f952510618cd23b2e34b2d5f58939190613ee286612c8a565b5f8381526010602052849020805460ff60b81b1916905580549180613f088185166140db565b169260ff19938085831617808555865f526013602052600284895f205416613f2f81612c8a565b03613f955750505062ff0000613f4b8354928360101c166140db565b60101b169062ff000019161790555b815f5260136020526003835f20918254161790556002600754948351928352146020820152a25b613f89614252565b613d0c57613d0c6140b4565b61ff00919293613fa89160081c166140db565b60081b169161ffff191617179055613f5a565b50506007547fcdc14c59d69f25c2c14122304ccc3491b39236f0dee9560608e353ebe04210265f80a2613f81565b506001600160a01b0381161515613e91565b1190505f80613e89565b91946140148695949295612d0a565b60018060a01b0391549060031b1c1693845f5260206010815260409060ff825f205460b81c16156140a457875f52601a8152815f2090875f52525f2054928084115f1461407057505050919261406a5f95612f69565b91613e6b565b8095508391969397929714908161409a575b50614091575b61406a90612f69565b60019550614088565b905015155f614082565b5050949193509461406a90612f69565b6140bf600954612f69565b600955600260ff19600854161760085561329160025442612efb565b60ff168015612ee7575f190190565b905f9160018060a01b031682526020906010825260ff61411281604086205460b01c16612cb8565b80549390855b8581106141285750505050505090565b818752838388208260051c015460f88360031b161c166009808710156141835781101561416f5785146141635761415e90612f69565b614118565b50505050505050600190565b634e487b7160e01b88526021600452602488fd5b634e487b7160e01b89526021600452602489fd5b6001600160a01b039182165f81815260106020526040812054909391929060b81c60ff161561424c57169081835260ff604084205460b01c1690835260ff604084205460b01c16906009821015614238576009811015614238570361423457600954908252601e60205260408220548103908111614220576006541161421d5750600190565b90565b634e487b7160e01b82526011600452602482fd5b5090565b634e487b7160e01b84526021600452602484fd5b50505090565b600b5460ff9081808260201c169160181c1610156142e05780600b5460101c16156142e057600b5481808260081c169160101c1610156142d757600b5460281c166005811015612bf057600281149081156142cc575b506142b1575f90565b600c544210156142bf575f90565b6142c7614349565b600190565b60039150145f6142a8565b506142c7614349565b506142c76008805460ff19166007179055600d805460ff60a01b1916600160a01b17905560115460015461431391612fe1565b7f23a981c64fcca643cfca5c0a1808d5ec0692fcc6aa4c11554d02964a4f372841604060075492815190600182526020820152a2565b6008805460ff19166007179055600d805460ff60a01b1916905560115460015461437291612fe1565b7f23a981c64fcca643cfca5c0a1808d5ec0692fcc6aa4c11554d02964a4f3728416040600754928151905f82526020820152a256fea2646970667358221220c31a83b9502df2d06a2430342dd4e42ebbfed0f52dd6c9f07e96372e4f9bbaca64736f6c63430008140033","linkReferences":{}},"methodIdentifiers":{"advancePhase()":"be25a718","commitAction(bytes32)":"bb61ce9b","commitments(uint256,address)":"e90d4c06","config()":"79502c55","currentVoteRound()":"1b689ad0","deadBodies(uint256)":"34113f36","emergencyMeetingsUsed(address)":"1e8263a0","factory()":"c45a0155","getAdjacentRooms(uint8)":"4e2406c6","getAllPlayers()":"efa1c482","getDeadBodies()":"0a5f0da2","getImpostors()":"106599d6","getMessages()":"5ff6cbf3","getMyRole()":"6e3b47fc","getPlayerCount()":"c2e52206","getPlayersAtLocation(uint8)":"f6d42995","getResults()":"4717f97c","hasBodyAt(uint8)":"1022fe05","isGameEnded()":"c085ecc8","isPlayer(address)":"09c95e10","joinGame(address,uint8)":"d0a572b4","lastKillRound(address)":"046e3cde","leaveGame()":"b1501f9c","leaveGameFor(address)":"183ea8e6","messages(uint256)":"0d80fefd","playerAddresses(uint256)":"15c6aee2","players(address)":"e2eb41ff","revealAction(uint8,address,uint8,uint8,uint8,bytes32)":"6855d496","revealedActions(uint256,address)":"669ead17","startGame()":"d65ab5f2","state()":"c19d93fb","submitMessage(uint8,address,uint8,uint8)":"95fd6219","submitVote(address)":"7bc27dac","taskCompleted(address,uint8)":"2a4b0776","voteCount(uint256,address)":"74545c7b","votes(uint256,address)":"d23254b4","wagerVault()":"84df5d84"},"id":20}