{"abi":[{"type":"constructor","inputs":[{"name":"_agentRegistry","type":"address","internalType":"address"}],"stateMutability":"nonpayable"},{"type":"receive","stateMutability":"payable"},{"type":"function","name":"agentRegistry","inputs":[],"outputs":[{"name":"","type":"address","internalType":"contract AgentRegistry"}],"stateMutability":"view"},{"type":"function","name":"balances","inputs":[{"name":"","type":"address","internalType":"address"}],"outputs":[{"name":"","type":"uint256","internalType":"uint256"}],"stateMutability":"view"},{"type":"function","name":"deposit","inputs":[],"outputs":[],"stateMutability":"payable"},{"type":"function","name":"gameSettlement","inputs":[],"outputs":[{"name":"","type":"address","internalType":"address"}],"stateMutability":"view"},{"type":"function","name":"getBalance","inputs":[{"name":"agent","type":"address","internalType":"address"}],"outputs":[{"name":"","type":"uint256","internalType":"uint256"}],"stateMutability":"view"},{"type":"function","name":"getContractBalance","inputs":[],"outputs":[{"name":"","type":"uint256","internalType":"uint256"}],"stateMutability":"view"},{"type":"function","name":"getGamePlayers","inputs":[{"name":"gameId","type":"bytes32","internalType":"bytes32"}],"outputs":[{"name":"","type":"address[]","internalType":"address[]"}],"stateMutability":"view"},{"type":"function","name":"getGamePot","inputs":[{"name":"gameId","type":"bytes32","internalType":"bytes32"}],"outputs":[{"name":"","type":"uint256","internalType":"uint256"}],"stateMutability":"view"},{"type":"function","name":"hasWagered","inputs":[{"name":"gameId","type":"bytes32","internalType":"bytes32"},{"name":"agent","type":"address","internalType":"address"}],"outputs":[{"name":"","type":"bool","internalType":"bool"}],"stateMutability":"view"},{"type":"function","name":"isGameRefunded","inputs":[{"name":"gameId","type":"bytes32","internalType":"bytes32"}],"outputs":[{"name":"","type":"bool","internalType":"bool"}],"stateMutability":"view"},{"type":"function","name":"isGameSettled","inputs":[{"name":"gameId","type":"bytes32","internalType":"bytes32"}],"outputs":[{"name":"","type":"bool","internalType":"bool"}],"stateMutability":"view"},{"type":"function","name":"owner","inputs":[],"outputs":[{"name":"","type":"address","internalType":"address"}],"stateMutability":"view"},{"type":"function","name":"placeWager","inputs":[{"name":"gameId","type":"bytes32","internalType":"bytes32"}],"outputs":[],"stateMutability":"nonpayable"},{"type":"function","name":"protocolFeePercent","inputs":[],"outputs":[{"name":"","type":"uint256","internalType":"uint256"}],"stateMutability":"view"},{"type":"function","name":"refundGame","inputs":[{"name":"gameId","type":"bytes32","internalType":"bytes32"}],"outputs":[],"stateMutability":"nonpayable"},{"type":"function","name":"setGameSettlement","inputs":[{"name":"_gameSettlement","type":"address","internalType":"address"}],"outputs":[],"stateMutability":"nonpayable"},{"type":"function","name":"setProtocolFee","inputs":[{"name":"_feePercent","type":"uint256","internalType":"uint256"}],"outputs":[],"stateMutability":"nonpayable"},{"type":"function","name":"setWagerAmount","inputs":[{"name":"_wagerAmount","type":"uint256","internalType":"uint256"}],"outputs":[],"stateMutability":"nonpayable"},{"type":"function","name":"settleGame","inputs":[{"name":"gameId","type":"bytes32","internalType":"bytes32"},{"name":"winners","type":"address[]","internalType":"address[]"}],"outputs":[],"stateMutability":"nonpayable"},{"type":"function","name":"transferOwnership","inputs":[{"name":"newOwner","type":"address","internalType":"address"}],"outputs":[],"stateMutability":"nonpayable"},{"type":"function","name":"wagerAmount","inputs":[],"outputs":[{"name":"","type":"uint256","internalType":"uint256"}],"stateMutability":"view"},{"type":"function","name":"withdraw","inputs":[{"name":"amount","type":"uint256","internalType":"uint256"}],"outputs":[],"stateMutability":"nonpayable"},{"type":"function","name":"withdrawProtocolFees","inputs":[],"outputs":[],"stateMutability":"nonpayable"},{"type":"event","name":"Deposited","inputs":[{"name":"agent","type":"address","indexed":true,"internalType":"address"},{"name":"amount","type":"uint256","indexed":false,"internalType":"uint256"},{"name":"newBalance","type":"uint256","indexed":false,"internalType":"uint256"}],"anonymous":false},{"type":"event","name":"GameRefunded","inputs":[{"name":"gameId","type":"bytes32","indexed":true,"internalType":"bytes32"},{"name":"playersRefunded","type":"uint256","indexed":false,"internalType":"uint256"}],"anonymous":false},{"type":"event","name":"GameSettled","inputs":[{"name":"gameId","type":"bytes32","indexed":true,"internalType":"bytes32"},{"name":"winners","type":"address[]","indexed":false,"internalType":"address[]"},{"name":"winningsPerPlayer","type":"uint256","indexed":false,"internalType":"uint256"},{"name":"protocolFee","type":"uint256","indexed":false,"internalType":"uint256"}],"anonymous":false},{"type":"event","name":"ProtocolFeeUpdated","inputs":[{"name":"oldFee","type":"uint256","indexed":false,"internalType":"uint256"},{"name":"newFee","type":"uint256","indexed":false,"internalType":"uint256"}],"anonymous":false},{"type":"event","name":"WagerAmountUpdated","inputs":[{"name":"oldAmount","type":"uint256","indexed":false,"internalType":"uint256"},{"name":"newAmount","type":"uint256","indexed":false,"internalType":"uint256"}],"anonymous":false},{"type":"event","name":"WagerPlaced","inputs":[{"name":"gameId","type":"bytes32","indexed":true,"internalType":"bytes32"},{"name":"agent","type":"address","indexed":true,"internalType":"address"},{"name":"amount","type":"uint256","indexed":false,"internalType":"uint256"}],"anonymous":false},{"type":"event","name":"Withdrawn","inputs":[{"name":"agent","type":"address","indexed":true,"internalType":"address"},{"name":"amount","type":"uint256","indexed":false,"internalType":"uint256"},{"name":"newBalance","type":"uint256","indexed":false,"internalType":"uint256"}],"anonymous":false}],"bytecode":{"object":"0x608034608c57601f61131038819003918201601f19168301916001600160401b03831184841017609057808492602094604052833981010312608c57516001600160a01b03811690819003608c57655af3107a400060035560056004555f80546001600160a01b031990811633179091556002805490911691909117905560405161126b90816100a58239f35b5f80fd5b634e487b7160e01b5f52604160045260245ffdfe6080806040526004361015610098575b50361561001a575f80fd5b600160055461002c60ff821615611028565b60ff191617600555335f52600660205260405f2061004b348254611213565b9055335f52600660205260405f20546040519034825260208201527f73a19dd210f1a7f902193214c0ee91dd35ee5b4d920cba8d519eca65a7b488ca60403392a260ff1960055416600555005b5f905f3560e01c9081630d1cfcae14610fb65750806327e235e314610f7e5780632d1b2c0614610f2f5780632e1a7d4d14610e3c57806332fb035c14610e145780633c26173414610d5957806349de470414610d3c5780636512859814610ce55780636f9fb98a14610cca57806377d698ba14610ca0578063787dce3d14610c055780637ac20cf114610bd0578063857ae419146109045780638795cccb1461083a5780638da5cb5b14610813578063984c1f3d146105e8578063b0246708146104d5578063d0e30db01461034f578063d6766eef1461031e578063d6e6eb9f14610300578063f2fde38b14610278578063f8b2cb4f1461023f5763ffd924a60361000f573461023c57602036600319011261023c576004356101c560018060a01b038354163314610fef565b8015610203577fafdc20ac1d421ba9009d06290160ca77210434bbebe841d29af7367ab73bc45c60406003548151908152836020820152a160035580f35b60405162461bcd60e51b815260206004820152601160248201527005761676572206d757374206265203e203607c1b6044820152606490fd5b80fd5b503461023c57602036600319011261023c576020906040906001600160a01b03610267610fd9565b168152600683522054604051908152f35b503461023c57602036600319011261023c57610292610fd9565b8154906102a9336001600160a01b03841614610fef565b6001600160a01b03169081156102c9576001600160a01b03191617815580f35b60405162461bcd60e51b815260206004820152600f60248201526e496e76616c6964206164647265737360881b6044820152606490fd5b503461023c578060031936011261023c576020600454604051908152f35b503461023c57602036600319011261023c5760ff600460406020938235815260078552200154166040519015158152f35b505f36600319011261045857341561049757335f52600660205260405f20610378348254611213565b905560025460405163c3c5a54760e01b81523360048201526001600160a01b0390911690602081602481855afa90811561044d575f9161045c575b50156103fd575b50338152600660205260408120546040519034825260208201527f73a19dd210f1a7f902193214c0ee91dd35ee5b4d920cba8d519eca65a7b488ca60403392a280f35b803b15610458575f8091606460405180948193630457067b60e31b8352336004840152604060248401528160448401525af1801561044d57156103ba5761044691505f90611072565b5f5f6103ba565b6040513d5f823e3d90fd5b5f80fd5b90506020813d60201161048f575b8161047760209383611072565b8101031261045857518015158103610458575f6103b3565b3d915061046a565b60405162461bcd60e51b81526020600482015260166024820152754d757374206465706f73697420736f6d657468696e6760501b6044820152606490fd5b34610458576020366003190112610458576004356104fe60018060a01b03600154163314611111565b805f52600760205260405f2060048101805461051d60ff82161561115d565b60ff8160081c166105b0576101009061ff0019161790556002600182015491018054915f5b83811061057757847f2d529b69802c34e455e4ac64a23bd6969039ed14c134027ed2903cbc04c0952c602086604051908152a2005b8061058460019285611220565b838060a01b0391549060031b1c165f52600660205260405f206105a8848254611213565b905501610542565b60405162461bcd60e51b815260206004820152601060248201526f105b1c9958591e481c99599d5b99195960821b6044820152606490fd5b3461045857602036600319011261045857600435335f52600660205260405f20546003548091106107ce575f82815260076020908152604080832033845260030190915290205460ff1661079757815f52600760205260ff600460405f2001541661075b57815f52600760205261066c60ff600460405f20015460081c161561119b565b815f52600760205260405f206002810191825415610750575b335f52600660205261069c60405f20918254611065565b90556106ab6003548254611213565b81558154916801000000000000000083101561073c57826106d3916001600395018155611220565b81546001600160a01b0391851b91821b1916339182901b179091555f818152919092016020908152604091829020805460ff1916600117905560035491519182529192917f6d71ed1db21e0b5d0289b076b8d7ecdaf4b86e36dbdc5c3fd2cc468ece7c564591a3005b634e487b7160e01b5f52604160045260245ffd5b806001830155610685565b60405162461bcd60e51b815260206004820152601460248201527311d85b5948185b1c9958591e481cd95d1d1b195960621b6044820152606490fd5b60405162461bcd60e51b815260206004820152600f60248201526e105b1c9958591e481dd859d95c9959608a1b6044820152606490fd5b60405162461bcd60e51b815260206004820152601e60248201527f496e73756666696369656e742062616c616e636520666f7220776167657200006044820152606490fd5b34610458575f366003190112610458575f546040516001600160a01b039091168152602090f35b34610458575f366003190112610458575f546001600160a01b0316610860338214610fef565b600160055461087260ff821615611028565b60ff191617600555805f52600660205260405f205480156108c9575f808080936108bd958252600660205281604081205560018060a01b038254165af16108b7611094565b506110d3565b6005805460ff19169055005b60405162461bcd60e51b81526020600482015260136024820152724e6f206665657320746f20776974686472617760681b6044820152606490fd5b346104585760403660031901126104585760043560243567ffffffffffffffff811161045857366023820112156104585780600401359067ffffffffffffffff8211610458576024810190602436918460051b0101116104585761097360018060a01b03600154163314611111565b825f52600760205260405f2060048101805461099260ff82161561115d565b6109a260ff8260081c161561119b565b8254928315610b98578515610b5f576003015f5b868110610af057505060ff191660011790556004548181029082820403610adc57926109e86064829495048093611065565b045f5b838110610a9957505f80546001600160a01b031681526006602052604090208054610a17908490611213565b905560405192806060850160608652526080840194905f905b808210610a6d57505050602083015260408201527f3a5eb24acb43171a514dfd2ed6c746dd03370714f7b0d879fe720d75281220529181900390a2005b9091949585359060018060a01b0382168092036104585790815260209081019695019160010190610a30565b9293926001906001600160a01b03610aba610ab58389896111db565b6111ff565b165f52600660205260405f20610ad1848254611213565b9055019392936109eb565b634e487b7160e01b5f52601160045260245ffd5b610afe610ab58289896111db565b6001600160a01b03165f9081526020839052604090205460ff1615610b25576001016109b6565b60405162461bcd60e51b815260206004820152601260248201527157696e6e6572206e6f7420696e2067616d6560701b6044820152606490fd5b60405162461bcd60e51b81526020600482015260116024820152704d75737420686176652077696e6e65727360781b6044820152606490fd5b60405162461bcd60e51b815260206004820152601060248201526f4e6f20706f7420746f20736574746c6560801b6044820152606490fd5b34610458576020366003190112610458576004355f526007602052602060ff600460405f20015460081c166040519015158152f35b3461045857602036600319011261045857600435610c2d60018060a01b035f54163314610fef565b60148111610c6c577fb404cac19fb1cbeff98d325795b08886e3cd8fe8cb1a2f193aac66f13fb239c360406004548151908152836020820152a1600455005b60405162461bcd60e51b815260206004820152600c60248201526b08ccaca40e8dede40d0d2ced60a31b6044820152606490fd5b34610458576020366003190112610458576004355f526007602052602060405f2054604051908152f35b34610458575f36600319011261045857602047604051908152f35b34610458576040366003190112610458576024356001600160a01b0381168103610458576004355f526007602052600360405f20019060018060a01b03165f52602052602060ff60405f2054166040519015158152f35b34610458575f366003190112610458576020600354604051908152f35b34610458576020366003190112610458576004355f526007602052600260405f2001604051806020835491828152019081935f5260205f20905f5b818110610df55750505081610daa910382611072565b604051918291602083019060208452518091526040830191905f5b818110610dd3575050500390f35b82516001600160a01b0316845285945060209384019390920191600101610dc5565b82546001600160a01b0316845260209093019260019283019201610d94565b34610458575f366003190112610458576001546040516001600160a01b039091168152602090f35b34610458576020366003190112610458576004356001600554610e6260ff821615611028565b60ff191617600555335f5260066020528060405f205410610ef357335f52600660205260405f20610e94828254611065565b9055610ea95f80808085335af16108b7611094565b335f52600660205260405f205460405191825260208201527f92ccf450a286a957af52509bc1c9939d1a6a481783e142e41e2499f0bb66ebc660403392a26005805460ff19169055005b60405162461bcd60e51b8152602060048201526014602482015273496e73756666696369656e742062616c616e636560601b6044820152606490fd5b3461045857602036600319011261045857610f48610fd9565b610f5c60018060a01b035f54163314610fef565b600180546001600160a01b0319166001600160a01b0392909216919091179055005b34610458576020366003190112610458576001600160a01b03610f9f610fd9565b165f526006602052602060405f2054604051908152f35b34610458575f366003190112610458576002546001600160a01b03168152602090f35b600435906001600160a01b038216820361045857565b15610ff657565b60405162461bcd60e51b815260206004820152600a60248201526927b7363c9037bbb732b960b11b6044820152606490fd5b1561102f57565b60405162461bcd60e51b815260206004820152600e60248201526d1499595b9d1c985b9d0818d85b1b60921b6044820152606490fd5b91908203918211610adc57565b90601f8019910116810190811067ffffffffffffffff82111761073c57604052565b3d156110ce573d9067ffffffffffffffff821161073c57604051916110c3601f8201601f191660200184611072565b82523d5f602084013e565b606090565b156110da57565b60405162461bcd60e51b815260206004820152600f60248201526e151c985b9cd9995c8819985a5b1959608a1b6044820152606490fd5b1561111857565b60405162461bcd60e51b815260206004820152601860248201527f4f6e6c7920736574746c656d656e7420636f6e747261637400000000000000006044820152606490fd5b1561116457565b60405162461bcd60e51b815260206004820152600f60248201526e105b1c9958591e481cd95d1d1b1959608a1b6044820152606490fd5b156111a257565b60405162461bcd60e51b815260206004820152601160248201527011d85b59481dd85cc81c99599d5b991959607a1b6044820152606490fd5b91908110156111eb5760051b0190565b634e487b7160e01b5f52603260045260245ffd5b356001600160a01b03811681036104585790565b91908201809211610adc57565b80548210156111eb575f5260205f2001905f9056fea2646970667358221220283ef7f5ef33f18aa6a15c87d999611016697a2d15d690a7be678a31dc32ccee64736f6c634300081c0033","linkReferences":{}},"methodIdentifiers":{"agentRegistry()":"0d1cfcae","balances(address)":"27e235e3","deposit()":"d0e30db0","gameSettlement()":"32fb035c","getBalance(address)":"f8b2cb4f","getContractBalance()":"6f9fb98a","getGamePlayers(bytes32)":"3c261734","getGamePot(bytes32)":"77d698ba","hasWagered(bytes32,address)":"65128598","isGameRefunded(bytes32)":"7ac20cf1","isGameSettled(bytes32)":"d6766eef","owner()":"8da5cb5b","placeWager(bytes32)":"984c1f3d","protocolFeePercent()":"d6e6eb9f","refundGame(bytes32)":"b0246708","setGameSettlement(address)":"2d1b2c06","setProtocolFee(uint256)":"787dce3d","setWagerAmount(uint256)":"ffd924a6","settleGame(bytes32,address[])":"857ae419","transferOwnership(address)":"f2fde38b","wagerAmount()":"49de4704","withdraw(uint256)":"2e1a7d4d","withdrawProtocolFees()":"8795cccb"},"id":21}